:020000040000FA
:06000000006A30EF02F07F
:04000800C1EF03F051
:0800180033EF02F00F010B6E43
:10002000000E026E120E036E7A0E066E076AF9EC6F
:1000300001F00C6A035006E00C803CD8FC0F02E390
:100040000C8238D802060A3C03D0F468F36805D065
:100050000A50F46EF36A023C0A020F010B2E0DD017
:10006000BD50CF0BF3BEE88AF3BCE8880C09F4CF8F
:10007000BEFFBD6E94940D6A10D00B2E0DD0BA50F9
:10008000CF0BF3BEE88AF3BCE8880C09F4CFBBFFC2
:10009000BA6E94920D6A01D00AD00D2A0D2E09D0A5
:1000A000CA50FC0B0C10E88402C0CBFFCA6E2DEFC7
:1000B00002F0FDD703320232033202321200008C0A
:1000C00000AC009CD96E0B50D89020E00B2E03D0D2
:1000D00000BC05D800AC05D819E2DE6EF4D7008A62
:1000E00000AA009A00B603D0008640D827E2080E86
:1000F000056E50D80436052EFCD700AA2ED858D845
:1001000051D800BA1BD821D80450D8902DEF02F056
:10011000008A00AA009A00B405D0FE0B016E00848C
:10012000D8900AD000B805D0086E00881FD806E223
:10013000085023D803E200AA2DEF02F00ED838D8D9
:1001400000940098009601D8F7D721C0EAFF1F3C21
:10015000E96EE9881D50EC1208D021C0EAFF1FC0EB
:10016000E9FF1D1CEE16E988EC161200EEDF20D820
:10017000F4DF18D8015000B60109046E080E056EB0
:100180000436D8B0E2DFD8A0E8DF12D80BD8052EAD
:10019000F7D7DBDF0DD821C0EAFF1FC0E9FF1D50F4
:1001A000EF14FF0F22C0EAFF20C0E9FF1E1CDAD7C0
:1001B00022C0EAFF203CE96EE9881E50CCD7000936
:1001C00015E00A6E02C0E9FF03C0EAFF026A036A93
:1001D0000ABE07D0EE50026E0AA208D0EF50036E9E
:1001E00005D06EEC01F0EF14D8A4022A2DEF02F036
:1001F000080E01B4010E056E046A21C0EAFF1FC09B
:10020000E9FF1D1CEF16E988E92AEC16070EB1EC90
:1002100001F01D50EF12060EB1EC01F01D501FC091
:10022000E9FFEF14FF0F01A4043201B40436320ECB
:10023000B1EC01F0052EE5D70450D8802DEF02F087
:10024000046E080E01B4010E056E21C0EAFF1FC046
:10025000E9FF1D1CEF16E988E92AEC16060EB1EC41
:1002600001F01D500432D8B0EF12370EB1EC01F09E
:100270001D50EF12090EB1EC01F0052EE8D7D88021
:100280002DEF02F001A227D003D0016E01A023D0F0
:1002900021C0EAFF1F50120FE96E1D50EF121FC060
:1002A000E9FF1D1CEF16E988E92AEC16010E036E22
:1002B000E00EB2EC01F01D50EF12460EB1EC01F071
:1002C0001FC0E9FF1D50EF14D89006E1010E036E28
:1002D0009A0EB2EC01F0D8802DEF02F0010E0AB0B8
:1002E000E8440AB2E8440AB2E8440AB4E838120022
:1002F000E834E834FC0B0109C212C009C216C05030
:10030000F80B0309C06E000E036E320EB2EC01F062
:10031000C282C2B2FED7036AC4502DEF02F0A66AB1
:10032000A680A850A92A2DEF02F0E86AA86EA66A56
:10033000A684550EA76EAA0EA76EA682A6B2FED7F9
:10034000A694A92A2DEF02F0056A046EE86A040655
:10035000055AD8A02DEF02F0030E036EE70E02D867
:10036000F5D7036AFD0F026E01D00206040000D02B
:10037000E86A035AFAE21200096E0A0E046E056A70
:10038000F7EC01F00906FCE206501200D8900236A4
:100390000336FF0FFBE202502DEF02F0D89003323C
:1003A0000232FF0FFBE202502DEF02F0046E060E48
:1003B00002D0046E050E0A6E0550035C02E1045083
:1003C000025C040ED8B0010ED8B4020E0A14D8A4F0
:1003D000FF0E2DEF02F0E866FF0E0214D8A4FF0E08
:1003E0002DEF02F00210D8A4FF0E2DEF02F0076AE5
:1003F000066A100E086E0334063607360450065E91
:100400000550075A05E20450062605500722D890E9
:1004100002360336082EEFD702502DEF02F00450BB
:100420000802F3CF06F0F4CF07F005500902F3CF2E
:1004300002F0F4CF03F00802F3500726F450022232
:10044000E86A032204500902F3500726F4500222FE
:10045000E86A032206502DEF02F0000104001200AA
:100460001C6A34EF02F010002C92FFEF02F004003F
:100470002CB28AEF02F002C092F003C093F004C0E5
:1004800096F005C097F006C09AF007C09BF008C030
:100490009EF009C09FF00AC0A2F00BC0A3F00CC0F0
:1004A000A4F00DC0A5F00EC0A6F00FC0A7F010C0BC
:1004B000A8F011C0A9F012C0AAF013C0ABF000C0A0
:1004C000ACF001C0ADF01DC0AEF01EC0AFF01FC05B
:1004D000B0F020C0B1F0F8CFD0F0F7CFD3F0F6CF26
:1004E000D2F021C0B2F022C0B3F0F3CFD4F0F4CFF9
:1004F000D5F014C0B4F015C0B5F016C0B8F017C0F0
:10050000B9F018C0BCF019C0BDF01AC0C0F01BC0D3
:10051000C1F02C821CB494EF02F029C0FBFF28C06C
:10052000FAFF2750E06AF96E26C0FBFF25C0FAFFEC
:100530002450E06AF96E04002CA2EEEF02F092C0A3
:1005400002F093C003F096C004F097C005F09AC083
:1005500006F09BC007F09EC008F09FC009F0A2C043
:100560000AF0A3C00BF0A4C00CF0A5C00DF0A6C00B
:100570000EF0A7C00FF0A8C010F0A9C011F0AAC0DB
:1005800012F0ABC013F0ACC000F0ADC001F0AEC0D3
:100590001DF0AFC01EF0B0C01FF0B1C020F0D0C041
:1005A000F8FFD3C0F7FFD2C0F6FFB2C021F0B3C04E
:1005B00022F0D4C0F3FFD5C0F4FFB4C014F0B5C02E
:1005C00015F0B8C016F0B9C017F0BCC018F0BDC027
:1005D00019F0C0C01AF0C1C01BF02C921CB4F8EF87
:1005E00002F029C0FBFF28C0FAFF2750E06AF96E2D
:1005F00026C0FBFF25C0FAFF2450E06AF96E210EE9
:10060000376E470E426E2A80700ED36E9B8C9268B6
:100610000F0EC16E010E936E946A400E956E070E1A
:10062000966EF26AF18CCA94816A826A836A846ADD
:10063000A00E416E390E3D6E380E3E6ED00E406EED
:10064000D10E3F6E2B8882869496818A939A1CECF9
:100650001BF018EC17F055EC1CF02A982A9A2B9CEA
:100660002A9C2A9E8DEF04F00F0EC16E2A922A9AC0
:100670002A882A942A96386A2D6A2E6A4B6A818AB9
:10068000939AFA0E61DE18EC17F058EC17F082EC32
:100690000BF004002BAE5FEF03F004002BB05DEF16
:1006A00003F058EC17F0DAEC0DF0838A959A140EEB
:1006B0004BDE91EC1BF03DEC1CF061EF03F06AECBB
:1006C0000CF02C90120082869496818A939A0E0EDA
:1006D000C16EFA0E39DE18EC17F058EC17F04A6AC2
:1006E0006DEC20F030EC0CF0040080A48BEF03F0F4
:1006F0000400CAA487EF03F042C00AF0A10E046E02
:10070000070E056E010E0EEC00F089EF03F01CECF5
:100710001BF08FEF03F0BD6ACA9482949494838A8D
:10072000959A030E056EE80E10DE58EC17F00400E3
:100730002BAC9FEF03F0DFEC0CF058EC17F082ECE1
:100740000BF058EC17F0506A140E386E2D6A2E6AB2
:100750002B8A2B942B90466A446A2A8A2A9814EC96
:100760001AF059EC0AF02B9CE8EC22F0E8EC20F0AF
:100770004BC04CF04DC04EF0BFEC03F012001AEF2E
:1007800004F0FBCF8FF0FACF8DF0E9CF80F0EACF05
:1007900081F0E1CF84F0E2CF85F0D9CF88F0DACFD5
:1007A00089F01C841C90E06A9DA0E4EF03F09EA0F9
:1007B000E4EF03F01C800400C80E246E070E256EC3
:1007C000000E266E40EF04F0E06A9DA0FDEF03F0FE
:1007D0009EA0FDEF03F01C800400E80E246E070EBF
:1007E000256E000E266E43D6F80E246E070E256E7B
:1007F000000E266E1FEF04F09E90E06A1CB0D2EF50
:1008000003F0100E246E080E256E000E266E93D691
:100810001C9480C0E9FF81C0EAFF84C0E1FF85C06D
:10082000E2FF88C0D9FF89C0DAFF8DC0FAFF8FC010
:10083000FBFF1100F28EF28C300ECD6E12002BEC0D
:1008400007F0ECEC06F089EC21F0BCEC07F00400BA
:1008500038500108D8B42FEF04F07EEC07F01CB438
:1008600039EF04F029C0FBFF28C0FAFF2750E06AE7
:10087000F96E26C0FBFF25C0FAFF2450E06AF96E2E
:10088000CD90B10ECE26D8B0CF2A3C0ECF26CD804B
:100890001CB452EF04F029C0FBFF28C0FAFF275018
:1008A000E06AF96E26C0FBFF25C0FAFF2450E06A1B
:1008B000F96EB10ECE6E3C0ECF6ECD801200CD9093
:1008C0001200030E476E486A8EEC17F0DC0E2F6E96
:1008D000040E306E53EC18F0010E516E020E526E83
:1008E000536A51C055F0EEEC17F081849394400E9A
:1008F000556EB1EC19F0556AB1EC19F052C055F0D3
:10090000EEEC17F0040053500008D8B48CEF04F05C
:1009100053C055F0EEEC17F01200040080BA9AEFC5
:1009200004F004002AB896EF04F09EDEA4EF04F071
:10093000A4EF04F004002ABA9FEF04F0C4DE9F8005
:100940009D80B7DFC8EF06F004002BBEB4EF04F0C3
:1009500004002CA0B0EF04F0C5EF04F0B2EF04F0F7
:10096000B6EF04F0B6EF04F0DBEF04F08296949655
:10097000070E056ED00EA5EC01F02B9C0400CAA456
:10098000C4EF04F054EC1BF02C80CA94816A826A94
:10099000936894689568070E966E100EF26ECA946E
:1009A00003000000F26A010E936E946A400E956E89
:1009B000070E966EB2D704002AB4E3EF04F02CEFD2
:1009C00005F0E5EF04F0E5EF04F09468958095827A
:1009D000958495869588958C958E040080AAF3EF72
:1009E00004F028EF05F00300040080AAFAEF04F0F9
:1009F00028EF05F004002BB01AEF05F0030000000B
:100A00000300040080AA07EF05F028EF05F00300BB
:100A100000000300040080AA10EF05F028EF05F0A5
:100A2000838695961E0EA4EC01F083969596958686
:100A300042EF05F0D3EC17F082829492828094907A
:100A400003008292949282909490CAEC17F0C5D7DA
:100A5000946A400E956E61D7040080AA31EF05F0CC
:100A6000F7D704002BB037EF05F018EC0EF058EC78
:100A700017F05DEC05F004002BB041EF05F0ECEC55
:100A80001BF0E6D7E4EC1BF004002AB249EF05F0B6
:100A9000A4D7BBEC05F00FEC06F0030E056EE80ED4
:100AA000A5EC01F0E4EC1BF004002AA25CEF05F0D9
:100AB00088EF05F05DEF05F090D72A842B9C0400A9
:100AC0002BB079EF05F08280949082829492828A92
:100AD000949A140EA4EC01F0829A949AF1EC0BF023
:100AE000FA0EA4EC01F082909490829294927BEFA3
:100AF00005F0A8EC0CF00400CAA481EF05F054EC5A
:100B00001BF0CA9482969496CA9494849486120098
:100B1000F3EC1BF004002BAC90EF05F0D2EF05F0E6
:100B20004A6A0400060E4A5CD8B0A6EF05F004003D
:100B300080AA9CEF05F08CD7BBEC05F0080E056E83
:100B4000CA0EA5EC01F04A2AD8A0EBD70FEC06F0AC
:100B50002B8C4A6A0400040E4A5CD8B0BAEF05F048
:100B6000040080AAB5EF05F073D7E8EC05F04A2A37
:100B7000D8A0F0D732D7828A949A838695968282BB
:100B8000949282809490320EA4EC01F0829A949A0E
:100B900083969596C80EA4EC01F08292949282906E
:100BA000949012002A864A6A04000A0E4A5CD8B061
:100BB000E4EF05F0040080AADFEF05F049D7E8EC88
:100BC00005F04A2AD8A0F0D70FEC06F013EF06F094
:100BD0008292949282809490828A949A8386959647
:100BE000FA0EA4EC01F08290949082829492FA0E14
:100BF000A4EC01F0829A949A8396959682929492AC
:100C000082809490FA0EA4EC01F0829094908282FB
:100C10009492FA0EA4EC01F0829294921200ECEC01
:100C20001BF02A9212003A6A0400040E3A5CD8B013
:100C30006CEF06F04A6A0400040E4A5CD8B042EF3A
:100C400006F0040080AA26EF06F002D78280949076
:100C500082829492010E056EF40EA5EC01F0829052
:100C6000949082929492010E056EF40EA5EC01F020
:100C7000E4EC1BF004002AA23FEF06F049D74A2A11
:100C8000D8A0D9D7040080AA47EF06F0E1D6828029
:100C9000949082829492010E056EF40EA5EC01F000
:100CA0008290949082929492FA0EA4EC01F0828A3F
:100CB000949A83869596FA0EA4EC01F08396959605
:100CC000829A949AE4EC1BF004002AA269EF06F0E1
:100CD0001FD73A2AD8A0A8D73A6A0400030E3A5C74
:100CE000D8B0C7EF06F04A6A0400050E4A5CD8B0D7
:100CF0009BEF06F0040080AA7FEF06F0A9D6828061
:100D0000949082829492010E056EF40EA5EC01F08F
:100D10008290949082929492050E056EDC0EA5EC62
:100D200001F0E4EC1BF004002AA298EF06F0F0D6E4
:100D30004A2AD8A0D9D7040080AAA0EF06F088D606
:100D40008280949082829492010E056EF40EA5EC3E
:100D500001F08290949082929492040E056EE20EBD
:100D6000A5EC01F0828A949A83869596FA0EA4ECFB
:100D700001F083969596829A949AE4EC1BF0040015
:100D80002AA2C4EF06F0C4D63A2AD8A0A6D725D600
:100D9000040080BAD1EF06F09D905FEC04F08DEF77
:100DA00004F0E86A80A4E868146EE86A84A2E8683F
:100DB000166E14C002F01650EBEC01F0166E176EB2
:100DC000040016501710D8B4E8EF06F0E4EF0AF06C
:100DD000FA0EA4EC01F0DCD7040080B8F4EF06F0C2
:100DE00036EC07F02AEF07F0040080B4FCEF06F0C1
:100DF00041EC07F02AEF07F0E86A80A2E868146E79
:100E0000E86A2BBAE868166E14C002F01650EBECD4
:100E100001F0166E176E040016501710D8B413EFB9
:100E200007F058EC07F0E86A80A6E868146EE86AF4
:100E30002BBAE868166E14C002F01650EBEC01F005
:100E4000166E176E040016501710D8B42AEF07F06C
:100E500066EC07F01200D890443680B4448080A439
:100E6000449044BE2B8E44AE2B9E12000400505082
:100E70000008D8B440EF07F059EC0AF0506A2B8A0A
:100E80001200E86A80B2E868146EE86A80B6E86822
:100E9000166E14C002F01650EBEC01F0166E176ED1
:100EA000040016501710D8B457EF07F02B8A120021
:100EB0002B842B9A0400020E505CD8B064EF07F02C
:100EC000010E506E65EF07F0500612002B842B9A2E
:100ED0000400050E505CD8A072EF07F0060E506EAD
:100EE0007DEF07F0040050500008D8A47CEF07F015
:100EF000020E506E7DEF07F0502A120004002BA462
:100F0000BBEF07F02B94040050500608D8A48BEFD9
:100F100007F0EEEC09F0040050500508D8A493EF58
:100F200007F083EC09F0040050500408D8A49BEFAC
:100F300007F018EC09F0040050500308D8A4A3EF00
:100F400007F0ABEC08F0040050500208D8A4ABEF57
:100F500007F040EC08F0040050500108D8A4B3EFAB
:100F600007F0DAEC07F0040050500008D8A4BBEFFB
:100F700007F059EC0AF0120004002BB8D9EF07F083
:100F8000580E026E020E036E2EC005F02D50D9ECE5
:100F900001F0D8A4D6EF07F02D6A2E6A9D9010ECD0
:100FA0001AF09F809D802B84D9EF07F02D2A000E28
:100FB0002E2212004A6A0400060E4A5CD8B03DEFA9
:100FC00008F0060E476E4A28486E8EEC17F04A501D
:100FD0000008D8A4E868FF0A146E4A500208D8A492
:100FE000E868FF0A166E14C002F01650F2EC01F029
:100FF000166E176E4A500308D8A4E868FF0A186EE8
:1010000016501710026E1850F2EC01F0186E196E9F
:101010004A500408D8A4E868FF0A1A6E185019103C
:10102000026E1A50F2EC01F01A6E1B6E04001A5098
:101030001B10D8B422EF08F0180E316E020E326E7B
:10104000C6EC0AF004004A500108D8A42EEF08F0BC
:10105000380E316E020E326EC6EC0AF004004A50B1
:101060000508D8A43AEF08F0580E316E020E326E21
:10107000C6EC0AF04A2AD8A09ED789EC17F01200D5
:101080004A6A0400060E4A5CD8B0A8EF08F0060EC3
:10109000476E4A28486E8EEC17F04A500008D8A4D4
:1010A000E868FF0A146E4A500208D8A4E868FF0AEC
:1010B000166E14C002F01650F2EC01F0166E176EA8
:1010C0004A500508D8A4E868FF0A186E1650171091
:1010D000026E1850F2EC01F0186E196E04001850F0
:1010E0001910D8B47AEF08F0F80E316E010E326E96
:1010F000C6EC0AF004004A500108D8A486EF08F0B4
:10110000780E316E020E326EC6EC0AF04A500308B9
:10111000D8A4E868FF0A146E4A500408D8A4E86806
:10112000FF0A166E14C002F01650F2EC01F0166EB3
:10113000176E040016501710D8B4A5EF08F0980EDB
:10114000316E020E326EC6EC0AF04A2AD8A099D748
:1011500089EC17F012004A6A0400060E4A5CD8B007
:1011600015EF09F0060E476E4A28486E8EEC17F010
:101170004A500008D8A4E868FF0A146E4A500208D2
:10118000D8A4E868FF0A166E14C002F01650F2ECFC
:1011900001F0166E176E4A500508D8A4E868FF0AD9
:1011A000186E16501710026E1850F2EC01F0186EFF
:1011B000196E040018501910D8B4E5EF08F0F80EB5
:1011C000316E010E326EC6EC0AF04A500108D8A406
:1011D000E868FF0A146E4A500308D8A4E868FF0ABA
:1011E000166E14C002F01650F2EC01F0166E176E77
:1011F0004A500408D8A4E868FF0A186E1650171061
:10120000026E1850F2EC01F0186E196E04001850BE
:101210001910D8B412EF09F0780E316E020E326E4A
:10122000C6EC0AF04A2AD8A097D789EC17F012002A
:101230004A6A0400060E4A5CD8B080EF09F0060E38
:10124000476E4A28486E8EEC17F04A500008D8A422
:10125000E868FF0A146E4A500108D8A4E868FF0A3B
:10126000166E14C002F01650F2EC01F0166E176EF6
:10127000040016501710D8B444EF09F0B80E316EC0
:10128000020E326EC6EC0AF004004A500208D8A4DE
:1012900050EF09F0F80E316E010E326EC6EC0AF016
:1012A0004A500308D8A4E868FF0A146E4A5004089C
:1012B000D8A4E868FF0A166E14C002F01650F2ECCB
:1012C00001F0166E176E4A500508D8A4E868FF0AA8
:1012D000186E16501710026E1850F2EC01F0186ECE
:1012E000196E040018501910D8B47DEF09F0780E6B
:1012F000316E020E326EC6EC0AF04A2AD8A099D797
:1013000089EC17F012004A6A0400060E4A5CD8B055
:10131000EBEF09F0060E476E4A28486E8EEC17F088
:101320004A500008D8A4E868FF0A146E4A50020820
:10133000D8A4E868FF0A166E14C002F01650F2EC4A
:1013400001F0166E176E4A500508D8A4E868FF0A27
:10135000186E16501710026E1850F2EC01F0186E4D
:10136000196E040018501910D8B4BDEF09F0F80E2A
:10137000316E010E326EC6EC0AF004004A500108CC
:10138000D8A4C9EF09F0980E316E020E326EC6EC89
:101390000AF04A500308D8A4E868FF0A146E4A50BD
:1013A0000408D8A4E868FF0A166E14C002F01650AC
:1013B000F2EC01F0166E176E040016501710D8B438
:1013C000E8EF09F0780E316E020E326EC6EC0AF0CC
:1013D0004A2AD8A099D789EC17F012004A6A04006B
:1013E000060E4A5CD8B056EF0AF0060E476E4A2841
:1013F000486E8EEC17F04A500008D8A4E868FF0A3F
:10140000146E4A500208D8A4E868FF0A166E14C089
:1014100002F01650F2EC01F0166E176E4A500508F5
:10142000D8A4E868FF0A186E16501710026E1850FC
:10143000F2EC01F0186E196E040018501910D8B4AF
:1014400028EF0AF0F80E316E010E326EC6EC0AF08B
:1014500004004A500108D8A434EF0AF0980E316E07
:10146000020E326EC6EC0AF04A500308D8A4E868AF
:10147000FF0A146E4A500408D8A4E868FF0A166EE2
:1014800014C002F01650F2EC01F0166E176E040054
:1014900016501710D8B453EF0AF0B80E316E020E82
:1014A000326EC6EC0AF04A2AD8A099D789EC17F018
:1014B00012004A6A0400060E4A5CD8B0C3EF0AF074
:1014C000060E476E4A28486E8EEC17F04A50000808
:1014D000D8A4E868FF0A146E4A500508D8A4E86842
:1014E000FF0A166E14C002F01650F2EC01F0166EF0
:1014F000176E040016501710D8B485EF0AF0F80ED6
:10150000316E010E326EC6EC0AF04A500108D8A4C2
:10151000E868FF0A146E4A500208D8A4E868FF0A77
:10152000166E14C002F01650F2EC01F0166E176E33
:101530004A500308D8A4E868FF0A186E165017101E
:10154000026E1850F2EC01F0186E196E4A50040841
:10155000D8A4E868FF0A1A6E18501910026E1A50C3
:10156000F2EC01F01A6E1B6E04001A501B10D8B476
:10157000C0EF0AF0B80E316E020E326EC6EC0AF001
:101580004A2AD8A097D789EC17F012003A6A0400CB
:10159000050E3A5CD8B0E3EF0AF03AC008F0096AE9
:1015A000060E046E056A0FEC02F0146E07C015F00B
:1015B000315014242F6E32501520306E53EC18F039
:1015C0003A2AD8A0E4D71200E86A84A2E868146E28
:1015D000E86A84A0E868166E14C002F01650EBECBE
:1015E00001F0166E176E50500008D8A4E868186E07
:1015F00016501710026E1850EBEC01F0186E196EB1
:10160000040018501910D8B432EF0BF0010E056E1B
:10161000F40EA5EC01F0E86A84A2E868146EE86AAA
:1016200084A0E868166E14C002F01650EBEC01F0CE
:10163000166E176E50500008D8A4E868186E165041
:101640001710026E1850EBEC01F0186E196E0400C2
:1016500018501910D8B432EF0BF09D905FEC04F0E5
:1016600035EF23F0E86A84A2E868146EE86A84B073
:10167000E868166E14C002F01650EBEC01F0166E1E
:10168000176E50500008D8A4E868FF0A186E16506C
:101690001710026E1850EBEC01F0186E196E040072
:1016A00018501910D8B480EF0BF0FA0EA4EC01F02A
:1016B000E86A84A2E868146EE86A84B0E868166E86
:1016C00014C002F01650EBEC01F0166E176E50507D
:1016D0000008D8A4E868FF0A186E16501710026EAA
:1016E0001850EBEC01F0186E196E04001850191028
:1016F000D8B480EF0BF09D905FEC04F071EF0FF029
:101700008DEF04F0476A486A8EEC17F04A6A58EC8D
:1017100017F04D6A0400060E4D5CD8B0EDEF0BF0EB
:101720004B6A0400030E4B5CD8B0EAEF0BF0436A3F
:101730000400060E435CD8B0E5EF0BF04AC047F05A
:1017400043502AB0010F486E8EEC17F03A6A04003D
:10175000080E3A5CD8B0E2EF0BF03AC008F0096A24
:10176000060E046E056A0FEC02F0146E07C015F049
:101770006C0E14260B0E152243C008F0096A300EB9
:10178000046E056A0FEC02F0166E07C017F01450D5
:101790001626155017224BC008F0096A200E046E59
:1017A000010E056E0FEC02F0186E07C019F016500E
:1017B00018242F6E17501920306E53EC18F03A2A67
:1017C000D8A0C5D7432AD8A0B3D7020E4A264B2AA1
:1017D000D8A0A7D74D2AD8A09DD74B6A4D6A4A6A90
:1017E0001200436A0400060E435CD8B02FEF0CF0E1
:1017F000120E476E43502AB0010F486E8EEC17F060
:101800003A6A0400080E3A5CD8B02CEF0CF03AC0EB
:1018100008F0096A060E046E056A0FEC02F0146EF9
:1018200007C015F0180E1426050E152243C008F047
:10183000096A300E046E056A0FEC02F0166E07C0DE
:1018400017F0145016242F6E15501720306E53ECDD
:1018500018F03A2AD8A0D5D7432AD8A0C3D7120067
:10186000436A0400060E435CD8B069EF0CF0476A87
:1018700043502AB0010F486E8EEC17F03A6A04000C
:101880000E0E3A5CD8B066EF0CF03AC008F0096A68
:10189000060E046E056A0FEC02F0146E07C015F018
:1018A00043C008F0096A540E046E056A0FEC02F09A
:1018B000166E07C017F0145016242F6E15501720FF
:1018C000306E53EC18F03A2AD8A0D9D7432AD8A0C2
:1018D000C8D71200436A0400060E435CD8B0A7EFD5
:1018E0000CF0476A43502AB0010F486E8EEC17F097
:1018F0003A6A04000E0E3A5CD8B0A4EF0CF03AC07D
:1019000008F0096A060E046E056A0FEC02F0146E08
:1019100007C015F0740E1426090E152243C008F0F6
:10192000096A540E046E056A0FEC02F0166E07C0C9
:1019300017F0145016242F6E15501720306E53ECEC
:1019400018F03A2AD8A0D5D7432AD8A0C4D7120075
:101950003A6A0400360E3A5CD8B0DEEF0CF0436A07
:101960000400060E435CD8B0DBEF0CF00F0E3A24F7
:10197000476E43502AB0010F486E8EEC17F043C0FB
:1019800008F0096A360E046E056A0FEC02F0316E3B
:1019900007C032F03A503124146EE86A3220156ED6
:1019A000380E14242F6E060E1520306E96EC19F0AA
:1019B000432AD8A0D5D73A2AD8A0CBD7120058ECC2
:1019C00017F03A6A0400360E3A5CD8B017EF0DF003
:1019D000436A0400060E435CD8B014EF0DF00F0EFE
:1019E0003A24476E43502AB0010F486E8EEC17F030
:1019F00043C008F0096A360E046E056A0FEC02F067
:101A0000316E07C032F03A503124146EE86A322049
:101A1000156E380E14242F6E060E1520306E96ECBF
:101A200019F0432AD8A0D5D73A2AD8A0CBD7010E8F
:101A3000056EF40EA5EC01F04A6A0400040E4A5C3F
:101A4000D8B034EF0DF0C1EC17F0010E056EF40EB6
:101A5000A5EC01F0D3EC17F0010E056EF40EA5EC29
:101A600001F04A2AD8A0E9D758EC17F0120E476EB9
:101A7000010E486E8EEC17F0020E4B6E280E4B24B2
:101A8000146E156A153614C0A9FF8FEC01F0496E6B
:101A9000BCEC1FF00400010E4B5CD8A056EF0DF01B
:101AA000740E2F6E030E306E53EC18F04B06D8B048
:101AB000E5D7120E476E020E486E8EEC17F0040E3C
:101AC0004B6E0400070E4B5CD8B082EF0DF0280E71
:101AD0004B24146E156A153614C0A9FF8FEC01F063
:101AE000496EBCEC1FF00400060E4B5CD8B07FEFD3
:101AF0000DF02C0E2F6E030E306E53EC18F04B2AA7
:101B0000D8A0DFD704002AA6D2EF0DF0120E476E40
:101B1000040E486E8EEC17F0020E4B6E300E4B2406
:101B2000146E156A153614C0A9FF8FEC01F0496ECA
:101B3000BCEC1FF00400010E4B5CD8A0A6EF0DF02A
:101B4000740E2F6E030E306E53EC18F04B06D8B0A7
:101B5000E5D7120E476E050E486E8EEC17F0040E98
:101B60004B6E0400070E4B5CD8B0D2EF0DF0300E78
:101B70004B24146E156A153614C0A9FF8FEC01F0C2
:101B8000496EBCEC1FF00400060E4B5CD8B0CFEFE2
:101B90000DF02C0E2F6E030E306E53EC18F04B2A06
:101BA000D8A0DFD73A0E056E980EA5EC01F058ECE0
:101BB00017F01200436A0400060E435CD8B017EF1A
:101BC0000EF0476A43502AB0010F486E8EEC17F0B2
:101BD0003A6A04000E0E3A5CD8B014EF0EF03AC028
:101BE00008F0096A060E046E056A0FEC02F0146E26
:101BF00007C015F07C0E1426070E152243C008F00E
:101C0000096A540E046E056A0FEC02F0166E07C0E6
:101C100017F0145016242F6E15501720306E53EC09
:101C200018F03A2AD8A0D5D7432AD8A0C4D7120092
:101C30003A6A4A6A0400190E4A5CD8B051EF0EF0B5
:101C4000040080AA26EF0EF08DEF04F0050E3A2472
:101C5000476E030E2AB0010F486E8EEC17F0818498
:101C600093945568B1EC19F0B1EC19F0B1EC19F09E
:101C7000050E3A24476E040E2AB0010F486E8EEC12
:101C800017F0818493945568B1EC19F0B1EC19F018
:101C9000B1EC19F089EC17F0030E3A264A2AD8A0C5
:101CA000C9D7190E4B6E2A0E476E010E2AB0010FCE
:101CB000486E8EEC17F0D80E2F6E020E306E53EC7D
:101CC00018F0D80E2F6E020E306E53EC18F02A0E5C
:101CD000476E010E2AB0010F486E8EEC17F0440ECD
:101CE0002F6E030E306E53EC18F0560E2F6E030E4F
:101CF000306E53EC18F0030E056EE80EA5EC01F003
:101D00004B06200E536E4BC002F0036A000EBCEC73
:101D100001F0526E4BC002F0036A010EBCEC01F000
:101D2000516E040051500008D8A499EF0EF0200E17
:101D3000516E2A0E476E010E2AB0010F486E8EECCE
:101D400017F0FBEC19F04D0E476E030E2AB0010F91
:101D5000486E8EEC17F081849394010E556EB1ECB1
:101D600019F0B1EC19F05568B1EC19F04D0E476E51
:101D7000040E2AB0010F486E8EEC17F08184939404
:101D8000800E556EB1EC19F0B1EC19F05568B1EC5C
:101D900019F089EC17F0490E3A6E4A6A0400180EE1
:101DA0004A5CD8B02DEF0FF0040080AADAEF0EF0F5
:101DB0008DEF04F0030E056EE80EA5EC01F04B0666
:101DC000200E536E4BC002F0036A000EBCEC01F013
:101DD000526E4BC002F0036A010EBCEC01F0516E72
:101DE000040051500008D8A4F8EF0EF0200E516EF8
:101DF0002A0E476E010E2AB0010F486E8EEC17F0C6
:101E0000FBEC19F03A28476E030E2AB0010F486E1A
:101E10008EEC17F081849394010E556EB1EC19F09D
:101E2000B1EC19F0B1EC19F03A28476E040E2AB063
:101E3000010F486E8EEC17F081849394800E556EDE
:101E4000B1EC19F0B1EC19F0B1EC19F089EC17F024
:101E5000030E3A5E4A2AD8A0A1D7030E056EE80EFB
:101E6000A5EC01F01200436A0400060E435CD8B0F2
:101E700070EF0FF0476A43502AB0010F486E8EECA6
:101E800017F03A6A04000E0E3A5CD8B06DEF0FF00E
:101E90003AC008F0096A060E046E056A0FEC02F0FB
:101EA000146E07C015F0680E14260F0E152243C0DD
:101EB00008F0096A540E046E056A0FEC02F0166E03
:101EC00007C017F0145016242F6E15501720306ECF
:101ED00053EC18F03A2AD8A0D5D7432AD8A0C4D7B3
:101EE000120082EC1BF058EC17F083869596640E76
:101EF000A4EC01F0839695968BEC1BF09EEC0FF012
:101F00000A0EA4EC01F0E86A84A2E868146EE86A9C
:101F100080BAE868166E14C002F01650EBEC01F0BF
:101F2000166E176E040016501710D8B499EF0FF004
:101F3000E7D7640EA4EC01F0A1EF11F058EC17F014
:101F4000150E476E486A8EEC17F0F20E2F6E030ED8
:101F5000306E53EC18F0F80E2F6E030E306E53EC0B
:101F600018F0100E2F6E040E306E53EC18F0CE0EDB
:101F70002F6E030E306E53EC18F0F20E2F6E030E20
:101F8000306E53EC18F0EC0E2F6E030E306E53ECE7
:101F900018F00A0E2F6E040E306E53EC18F00B0E74
:101FA000476E010E486E8EEC17F0080E2F6E030E72
:101FB000306E53EC18F0A40E2F6E030E306E53ECFF
:101FC00018F0260E2F6E030E306E53EC18F03E0EF6
:101FD0002F6E030E306E53EC18F0560E2F6E030E5C
:101FE000306E53EC18F0D80E2F6E020E306E53EC9C
:101FF00018F066EC04F00E0E2F6E030E306E53ECEC
:1020000018F00C0E476E020E486E8EEC17F0E00EC4
:102010002F6E030E306E53EC18F08E0E2F6E040EE2
:10202000306E53EC18F0820E2F6E040E306E53ECAF
:1020300018F0880E2F6E040E306E53EC18F0D00E90
:102040002F6E040E306E53EC18F0CA0E2F6E040E75
:10205000306E53EC18F0D80E2F6E020E306E53EC2B
:1020600018F00C0E476E030E486E8EEC17F0AA0E99
:102070002F6E030E306E53EC18F0A00E2F6E040E70
:10208000306E53EC18F0B20E2F6E040E306E53EC1F
:1020900018F06A0E2F6E040E306E53EC18F09A0E84
:1020A0002F6E040E306E53EC18F00C0E476E040EBB
:1020B000486E8EEC17F0AA0E2F6E030E306E53ECA6
:1020C00018F0B20E2F6E040E306E53EC18F0AC0EFA
:1020D0002F6E040E306E53EC18F07C0E2F6E040E33
:1020E000306E53EC18F08E0E2F6E040E306E53ECE3
:1020F00018F0820E2F6E040E306E53EC18F00C0E9A
:10210000476E050E486E8EEC17F0B60E2F6E030E5E
:10211000306E53EC18F0280E2F6E040E306E53EC18
:1021200018F0CE0E2F6E030E306E53EC18F0100E1A
:102130002F6E040E306E53EC18F03D0E476E020EFB
:10214000486E8EEC17F004002BA2ABEF10F0E4EC1D
:1021500012F0ADEF10F0F7EC12F00400465000085A
:10216000D8A4E3EF10F0030E476E050E486E8EEC18
:1021700017F0D80E2F6E020E306E53EC18F0030ECF
:10218000476E020E486E8EEC17F08C0E2F6E030E0B
:10219000306E53EC18F0030E476E030E486E8EEC53
:1021A00017F0D80E2F6E020E306E53EC18F0030E9F
:1021B000476E040E486E8EEC17F0D80E2F6E020E8E
:1021C000306E53EC18F0040046500108D8A419EF03
:1021D00011F0030E476E020E486E8EEC17F0D80E0B
:1021E0002F6E020E306E53EC18F0030E476E030E86
:1021F000486E8EEC17F08C0E2F6E030E306E53EC83
:1022000018F0030E476E040E486E8EEC17F0D80ED1
:102210002F6E020E306E53EC18F0030E476E050E53
:10222000486E8EEC17F0D80E2F6E020E306E53EC07
:1022300018F0040046500208D8A44FEF11F0030E26
:10224000476E020E486E8EEC17F0D80E2F6E020EFF
:10225000306E53EC18F0030E476E030E486E8EEC92
:1022600017F0D80E2F6E020E306E53EC18F0030EDE
:10227000476E040E486E8EEC17F08C0E2F6E030E18
:10228000306E53EC18F0030E476E050E486E8EEC60
:1022900017F0D80E2F6E020E306E53EC18F00400BB
:1022A00046500308D8A485EF11F0030E476E020EC6
:1022B000486E8EEC17F0D80E2F6E020E306E53EC77
:1022C00018F0030E476E030E486E8EEC17F0D80E12
:1022D0002F6E020E306E53EC18F0030E476E040E94
:1022E000486E8EEC17F0D80E2F6E020E306E53EC47
:1022F00018F0030E476E050E486E8EEC17F08C0E2C
:102300002F6E030E306E53EC18F01200640EA4EC26
:1023100001F0E86A84A2E868146EE86A80BAE868A6
:10232000166E14C002F01650EBEC01F0166E176E2C
:10233000040016501710D8B49FEF11F0E7D7466A83
:10234000FCDEE86A80AAE868146EE86A80B4E8688F
:10235000166E14C002F01650F2EC01F0166E176EF5
:10236000040016501710D8B4B8EF11F00AEF13F0AC
:10237000040084B0C5EF11F0640EA4EC01F0040079
:1023800084B0C5EF11F0BCEF12F0040084B2D2EFBC
:1023900011F0640EA4EC01F0040084B2D2EF11F04D
:1023A000D3EF11F0CED7640EA4EC01F0E86A84A25A
:1023B000E868146EE86A80BAE868166E14C002F025
:1023C0001650EBEC01F0166E176E04001650171045
:1023D000D8B4ECEF11F0E7D7010E466EAEDEE86A36
:1023E00080AAE868146EE86A80B4E868166E14C0C3
:1023F00002F01650F2EC01F0166E176E0400165043
:102400001710D8B406EF12F00AEF13F0040084B0EE
:1024100013EF12F0640EA4EC01F0040084B013EF8B
:1024200012F0E2EF12F0040084B220EF12F0640E1A
:10243000A4EC01F0040084B220EF12F021EF12F0BE
:10244000CED7640EA4EC01F0E86A84A2E868146EAA
:10245000E86A80BAE868166E14C002F01650EBEC19
:1024600001F0166E176E040016501710D8B43AEF2C
:1024700012F0E7D7020E466E60DEE86A80AAE868CE
:10248000146EE86A80B4E868166E14C002F0165044
:10249000F2EC01F0166E176E040016501710D8B447
:1024A00054EF12F00AEF13F0040084B061EF12F061
:1024B000640EA4EC01F0040084B061EF12F0E0EFD0
:1024C00012F0040084B26EEF12F0640EA4EC01F07E
:1024D000040084B26EEF12F06FEF12F0CED7640EEC
:1024E000A4EC01F0E86A84A2E868146EE86A80BA95
:1024F000E868166E14C002F01650EBEC01F0166E90
:10250000176E040016501710D8B488EF12F0E7D7F2
:10251000030E466E12DEE86A80AAE868146EE86A66
:1025200080B4E868166E14C002F01650F2EC01F0A8
:10253000166E176E040016501710D8B4A2EF12F0E2
:102540000AEF13F0040084B0AFEF12F0640EA4ECB5
:1025500001F0040084B0AFEF12F00AEF13F00400B2
:1025600084B2BBEF12F0640EA4EC01F0040084B25C
:10257000BBEF12F0CBD6CFD704002BB2C3EF12F0D3
:102580002B82C4EF12F02B929DEC10F0640EA4ECA1
:1025900001F0E86A84A0E868146EE86A80BAE86826
:1025A000166E14C002F01650EBEC01F0166E176EAA
:1025B000040016501710D8B4DFEF12F0E7D7C1D6D9
:1025C0004DEF13F0DDEF1EF0F20E2F6E030E306EA6
:1025D00053EC18F0EC0E2F6E030E306E53EC18F027
:1025E000D80E2F6E020E306E53EC18F01200F20E61
:1025F0002F6E030E306E53EC18F0BC0E2F6E030ED0
:10260000306E53EC18F0BC0E2F6E030E306E53EC90
:1026100018F01200838A959A640EA4EC01F0E86A1F
:1026200080BAE868146EE86A84A2E868166E14C07E
:1026300002F01650EBEC01F0166E176E0400165007
:102640001710D8B425EF13F0E5D783869596640E5E
:10265000A4EC01F08396959658EC17F004002BB289
:1026600035EF13F054EC1BF0CA942B84140E386E23
:102670002D6A2E6A466A6DEC20F0E8EC20F0D2EC70
:1026800020F0E8EC22F010EC1AF07EEC07F09F80CE
:102690009D8059EC04F0C8EF06F058EC17F0466A3C
:1026A00070EC13F00A0EA4EC01F0E86A84A0E8686C
:1026B000146EE86A80BAE868166E14C002F016500C
:1026C000EBEC01F0166E176E040016501710D8B41C
:1026D0006BEF13F0E7D7640EA4EC01F059EF15F09F
:1026E00058EC17F0150E476E486A8EEC17F0AA0EDC
:1026F0002F6E030E306E53EC18F0F20E2F6E030E99
:10270000306E53EC18F0EC0E2F6E030E306E53EC5F
:1027100018F0BC0E2F6E030E306E53EC18F0CE0E78
:102720002F6E030E306E53EC18F0C20E2F6E030E98
:10273000306E53EC18F00C0E476E020E486E8EECA5
:1027400017F0040E2F6E040E306E53EC18F0760E58
:102750002F6E040E306E53EC18F07C0E2F6E040EAC
:10276000306E53EC18F0C40E2F6E040E306E53EC26
:1027700018F0760E2F6E040E306E53EC18F0CA0E61
:102780002F6E040E306E53EC18F0880E2F6E040E70
:10279000306E53EC18F0D80E2F6E020E306E53ECE4
:1027A00018F00C0E476E030E486E8EEC17F0A40E58
:1027B0002F6E030E306E53EC18F0A00E2F6E040E29
:1027C000306E53EC18F08E0E2F6E040E306E53ECFC
:1027D00018F0AC0E2F6E040E306E53EC18F09A0EFB
:1027E0002F6E040E306E53EC18F0760E2F6E040E22
:1027F000306E53EC18F0C40E2F6E040E306E53EC96
:1028000018F0D80E2F6E020E306E53EC18F00C0E2E
:10281000476E040E486E8EEC17F0100E2F6E040EED
:10282000306E53EC18F0760E2F6E040E306E53ECB3
:1028300018F0CA0E2F6E040E306E53EC18F0D00E46
:102840002F6E040E306E53EC18F0CA0E2F6E040E6D
:10285000306E53EC18F00C0E476E050E486E8EEC81
:1028600017F0B60E2F6E030E306E53EC18F0280ED4
:102870002F6E040E306E53EC18F0CE0E2F6E030E3A
:10288000306E53EC18F0100E2F6E040E306E53ECB9
:1028900018F03D0E476E020E486E8EEC17F00400E5
:1028A0002BB856EF14F090DE57EF14F0A0DE3D0E7B
:1028B000476E030E486E8EEC17F004002BA064EFF9
:1028C00014F082DE65EF14F092DE0400465000083A
:1028D000D8A49BEF14F0030E476E050E486E8EECE5
:1028E00017F0D80E2F6E020E306E53EC18F0030E58
:1028F000476E020E486E8EEC17F08C0E2F6E030E94
:10290000306E53EC18F0030E476E030E486E8EECDB
:1029100017F0D80E2F6E020E306E53EC18F0030E27
:10292000476E040E486E8EEC17F0D80E2F6E020E16
:10293000306E53EC18F0040046500108D8A4D1EFD3
:1029400014F0030E476E020E486E8EEC17F0D80E90
:102950002F6E020E306E53EC18F0030E476E030E0E
:10296000486E8EEC17F08C0E2F6E030E306E53EC0B
:1029700018F0030E476E040E486E8EEC17F0D80E5A
:102980002F6E020E306E53EC18F0030E476E050EDC
:10299000486E8EEC17F0D80E2F6E020E306E53EC90
:1029A00018F0040046500208D8A407EF15F0030EF3
:1029B000476E020E486E8EEC17F0D80E2F6E020E88
:1029C000306E53EC18F0030E476E030E486E8EEC1B
:1029D00017F0D80E2F6E020E306E53EC18F0030E67
:1029E000476E040E486E8EEC17F08C0E2F6E030EA1
:1029F000306E53EC18F0030E476E050E486E8EECE9
:102A000017F0D80E2F6E020E306E53EC18F0040043
:102A100046500308D8A43DEF15F0030E476E020E92
:102A2000486E8EEC17F0D80E2F6E020E306E53ECFF
:102A300018F0030E476E030E486E8EEC17F0D80E9A
:102A40002F6E020E306E53EC18F0030E476E040E1C
:102A5000486E8EEC17F0D80E2F6E020E306E53ECCF
:102A600018F0030E476E050E486E8EEC17F08C0EB4
:102A70002F6E030E306E53EC18F01200640EA4ECAF
:102A800001F0E86A84A2E868146EE86A80BAE8682F
:102A9000166E14C002F01650EBEC01F0166E176EB5
:102AA000040016501710D8B457EF15F0E7D7466A50
:102AB000F0DEE86A80AAE868146EE86A80B4E86824
:102AC000166E14C002F01650F2EC01F0166E176E7E
:102AD000040016501710D8B470EF15F00AEF13F079
:102AE000040084B07DEF15F0640EA4EC01F0040046
:102AF00084B07DEF15F074EF16F0040084B28AEF15
:102B000015F0640EA4EC01F0040084B28AEF15F015
:102B10008BEF15F0CED7640EA4EC01F0E86A84A226
:102B2000E868146EE86A80BAE868166E14C002F0AD
:102B30001650EBEC01F0166E176E040016501710CD
:102B4000D8B4A4EF15F0E7D7010E466EA2DEE86A0E
:102B500080AAE868146EE86A80B4E868166E14C04B
:102B600002F01650F2EC01F0166E176E04001650CB
:102B70001710D8B4BEEF15F00AEF13F0040084B0BC
:102B8000CBEF15F0640EA4EC01F0040084B0CBEFA1
:102B900015F098EF16F0040084B2D8EF15F0640E2B
:102BA000A4EC01F0040084B2D8EF15F0D9EF15F0D1
:102BB000CED7640EA4EC01F0E86A84A2E868146E33
:102BC000E86A80BAE868166E14C002F01650EBECA2
:102BD00001F0166E176E040016501710D8B4F2EFFD
:102BE00015F0E7D7020E466E54DEE86A80AAE86860
:102BF000146EE86A80B4E868166E14C002F01650CD
:102C0000F2EC01F0166E176E040016501710D8B4CF
:102C10000CEF16F00AEF13F0040084B019EF16F071
:102C2000640EA4EC01F0040084B019EF16F0BCEFC0
:102C300016F0040084B226EF16F0640EA4EC01F046
:102C4000040084B226EF16F027EF16F0CED7640EFC
:102C5000A4EC01F0E86A84A2E868146EE86A80BA1D
:102C6000E868166E14C002F01650EBEC01F0166E18
:102C7000176E040016501710D8B440EF16F0E7D7BF
:102C8000030E466E06DEE86A80AAE868146EE86AFB
:102C900080B4E868166E14C002F01650F2EC01F031
:102CA000166E176E040016501710D8B45AEF16F0AF
:102CB0000AEF13F0040084B067EF16F0640EA4EC82
:102CC00001F0040084B067EF16F0F7EF16F004008F
:102CD00084B273EF16F0640EA4EC01F0040084B229
:102CE00073EF16F0CBD6CFD704002BB87BEF16F0DE
:102CF0002B887CEF16F02B9849EC14F0640EA4ECB2
:102D000001F0E86A84A0E868146EE86A80BAE868AE
:102D1000166E14C002F01650EBEC01F0166E176E32
:102D2000040016501710D8B497EF16F0E7D7C1D6A5
:102D300004002BB09FEF16F02B80A0EF16F02B9025
:102D400049EC14F0640EA4EC01F0E86A84A0E86891
:102D5000146EE86A80BAE868166E14C002F0165065
:102D6000EBEC01F0166E176E040016501710D8B475
:102D7000BBEF16F0E7D7EBD6010E056EF40EA5EC0F
:102D800001F04A6A0400020E4A5CD8B0D7EF16F090
:102D9000828A949A140EA4EC01F0829A949A030EFB
:102DA000056EE80EA5EC01F04A2AD8A0EBD7010E7B
:102DB000056EF40EA5EC01F04A6A0400040E4A5CAC
:102DC000D8B0F6EF16F08282949282809490FA0E38
:102DD000A4EC01F08292949282909490030E056E7E
:102DE000E80EA5EC01F04A2AD8A0E7D7FED6640E7B
:102DF000A4EC01F0E86A84A0E868146EE86A80BA7E
:102E0000E868166E14C002F01650EBEC01F0166E76
:102E1000176E040016501710D8B410EF17F0E7D74C
:102E2000020E466E58EC17F09EEC0FF021EF12F0F8
:102E3000819893988188939881969396819493949E
:102E4000E20E556EB1EC19F0A20E556EB1EC19F010
:102E5000A00E556EB1EC19F0C80E556EB1EC19F01C
:102E6000A60E556EB1EC19F0240E556EB1EC19F0AA
:102E7000810E556EB1EC19F037C055F0B1EC19F078
:102E80002F0E556EB1EC19F0AF0E556EB1EC19F076
:102E900081849394120081949394810E556EB1ECC9
:102EA00019F037C055F0B1EC19F0818493941200F9
:102EB00081949394556A566A576A586A596A5A6A4D
:102EC000486A0400090E485CD8B086EF17F0819478
:102ED0009394B00E4824556EB1EC19F0100E556E57
:102EE000B1EC19F0556AB1EC19F081849394366A0B
:102EF0000400160E365CD8B083EF17F071EC18F0B2
:102F0000362AD8A0F5D7482AD8A0DBD78184939455
:102F10001200476A486A8EEC17F01200819493946D
:102F2000B00E4824556EB1EC19F0120E4724146E01
:102F3000156A1536060E1426000E15220F0E1414EF
:102F4000456E120E4724146E156A1536060E1426A9
:102F5000000E1522F00E1414396E39C002F0036A07
:102F6000040ED1EC01F0396E100E3924556EB1EC1F
:102F700019F0000E4524556EB1EC19F0818493943C
:102F8000120081949394A70E556EB1EC19F08184D0
:102F90009394120081949394A70E556EB1EC19F09E
:102FA00081849394120081949394A60E556EB1EC93
:102FB00019F081849394120081949394AF0E556E0E
:102FC000B1EC19F081849394120081949394AE0E25
:102FD000556EB1EC19F08184939412005550040D94
:102FE0000908D8A021EF18F0F86A1A0EF324F66E3B
:102FF000300EF420F76E000EF8220900F550026E34
:103000000900F550036E0800F550DFEC00F002C037
:103010002FF003C030F021EF18F0380300003E031A
:103020000000440300004A03000050030000560360
:1030300000005C03000062030000680300006E03F0
:103040000000040055502008D8A42BEF18F0D80E2B
:103050002F6E020E306E040055502108D8A435EFB3
:1030600018F0260E2F6E030E306E830E1F6E0F0E9D
:10307000216E020E1D6E830E206E0F0E226E010E4B
:103080001E6E41508AEC00F030508AEC00F02F5058
:103090008AEC00F0060E0B6EDA6A550E5FEC00F05B
:1030A00071EC18F01200830E1F6E0F0E216E020ECF
:1030B0001D6E830E206E0F0E226E010E1E6E41508D
:1030C0008AEC00F030508AEC00F02F508AEC00F0CF
:1030D000060E0B6EDA6A550E5FEC00F071EC18F01C
:1030E00012008196939655BE818C55AE819C81824B
:1030F000819255BC818C55AC819C8182819255BA5C
:10310000818C55AA819C8182819255B8818C55A869
:10311000819C8182819255B6818C55A6819C818249
:10312000819255B4818C55A4819C8182819255B243
:10313000818C55A2819C8182819255B0818C55A051
:10314000819C8182819256BE818C56AE819C818207
:10315000819256BC818C56AC819C8182819256BAF8
:10316000818C56AA819C8182819256B8818C56A806
:10317000819C8182819256B6818C56A6819C8182E7
:10318000819256B4818C56A4819C8182819256B2E0
:10319000818C56A2819C8182819256B0818C56A0EE
:1031A000819C8182819257BE818C57AE819C8182A5
:1031B000819257BC818C57AC819C8182819257BA95
:1031C000818C57AA819C8182819257B8818C57A8A3
:1031D000819C8182819257B6818C57A6819C818285
:1031E000819257B4818C57A4819C8182819257B27D
:1031F000818C57A2819C8182819257B0818C57A08B
:10320000819C8182819258BE818C58AE819C818242
:10321000819258BC818C58AC819C8182819258BA31
:10322000818C58AA819C8182819258B8818C58A83F
:10323000819C8182819258B6818C58A6819C818222
:10324000819258B4818C58A4819C8182819258B219
:10325000818C58A2819C8182819258B0818C58A027
:10326000819C8182819259BE818C59AE819C8182E0
:10327000819259BC818C59AC819C8182819259BACE
:10328000818C59AA819C8182819259B8818C59A8DC
:10329000819C8182819259B6818C59A6819C8182C0
:1032A000819259B4818C59A4819C8182819259B2B6
:1032B000818C59A2819C8182819259B0818C59A0C4
:1032C000819C818281925ABE818C5AAE819C81827E
:1032D00081925ABC818C5AAC819C818281925ABA6B
:1032E000818C5AAA819C818281925AB8818C5AA879
:1032F000819C818281925AB6818C5AA6819C81825E
:1033000081925AB4818C5AA4819C818281925AB252
:10331000818C5AA2819C818281925AB0818C5AA060
:10332000819C81828192818693961200830E1F6E0A
:103330000F0E216E020E1D6E830E206E0F0E226E7A
:10334000010E1E6E41508AEC00F030508AEC00F005
:103350002F508AEC00F06FEC00F0556EB1EC19F0D4
:1033600012008196939655BE818C55AE819C8182C8
:10337000819255BC818C55AC819C8182819255BAD9
:10338000818C55AA819C8182819255B8818C55A8E7
:10339000819C8182819255B6818C55A6819C8182C7
:1033A000819255B4818C55A4819C8182819255B2C1
:1033B000818C55A2819C8182819255B0818C55A0CF
:1033C000819C81828192818693961200436A0400D7
:1033D000030E435CD8B0FAEF19F04350510FE96E79
:1033E000000EEA6AEA22EFCF55F0EEEC17F0432A1E
:1033F000D8A0EDD71200436A0400020E435CD8B097
:103400000FEF1AF04350510FE96E000EEA6AEA22FC
:10341000EFCF55F0EEEC17F0432AD8A0EDD712000D
:1034200018EC17F058EC17F04A6A0400080E4A5CD2
:10343000D8B026EF1AF02A0E476E4AC048F08EEC3C
:1034400017F055688EDF4A2AD8A0EFD7020E436ED8
:103450000400070E435CD8B051EF1AF02B0E476EF4
:1034600043C048F08EEC17F04A6A0400080E4A5C2C
:10347000D8B04DEF1AF0010E556E73DF010E556E88
:1034800070DF010E556E6DDF010E556E6ADF010EA5
:10349000556E67DF4A2AD8A0E8D7020E4326D8A087
:1034A000D7D7300E476E486A8EEC17F0CC0E2F6ED1
:1034B0000E0E306E53EC18F0D20E2F6E0E0E306ED4
:1034C00053EC18F0D80E2F6E0E0E306E53EC18F031
:1034D000DE0E2F6E0E0E306E53EC18F0E40E2F6ED3
:1034E0000E0E306E53EC18F0300E476E020E486E22
:1034F0008EEC17F0EA0E2F6E0E0E306E53EC18F0B5
:10350000F00E2F6E0E0E306E53EC18F0F60E2F6E7E
:103510000E0E306E53EC18F0FC0E2F6E0E0E306E49
:1035200053EC18F0020E2F6E0F0E306E53EC18F0A5
:10353000300E476E040E486E8EEC17F0600E2F6E44
:10354000110E306E53EC18F0660E2F6E110E306EA9
:1035500053EC18F06C0E2F6E110E306E53EC18F009
:10356000720E2F6E110E306E53EC18F0780E2F6E17
:10357000110E306E53EC18F0300E476E060E486E8A
:103580008EEC17F0080E2F6E0F0E306E53EC18F005
:103590000E0E2F6E0F0E306E53EC18F0140E2F6EB1
:1035A0000F0E306E53EC18F01A0E2F6E0F0E306E99
:1035B00053EC18F0200E2F6E0F0E306E53EC18F0F7
:1035C000010E4A6E0400040E4A5CD8B003EF1BF0F3
:1035D000490E476E4AC048F08EEC17F0020E556E49
:1035E000C0DE050E556EBDDE020E556EBADE556AA2
:1035F000B8DEAA0E2F6E030E306E53EC18F0020EDA
:103600004A26D8A0DFD7490E476E070E486E8EECCB
:1036100017F04A6A0400040E4A5CD8B015EF1BF09C
:10362000556A9FDE4A2AD8A0F5D71C0E2F6E040ECD
:10363000306E53EC18F012000A6AA10E046E070EE9
:10364000056E010E0EEC00F0CA843A6A04003A508E
:10365000425CD8A053EF1BF03A503A02F3CF14F07B
:10366000F4CF15F03A505C08166E000ED8A0E804AE
:10367000176E14C002F015C003F016C004F017C096
:1036800005F0F7EC01F04A6E4AC00AF0A10E046E94
:10369000070E056E010E0EEC00F00F0EA4EC01F00B
:1036A0003A2AD8A0D3D7120042C03AF03A503A0290
:1036B000F3CF14F0F4CF15F03A505C08166E000EFC
:1036C000D8A0E804176E14C002F015C003F016C0AD
:1036D00004F017C005F0F7EC01F04A6E4AC00AF09A
:1036E000A10E046E070E056E010E0EEC00F00F0E1B
:1036F000A4EC01F03A06D8B0D9D7BD6ACA94829436
:10370000949412000400CAB489EF1BF02B928AEF44
:103710001BF02B8212000400CAB490EF1BF08CDF68
:103720001200200E3B6E470E4A6EB8EC1BF0210EC5
:103730003B6E070E4A6EB8EC1BF0220E3B6E010E7C
:103740004A6EB8EC1BF0320E3B6E020E4A6EB8ECBD
:103750001BF0330E3B6E0D0E4A6EB8EC1BF0300EB4
:103760003B6E6A0E4A6EB8EC1BF0ECEC1BF01200DC
:10377000820E1F6E0F0E216E800E1D6E830E206E48
:103780000F0E226E100E1E6E3E508AEC00F03B5063
:103790008AEC00F04A5088EC00F01200820E1F6E96
:1037A0000F0E216E800E1D6E830E206E0F0E226E88
:1037B000100E1E6E3D508AEC00F03B508AEC00F07B
:1037C0006FEC00F04A6E1200040083ACEBEF1BF0CC
:1037D000ECEC1BF02A821200310E3B6EDFDF230E71
:1037E0003B6EDCDF12004B6A0400070E4B5CD8B066
:1037F0003CEF1CF04BC03CF007EC20F00F0E4A14DD
:10380000146E156A700E4A14166E176A16C002F00E
:1038100017C003F0040ED1EC01F0166E03C017F0D0
:1038200016C008F017C009F00A0E046E056A0FEC06
:1038300002F0166E07C017F014501624496E0400EB
:103840002BBC2FEF1CF0280E4B24146E156A153676
:1038500014C0A9FF495096EC01F039EF1CF0300E6E
:103860004B24146E156A153614C0A9FF495096EC06
:1038700001F04B2AD8A0B8D712000A0E4B6E0400F4
:10388000370E4B5CD8B04DEF1CF04BC0A9FF000EBB
:1038900096EC01F04B2AD8A0F2D71200839A959AA1
:1038A000640EB1EC01F00AEF13F0838A959A58EC9C
:1038B00017F0C80EA4EC01F0070E3C6E810E4A6EA4
:1038C000F1EC1FF0120E476E010E486E8EEC17F0F1
:1038D000020E4A6E4AC0A9FF8FEC01F0496EBCECA3
:1038E0001FF00400010E4A5CD8A07DEF1CF0740E9E
:1038F0002F6E030E306E53EC18F04A06D8B0EAD79C
:10390000120E476E020E486E8EEC17F0040E4A6ED1
:103910000400070E4A5CD8B0A4EF1CF04AC0A9FF0F
:103920008FEC01F0496EBCEC1FF00400060E4A5CFF
:10393000D8B0A1EF1CF02C0E2F6E030E306E53EC9E
:1039400018F04A2AD8A0E4D7466A0400070E465C5D
:10395000D8B080EF1DF0040084B2B3EF1CF0C80EA5
:10396000A4EC01F0F8D7040046500308D8A4BBEF3C
:103970001CF0040E466E46C0A9FF8FEC01F0496EA4
:10398000120E476E486A8EEC17F04650040D06087A
:10399000D8A0F2EF1CF0F86AC80EF324F66E390EC8
:1039A000F420F76E000EF8220900F550026E0900AF
:1039B000F550036E0800F550DFEC00F002C02FF068
:1039C00003C030F0F2EF1CF00A040000E603000030
:1039D000C8030000B0030000B0030000E6030000CD
:1039E0002E04000053EC18F0040046500008D8A440
:1039F00000EF1DF0360E476E010E486E8EEC17F08C
:103A0000040046500108D8A40CEF1DF0240E476EA8
:103A1000010E486E8EEC17F0040046500208D8A440
:103A200018EF1DF0120E476E010E486E8EEC17F067
:103A3000040046500408D8A424EF1DF0120E476E6F
:103A4000020E486E8EEC17F0040046500508D8A40C
:103A500030EF1DF0240E476E020E486E8EEC17F00C
:103A6000040046500608D8A43CEF1DF0360E476E01
:103A7000020E486E8EEC17F0BCEC1FF0B7EC1DF098
:103A800046C03CF049C002F0036A0A0E046E056AA3
:103A9000F7EC01F0146E03C015F06F0E1416000E53
:103AA000151614C002F015C003F0040EC9EC01F0A5
:103AB000146E03C015F049C002F0036A0A0E046ECA
:103AC000056AF7EC01F0166E03C017F016C008F097
:103AD00017C009F00A0E046E056A0FEC02F0166EAC
:103AE00007C017F01650495C166EE86A1754176E37
:103AF000145016244A6EF1EC1FF0462AD8A025D7A0
:103B0000120E476E486A8EEC17F0D80E2F6E020E1A
:103B1000306E53EC18F0640EA4EC01F0040084B095
:103B20009CEF1DF0030E056EE80EA5EC01F00400FD
:103B300084B09CEF1DF0C6D6040084B2B0EF1DF037
:103B4000010E056EF40EA5EC01F0040084B2ADEF99
:103B50001DF0B1EF1DF0AEEF1DF0DDD7B1EF1DF0A0
:103B6000DAD7839A959A640EB1EC01F01200640ED4
:103B7000A4EC01F0E86A84A2E868146EE86A84A004
:103B8000E868166E14C002F01650F2EC01F0166EE2
:103B9000176E040016501710D8B4D0EF1DF0E7D7F9
:103BA000040084B0C4EF1EF0492A46500008D8A48F
:103BB000E868FF0A146E49503C08D8A4E868FF0A78
:103BC000166E14C002F01650EBEC01F0166E176E74
:103BD000040016501710D8B4EFEF1DF0496A465094
:103BE0000108D8A4E868FF0A146E49503C08D8A41C
:103BF000E868FF0A166E14C002F01650EBEC01F0F4
:103C0000166E176E040016501710D8B409EF1EF088
:103C1000496A46500208D8A4E868FF0A146E495061
:103C20001808D8A4E868FF0A166E14C002F01650EF
:103C3000EBEC01F0166E176E040016501710D8B496
:103C400023EF1EF0496A46500408D8A4E868FF0A2A
:103C5000146E49502008D8A4E868FF0A166E14C0F4
:103C600002F01650EBEC01F0166E176E04001650C1
:103C70001710D8B43EEF1EF0010E496E46500508ED
:103C8000D8A4E868FF0A146E49500D08D8A4E86863
:103C9000FF0A166E14C002F01650EBEC01F0166E1F
:103CA000176E040016501710D8B459EF1EF0010E0D
:103CB000496E46500608D8A4E868FF0A146E4950B9
:103CC0001408D8A4E868FF0A166E14C002F0165053
:103CD000EBEC01F0166E176E040016501710D8B4F6
:103CE00074EF1EF0090E496E040046500008D8A477
:103CF00080EF1EF0360E476E010E486E8EEC17F008
:103D0000040046500108D8A48CEF1EF0240E476E24
:103D1000010E486E8EEC17F0040046500208D8A43D
:103D200098EF1EF0120E476E010E486E8EEC17F0E3
:103D3000040046500408D8A4A4EF1EF0120E476EEB
:103D4000020E486E8EEC17F0040046500508D8A409
:103D5000B0EF1EF0240E476E020E486E8EEC17F088
:103D6000040046500608D8A4BCEF1EF0360E476E7D
:103D7000020E486E8EEC17F0BCEC1FF0010E056EC3
:103D8000F40EA5EC01F00CD7040084B2D6EF1EF0BF
:103D9000C80EA4EC01F0040084B2D3EF1EF0D7EFFC
:103DA0001EF0D4EF1EF0FCD6D7EF1EF0F9D646C0B9
:103DB000A9FF495096EC01F0120058EC17F0838AE5
:103DC000959A640EA4EC01F0040084B0E9EF1EF0B3
:103DD000F8D7E86A80AAE868146EE86A80B4E868F0
:103DE000166E14C002F01650F2EC01F0166E176E4B
:103DF000040016501710D8B400EF1FF04EEF1CF05F
:103E0000040084B01EEF1FF0070E056ED00EA5EC67
:103E100001F0040084B01EEF1FF055EC1CF058ECCC
:103E200017F0838A959A640EA4EC01F0640EA4EC5A
:103E300001F0040084B21EEF1FF0F8D7120E476E97
:103E4000010E486E8EEC17F0020E4D6E4DC03CF028
:103E500007EC20F00F0E4A14146E156A700E4A1407
:103E6000166E176A16C002F017C003F0040ED1ECEC
:103E700001F0166E03C017F016C008F017C009F065
:103E80000A0E046E056A0FEC02F0166E07C017F0FA
:103E900014501624496EBCEC1FF00400010E4D5C5A
:103EA000D8A059EF1FF0740E2F6E030E306E53EC36
:103EB00018F04D06D8B0CAD7120E476E020E486EE3
:103EC0008EEC17F0040E4D6E0400070E4D5CD8B05A
:103ED000A0EF1FF04DC03CF007EC20F00F0E4A148D
:103EE000146E156A700E4A14166E176A16C002F028
:103EF00017C003F0040ED1EC01F0166E03C017F0EA
:103F000016C008F017C009F00A0E046E056A0FEC1F
:103F100002F0166E07C017F014501624496EBCEC60
:103F20001FF00400060E4D5CD8B09DEF1FF02C0E64
:103F30002F6E030E306E53EC18F04D2AD8A0C4D764
:103F4000040084B2B6EF1FF0640EA4EC01F004008C
:103F500084B2B6EF1FF0839A959A640EB1EC01F02B
:103F600058EC17F09EEC0FF0D3EF11F0010E056E38
:103F7000F40EA5EC01F02DD749C002F0036A0A0E39
:103F8000046E056AF7EC01F0516E51C008F0096A41
:103F90000A0E046E056A0FEC02F0146E07C015F0ED
:103FA0001450495C526E51500008D8A4E868FF0ACA
:103FB000146E4F500208D8A4E868FF0A166E14C0A9
:103FC00002F01650EBEC01F0166E176E040016505E
:103FD0001710D8B4EEEF1FF0200E516EFBEC19F065
:103FE0001200820E1F6E0F0E216E800E1D6E830E4C
:103FF000206E0F0E226E100E1E6E40508AEC00F0E6
:104000003C508AEC00F04A5088EC00F01200820E1E
:104010001F6E0F0E216E800E1D6E830E206E0F0E12
:10402000226E100E1E6E3F508AEC00F03C508AEC5F
:1040300000F06FEC00F04A6E1200340E476E050E71
:10404000486E8EEC17F0020E4F6E0400010E4F5CAE
:10405000D8A06CEF20F04FC03CF0D9DF0F0E4A140F
:10406000146E156A700E4A14166E176A16C002F0A6
:1040700017C003F0040ED1EC01F0166E03C017F068
:1040800016C008F017C009F00A0E046E056A0FEC9E
:1040900002F0166E07C017F014501624496E6CDF3C
:1040A0000400020E4F5CD8A069EF20F08184939445
:1040B000556AB1EC19F0360E556EB1EC19F0360EAA
:1040C000556EB1EC19F0556AB1EC19F0556AB1ECC6
:1040D00019F04F06D8B0B9D7120004002ABCB3EFCC
:1040E00020F0830E1F6E0F0E216E040E1D6E010E4A
:1040F00045EC01F0550E20EC01F04E0E20EC01F0E5
:10410000000E20EC01F0000E20EC01F01F0E20EC60
:1041100001F042EC01F0D2EC20F0FA0EA4EC01F038
:10412000E8EC20F04A2A4B505508D8A4E868146EF1
:104130004D505508D8A4E868166E14C002F0165009
:10414000EBEC01F0166E176E040016501710D8B481
:10415000ACEF20F0B1EF20F00400050E4A5CD8A0CF
:10416000C0D7CFEF20F0830E1F6E0F0E216E040E0E
:104170001D6E010E45EC01F0550E20EC01F04E0EC7
:1041800020EC01F0000E20EC01F0000E20EC01F01C
:104190001F0E20EC01F042EC01F0D2EC20F01200F6
:1041A0002A8C1200830E1F6E0F0E216E040E1D6EE0
:1041B000010E45EC01F0D8A0F3D7CC0E20EC01F0B5
:1041C000440E20EC01F042EC01F0D8A0E9D7120037
:1041D000830E1F6E0F0E216E040E1D6E010E45EC38
:1041E00001F0D8A0DDD7550E20EC01F0280E20EC10
:1041F00001F0960E20EC01F03A0E20EC01F04F0E8B
:1042000020EC01F0010E20EC01F0000E20EC01F09A
:10421000000E20EC01F0F50E20EC01F0BE0E20ECBB
:1042200001F042EC01F0D8A0BBD7830E1F6E0F0E39
:10423000216E040E1D6E020E45EC01F0D8A0B0D721
:10424000F8EC00F0336EF8EC00F0346E42EC01F064
:10425000D8A0A6D7F00E3314146E0F0E3414156EBA
:1042600014C002F015C003F0040ED1EC01F04B6E47
:10427000830E1F6E0F0E216E040E1D6E010E45EC97
:1042800001F0D8A08DD7550E20EC01F0280E20ECBF
:1042900001F0E90E20EC01F0890E20EC01F05F0E38
:1042A00020EC01F0010E20EC01F0000E20EC01F0FA
:1042B000000E20EC01F0700E20EC01F0BE0E20ECA0
:1042C00001F042EC01F0D8A06BD7830E1F6E0F0EE9
:1042D000216E040E1D6E020E45EC01F0D8A060D7D1
:1042E000F8EC00F0336EF8EC00F0346E42EC01F0C4
:1042F000D8A056D7F00E3314146E0F0E3414156E6A
:1043000014C002F015C003F0040ED1EC01F04D6EA4
:10431000120038500108D8A4E868FF0A146EE86A51
:104320002ABCE868166E14C002F01650EBEC01F0DF
:10433000166E176E040016501710D8B4A2EF21F0B5
:10434000CCDE2A8E38501308D8A4E868FF0A146E11
:10435000E86A2ABCE868166E14C002F01650EBEC4E
:1043600001F0166E176EE86A2ABEE868186E1650DD
:104370001710026E1850EBEC01F0186E196E040065
:1043800018501910D8B4E3EF21F022DF4BC04CF0E5
:104390004DC04EF04B505508D8A4E868146E4D50EF
:1043A0005508D8A4E868166E14C002F01650EBEC5D
:1043B00001F0166E176E040016501710D8B4E3EF14
:1043C00021F02A9C2A9E040038501408D8A4F3EF48
:1043D00021F0386AFDDEE8EC22F0E4DEF5EC21F0B5
:1043E0002CDE02EC23F0382A120004007E0E4B5C17
:1043F000D8A007EF22F04B50FF08146E000ED8A093
:10440000E804156E14284B6E2B8608EF22F02B96CD
:104410004C504B5C146E156AD8A0150615AE03D02F
:10442000146CE86A155614C002F015C003F0056A52
:104430000A0ED6EC01F0D8A420EF22F04CC04BF0CD
:104440004BC002F0036A020EBCEC01F0516E4BC08F
:1044500002F0036A010EBCEC01F0526E4BC002F098
:10446000036A000EBCEC01F0536E010E486E4BC0A7
:104470004CF081EC22F004007E0E4D5CD8A04DEF94
:1044800022F04D50FF08146E000ED8A0E804156EFF
:1044900014284D6E2B864EEF22F02B964E504D5C1D
:1044A000146E156AD8A0150615AE03D0146CE86A10
:1044B000155614C002F015C003F0056A0A0ED6ECBA
:1044C00001F0D8A466EF22F04EC04DF04DC002F0CE
:1044D000036A020EBCEC01F0516E4DC002F0036A9B
:1044E000010EBCEC01F0526E4DC002F0036A000EEA
:1044F000BCEC01F0536E030E486E4DC04EF081ECE3
:1045000022F051500008D8A4E868FF0A146E5250F7
:104510000008D8A4E868FF0A166E14C002F016500E
:10452000EBEC01F0166E176E040016501710D8B49D
:104530009CEF22F0200E526E040051500008D8A4C7
:10454000A4EF22F0200E516E04002BA6AAEF22F059
:10455000210E516E04002AACB4EF22F0210E516EF0
:10456000210E526E210E536E51502108D8A4E868D6
:10457000FF0A146E52500508D8A4E868FF0A166EA8
:1045800014C002F01650EBEC01F0166E176E53508B
:104590000508D8A4E868FF0A186E16501710026EB6
:1045A0001850EBEC01F0186E196E04001850191039
:1045B000D8B4E1EF22F0210E516E210E526E210E81
:1045C000536E360E476E8EEC17F0E6EC19F01200C3
:1045D000000E78EC01F0356E35C008F0096A7D0EEA
:1045E000046E056A0FEC02F0146E07C015F014C0DB
:1045F00002F015C003F0C80E046E056AF7EC01F076
:10460000356E120035C002F0036A020EBCEC01F0F8
:10461000516E35C002F0036A010EBCEC01F0526E1F
:1046200035C002F0036A000EBCEC01F0536E0400CA
:1046300051500008D8A41FEF23F0200E516E340E05
:10464000476E070E486E8EEC17F0FBEC19F0818474
:104650009394400E556EB1EC19F0556AB1EC19F017
:1046600053C055F0EEEC17F0120058EC17F033EC95
:104670000FF0466A0400060E465CD8B04FEF23F0F8
:10468000828C949C960EA4EC01F0829C949C010E6A
:10469000056E2C0EA5EC01F0462AD8A0EBD7E86AEF
:1046A00084A2E868146EE86A84A0E868166E14C0F4
:1046B00002F01650EBEC01F0166E176E0400165067
:1046C0001710D8B465EF23F0D4D758EC17F02B842B
:1046D000140E386E2D6A2E6A466AE8EC20F0D2EC91
:1046E00020F076DF10EC1AF07EEC07F09F809D80C2
:0846F00059EC04F0C8EF06F0DC
:020000040030CA
:0300010088180F4D
:020005008581F3
:060008000FC00FE00F40E5
:0200000400F00A
:080000000000080001060F00DA
:00000001FF
