:020000040000FA
:06000000006A30EF02F07F
:04000800CFEF03F043
:0800180033EF02F00F010B6E43
:10002000000E026E120E036E7A0E066E076AF9EC6F
:1000300001F00C6A035006E00C803CD8FC0F02E390
:100040000C8238D802060A3C03D0F468F36805D065
:100050000A50F46EF36A023C0A020F010B2E0DD017
:10006000BD50CF0BF3BEE88AF3BCE8880C09F4CF8F
:10007000BEFFBD6E94940D6A10D00B2E0DD0BA50F9
:10008000CF0BF3BEE88AF3BCE8880C09F4CFBBFFC2
:10009000BA6E94920D6A01D00AD00D2A0D2E09D0A5
:1000A000CA50FC0B0C10E88402C0CBFFCA6E2DEFC7
:1000B00002F0FDD703320232033202321200008C0A
:1000C00000AC009CD96E0B50D89020E00B2E03D0D2
:1000D00000BC05D800AC05D819E2DE6EF4D7008A62
:1000E00000AA009A00B603D0008640D827E2080E86
:1000F000056E50D80436052EFCD700AA2ED858D845
:1001000051D800BA1BD821D80450D8902DEF02F056
:10011000008A00AA009A00B405D0FE0B016E00848C
:10012000D8900AD000B805D0086E00881FD806E223
:10013000085023D803E200AA2DEF02F00ED838D8D9
:1001400000940098009601D8F7D721C0EAFF1F3C21
:10015000E96EE9881D50EC1208D021C0EAFF1FC0EB
:10016000E9FF1D1CEE16E988EC161200EEDF20D820
:10017000F4DF18D8015000B60109046E080E056EB0
:100180000436D8B0E2DFD8A0E8DF12D80BD8052EAD
:10019000F7D7DBDF0DD821C0EAFF1FC0E9FF1D50F4
:1001A000EF14FF0F22C0EAFF20C0E9FF1E1CDAD7C0
:1001B00022C0EAFF203CE96EE9881E50CCD7000936
:1001C00015E00A6E02C0E9FF03C0EAFF026A036A93
:1001D0000ABE07D0EE50026E0AA208D0EF50036E9E
:1001E00005D06EEC01F0EF14D8A4022A2DEF02F036
:1001F000080E01B4010E056E046A21C0EAFF1FC09B
:10020000E9FF1D1CEF16E988E92AEC16070EB1EC90
:1002100001F01D50EF12060EB1EC01F01D501FC091
:10022000E9FFEF14FF0F01A4043201B40436320ECB
:10023000B1EC01F0052EE5D70450D8802DEF02F087
:10024000046E080E01B4010E056E21C0EAFF1FC046
:10025000E9FF1D1CEF16E988E92AEC16060EB1EC41
:1002600001F01D500432D8B0EF12370EB1EC01F09E
:100270001D50EF12090EB1EC01F0052EE8D7D88021
:100280002DEF02F001A227D003D0016E01A023D0F0
:1002900021C0EAFF1F50120FE96E1D50EF121FC060
:1002A000E9FF1D1CEF16E988E92AEC16010E036E22
:1002B000E00EB2EC01F01D50EF12460EB1EC01F071
:1002C0001FC0E9FF1D50EF14D89006E1010E036E28
:1002D0009A0EB2EC01F0D8802DEF02F0010E0AB0B8
:1002E000E8440AB2E8440AB2E8440AB4E838120022
:1002F000E834E834FC0B0109C212C009C216C05030
:10030000F80B0309C06E000E036E320EB2EC01F062
:10031000C282C2B2FED7036AC4502DEF02F0A66AB1
:10032000A680A850A92A2DEF02F0E86AA86EA66A56
:10033000A684550EA76EAA0EA76EA682A6B2FED7F9
:10034000A694A92A2DEF02F0056A046EE86A040655
:10035000055AD8A02DEF02F0030E036EE70E02D867
:10036000F5D7036AFD0F026E01D00206040000D02B
:10037000E86A035AFAE21200096E0A0E046E056A70
:10038000F7EC01F00906FCE206501200D8900236A4
:100390000336FF0FFBE202502DEF02F0D89003323C
:1003A0000232FF0FFBE202502DEF02F0046E060E48
:1003B00002D0046E050E0A6E0550035C02E1045083
:1003C000025C040ED8B0010ED8B4020E0A14D8A4F0
:1003D000FF0E2DEF02F0E866FF0E0214D8A4FF0E08
:1003E0002DEF02F00210D8A4FF0E2DEF02F0076AE5
:1003F000066A100E086E0334063607360450065E91
:100400000550075A05E20450062605500722D890E9
:1004100002360336082EEFD702502DEF02F00450BB
:100420000802F3CF06F0F4CF07F005500902F3CF2E
:1004300002F0F4CF03F00802F3500726F450022232
:10044000E86A032204500902F3500726F4500222FE
:10045000E86A032206502DEF02F0000104001200AA
:100460001C6A34EF02F010002C92FFEF02F004003F
:100470002CB28AEF02F002C092F003C093F004C0E5
:1004800096F005C097F006C09AF007C09BF008C030
:100490009EF009C09FF00AC0A2F00BC0A3F00CC0F0
:1004A000A4F00DC0A5F00EC0A6F00FC0A7F010C0BC
:1004B000A8F011C0A9F012C0AAF013C0ABF000C0A0
:1004C000ACF001C0ADF01DC0AEF01EC0AFF01FC05B
:1004D000B0F020C0B1F0F8CFD0F0F7CFD3F0F6CF26
:1004E000D2F021C0B2F022C0B3F0F3CFD4F0F4CFF9
:1004F000D5F014C0B4F015C0B5F016C0B8F017C0F0
:10050000B9F018C0BCF019C0BDF01AC0C0F01BC0D3
:10051000C1F02C821CB494EF02F029C0FBFF28C06C
:10052000FAFF2750E06AF96E26C0FBFF25C0FAFFEC
:100530002450E06AF96E04002CA2EEEF02F092C0A3
:1005400002F093C003F096C004F097C005F09AC083
:1005500006F09BC007F09EC008F09FC009F0A2C043
:100560000AF0A3C00BF0A4C00CF0A5C00DF0A6C00B
:100570000EF0A7C00FF0A8C010F0A9C011F0AAC0DB
:1005800012F0ABC013F0ACC000F0ADC001F0AEC0D3
:100590001DF0AFC01EF0B0C01FF0B1C020F0D0C041
:1005A000F8FFD3C0F7FFD2C0F6FFB2C021F0B3C04E
:1005B00022F0D4C0F3FFD5C0F4FFB4C014F0B5C02E
:1005C00015F0B8C016F0B9C017F0BCC018F0BDC027
:1005D00019F0C0C01AF0C1C01BF02C921CB4F8EF87
:1005E00002F029C0FBFF28C0FAFF2750E06AF96E2D
:1005F00026C0FBFF25C0FAFF2450E06AF96E210EE9
:10060000396E470E446E2A80700ED36E9B8C0F0E8F
:10061000C16EB5EC03F0F26AF18CCA94816A826A09
:10062000836A846AA00E436E390E3F6E380E406EA8
:10063000DE0E426EDF0E416E2B8882869496818A92
:10064000939A22EC1BF01EEC17F05EEC17F05BECBB
:100650001CF02A982A9A2B9C2A9C2A9E9AEF04F036
:100660000F0EC16E2A922A9A2A882A942A963A6AEA
:100670002D6A2E6A506A818A939AFA0E65DE1EEC04
:1006800017F05EEC17F08AEC0BF004002BAE55EF80
:1006900003F004002BB053EF03F05EEC17F0E0EC36
:1006A0000DF0838A959A57EF03F070EC0CF02C90C4
:1006B000120082869496818A939A0E0EC16EFA0E6B
:1006C00043DE1EEC17F05EEC17F04F6ADBEC21F016
:1006D00036EC0CF0040080A481EF03F00400CAA4FF
:1006E0007DEF03F044C00AF0A10E046E070E056E04
:1006F000010E0EEC00F07FEF03F022EC1BF085EF13
:1007000003F0BD6ACA9482949494838A959A030EE6
:10071000056EE80E1ADE5EEC17F004002BAC95EFC8
:1007200003F0E5EC0CF05EEC17F08AEC0BF05EECFD
:1007300017F04D6A140E3A6E2D6A2E6A2B8A2B948E
:100740002B90486A466A2A8A2A981AEC1AF061ECB9
:100750000AF02B9C94EC24F056EC22F050C035F0BB
:1007600051C036F0CDEC03F012009268010E936E8A
:10077000946A400E956E070E966E1200926893680A
:1007800094689568070E966E1200948E95881200F4
:10079000949E959812009486120028EF04F0FBCFE7
:1007A0008FF0FACF8DF0E9CF80F0EACF81F0E1CF82
:1007B00084F0E2CF85F0D9CF88F0DACF89F01C84BD
:1007C0001C90E06A9DA0F2EF03F09EA0F2EF03F010
:1007D0001C800400E40E246E070E256E000E266EAB
:1007E0004EEF04F0E06A9DA00BEF04F09EA00BEF2B
:1007F00004F01C800400040E246E080E256E000E0A
:10080000266E35D6140E246E080E256E000E266E4A
:100810002DEF04F09E90E06A1CB0E0EF03F02C0E88
:10082000246E080E256E000E266E85D61C9480C0A0
:10083000E9FF81C0EAFF84C0E1FF85C0E2FF88C014
:10084000D9FF89C0DAFF8DC0FAFF8FC0FBFF11000E
:10085000F28EF28C300ECD6E120033EC07F0F4EC19
:1008600006F0F7EC22F0C4EC07F004003A5001085F
:10087000D8B43DEF04F086EC07F01CB447EF04F069
:1008800029C0FBFF28C0FAFF2750E06AF96E26C096
:10089000FBFF25C0FAFF2450E06AF96ECD90B10E3F
:1008A000CE26D8B0CF2A3C0ECF26CD801CB460EF28
:1008B00004F029C0FBFF28C0FAFF2750E06AF96E58
:1008C00026C0FBFF25C0FAFF2450E06AF96EB10E86
:1008D000CE6E3C0ECF6ECD801200CD901200030E76
:1008E000496E4A6A94EC17F0DC0E2F6E040E306EDF
:1008F00059EC18F0010E526E536A546A52C056F009
:10090000F4EC17F081849394400E566EB7EC19F016
:10091000566AB7EC19F053C056F0F4EC17F0040027
:1009200054500008D8B499EF04F054C056F0F4ECD9
:1009300017F01200040080BAA7EF04F004002AB8F0
:10094000A3EF04F08DDEB1EF04F0B1EF04F004008A
:100950002ABAACEF04F0ADDE9F809D80B8DFD0EF07
:1009600006F004002BBEC1EF04F004002CA0BDEF84
:1009700004F0D2EF04F0BFEF04F0C3EF04F0C3EFD4
:1009800004F0DEEF04F082969496070E056ED00E0A
:10099000A5EC01F02B9C0400CAA4D1EF04F05AECA2
:1009A0001BF02C80CA94816A826AE8DE100EF26E17
:1009B000CA9403000000F26AD8DEBCD704002AB44F
:1009C000E6EF04F02AEF05F0E8EF04F0E8EF04F0BA
:1009D000DCDE04002BB00DEF05F04F6A0400060EBC
:1009E0004F5CD8B004EF05F0040080AAFAEF04F0E1
:1009F00028EF05F0040083AC00EF05F044EF05F0AC
:100A000003004F2AD8A0EAD783869596190EA4EC46
:100A100001F0839695969586DCD7040080AA13EFA3
:100A200005F028EF05F00300D9EC17F082829492CC
:100A300082809490040080AA20EF05F028EF05F052
:100A400003008292949282909490D0EC17F0C1D7D8
:100A50008CDE70D7040080AA2FEF05F0F9D70400D0
:100A60002BB035EF05F01EEC0EF05EEC17F066ECE7
:100A700005F004002BB043EF05F097EC1BF043ECBE
:100A80001CF0F2EC1BF0E4D783DEC3EC05F0030EA0
:100A9000056EE80EA5EC01F0C3EC05F02A92030EFA
:100AA000056EE80EA5EC01F0F2EC1BF0030E056EEE
:100AB000E80EA5EC01F0EAEC1BF004002AA265EFB9
:100AC00005F090EF05F066EF05F082D72A842B9CA5
:100AD00004002BB082EF05F0828094908282949281
:100AE000828A949A140EA4EC01F0829A949AF7ECFC
:100AF0000BF0FA0EA4EC01F0829094908292949202
:100B000084EF05F0AEEC0CF00400CAA48AEF05F007
:100B10005AEC1BF0CA9482969496CA943CDE12005A
:100B2000F9EC1BF004002BAC98EF05F0DAEF05F0C0
:100B30004F6A0400060E4F5CD8B0AEEF05F004001B
:100B400080AAA4EF05F084D7C3EC05F0080E056E6B
:100B5000CA0EA5EC01F04F2AD8A0EBD717EC06F08F
:100B60002B8C4F6A0400040E4F5CD8B0C2EF05F026
:100B7000040080AABDEF05F06BD7F0EC05F04F2A1A
:100B8000D8A0F0D725D7828A949A838695968282B8
:100B9000949282809490320EA4EC01F0829A949AFE
:100BA00083969596C80EA4EC01F08292949282905E
:100BB000949012002A864F6A04000A0E4F5CD8B047
:100BC000ECEF05F0040080AAE7EF05F041D7F0EC68
:100BD00005F04F2AD8A0F0D717EC06F01BEF06F06F
:100BE0008292949282809490828A949A8386959637
:100BF000FA0EA4EC01F08290949082829492FA0E04
:100C0000A4EC01F0829A949A83969596829294929B
:100C100082809490FA0EA4EC01F0829094908282EB
:100C20009492FA0EA4EC01F0829294921200F2ECEB
:100C30001BF02A9212003C6A0400040E3C5CD8B0FF
:100C400074EF06F04F6A0400040E4F5CD8B04AEF10
:100C500006F0040080AA2EEF06F0FAD68280949067
:100C600082829492010E056EF40EA5EC01F0829042
:100C7000949082929492010E056EF40EA5EC01F010
:100C8000EAEC1BF004002AA247EF06F049D74F2AEE
:100C9000D8A0D9D7040080AA4FEF06F0D9D6828019
:100CA000949082829492010E056EF40EA5EC01F0F0
:100CB0008290949082929492FA0EA4EC01F0828A2F
:100CC000949A83869596FA0EA4EC01F083969596F5
:100CD000829A949AEAEC1BF004002AA271EF06F0C3
:100CE0001FD73C2AD8A0A8D73C6A0400030E3C5C5E
:100CF000D8B0CFEF06F04F6A0400050E4F5CD8B0B5
:100D0000A3EF06F0040080AA87EF06F0A1D6828048
:100D1000949082829492010E056EF40EA5EC01F07F
:100D20008290949082929492050E056EDC0EA5EC52
:100D300001F0EAEC1BF004002AA2A0EF06F0F0D6C6
:100D40004F2AD8A0D9D7040080AAA8EF06F080D6F1
:100D50008280949082829492010E056EF40EA5EC2E
:100D600001F08290949082929492040E056EE20EAD
:100D7000A5EC01F0828A949A83869596FA0EA4ECEB
:100D800001F083969596829A949AEAEC1BF00400FF
:100D90002AA2CCEF06F0C4D63C2AD8A0A6D718D6F3
:100DA000040080BAD9EF06F09D906DEC04F09AEF44
:100DB00004F0E86A80A4E868146EE86A84A2E8682F
:100DC000166E14C002F01650EBEC01F0166E176EA2
:100DD000040016501710D8B4F0EF06F0ECEF0AF04C
:100DE000FA0EA4EC01F0DCD7040080B8FCEF06F0AA
:100DF0003EEC07F032EF07F0040080B404EF07F098
:100E000049EC07F032EF07F0E86A80A2E868146E58
:100E1000E86A2BBAE868166E14C002F01650EBECC4
:100E200001F0166E176E040016501710D8B41BEFA1
:100E300007F060EC07F0E86A80A6E868146EE86ADC
:100E40002BBAE868166E14C002F01650EBEC01F0F5
:100E5000166E176E040016501710D8B432EF07F054
:100E60006EEC07F01200D890463680B4468080A41D
:100E7000469046BE2B8E46AE2B9E120004004D506F
:100E80000008D8B448EF07F061EC0AF04D6A2B8AED
:100E90001200E86A80B2E868146EE86A80B6E86812
:100EA000166E14C002F01650EBEC01F0166E176EC1
:100EB000040016501710D8B45FEF07F02B8A120009
:100EC0002B842B9A0400020E4D5CD8B06CEF07F017
:100ED000010E4D6E6DEF07F04D0612002B842B9A1C
:100EE0000400050E4D5CD8A07AEF07F0060E4D6E9B
:100EF00085EF07F004004D500008D8A484EF07F0F8
:100F0000020E4D6E85EF07F04D2A120004002BA44F
:100F1000C3EF07F02B9404004D500608D8A493EFBC
:100F200007F0F6EC09F004004D500508D8A49BEF3B
:100F300007F08BEC09F004004D500408D8A4A3EF8F
:100F400007F020EC09F004004D500308D8A4ABEFE3
:100F500007F0B3EC08F004004D500208D8A4B3EF3A
:100F600007F048EC08F004004D500108D8A4BBEF8E
:100F700007F0E2EC07F004004D500008D8A4C3EFDE
:100F800007F061EC0AF0120004002BB8E1EF07F063
:100F9000580E026E020E036E2EC005F02D50D9ECD5
:100FA00001F0D8A4DEEF07F02D6A2E6A9D9016ECB2
:100FB0001AF09F809D802B84E1EF07F02D2A000E10
:100FC0002E2212004F6A0400060E4F5CD8B045EF87
:100FD00008F0060E496E4F284A6E94EC17F04F50F9
:100FE0000008D8A4E868FF0A146E4F500208D8A47D
:100FF000E868FF0A166E14C002F01650F2EC01F019
:10100000166E176E4F500308D8A4E868FF0A186ED2
:1010100016501710026E1850F2EC01F0186E196E8F
:101020004F500408D8A4E868FF0A1A6E1850191027
:10103000026E1A50F2EC01F01A6E1B6E04001A5088
:101040001B10D8B42AEF08F0180E316E020E326E63
:10105000CEEC0AF004004F500108D8A436EF08F097
:10106000380E316E020E326ECEEC0AF004004F5094
:101070000508D8A442EF08F0580E316E020E326E09
:10108000CEEC0AF04F2AD8A09ED78FEC17F01200B2
:101090004F6A0400060E4F5CD8B0B0EF08F0060EA1
:1010A000496E4F284A6E94EC17F04F500008D8A4B0
:1010B000E868FF0A146E4F500208D8A4E868FF0AD7
:1010C000166E14C002F01650F2EC01F0166E176E98
:1010D0004F500508D8A4E868FF0A186E165017107C
:1010E000026E1850F2EC01F0186E196E04001850E0
:1010F0001910D8B482EF08F0F80E316E010E326E7E
:10110000CEEC0AF004004F500108D8A48EEF08F08E
:10111000780E316E020E326ECEEC0AF04F5003089C
:10112000D8A4E868FF0A146E4F500408D8A4E868F1
:10113000FF0A166E14C002F01650F2EC01F0166EA3
:10114000176E040016501710D8B4ADEF08F0980EC3
:10115000316E020E326ECEEC0AF04F2AD8A099D72B
:101160008FEC17F012004F6A0400060E4F5CD8B0E7
:101170001DEF09F0060E496E4F284A6E94EC17F0E9
:101180004F500008D8A4E868FF0A146E4F500208B8
:10119000D8A4E868FF0A166E14C002F01650F2ECEC
:1011A00001F0166E176E4F500508D8A4E868FF0AC4
:1011B000186E16501710026E1850F2EC01F0186EEF
:1011C000196E040018501910D8B4EDEF08F0F80E9D
:1011D000316E010E326ECEEC0AF04F500108D8A4E9
:1011E000E868FF0A146E4F500308D8A4E868FF0AA5
:1011F000166E14C002F01650F2EC01F0166E176E67
:101200004F500408D8A4E868FF0A186E165017104B
:10121000026E1850F2EC01F0186E196E04001850AE
:101220001910D8B41AEF09F0780E316E020E326E32
:10123000CEEC0AF04F2AD8A097D78FEC17F0120007
:101240004F6A0400060E4F5CD8B088EF09F0060E16
:10125000496E4F284A6E94EC17F04F500008D8A4FE
:10126000E868FF0A146E4F500108D8A4E868FF0A26
:10127000166E14C002F01650F2EC01F0166E176EE6
:10128000040016501710D8B44CEF09F0B80E316EA8
:10129000020E326ECEEC0AF004004F500208D8A4C1
:1012A00058EF09F0F80E316E010E326ECEEC0AF0F6
:1012B0004F500308D8A4E868FF0A146E4F50040882
:1012C000D8A4E868FF0A166E14C002F01650F2ECBB
:1012D00001F0166E176E4F500508D8A4E868FF0A93
:1012E000186E16501710026E1850F2EC01F0186EBE
:1012F000196E040018501910D8B485EF09F0780E53
:10130000316E020E326ECEEC0AF04F2AD8A099D779
:101310008FEC17F012004F6A0400060E4F5CD8B035
:10132000F3EF09F0060E496E4F284A6E94EC17F061
:101330004F500008D8A4E868FF0A146E4F50020806
:10134000D8A4E868FF0A166E14C002F01650F2EC3A
:1013500001F0166E176E4F500508D8A4E868FF0A12
:10136000186E16501710026E1850F2EC01F0186E3D
:10137000196E040018501910D8B4C5EF09F0F80E12
:10138000316E010E326ECEEC0AF004004F500108AF
:10139000D8A4D1EF09F0980E316E020E326ECEEC69
:1013A0000AF04F500308D8A4E868FF0A146E4F50A3
:1013B0000408D8A4E868FF0A166E14C002F016509C
:1013C000F2EC01F0166E176E040016501710D8B428
:1013D000F0EF09F0780E316E020E326ECEEC0AF0AC
:1013E0004F2AD8A099D78FEC17F012004F6A04004B
:1013F000060E4F5CD8B05EEF0AF0060E496E4F281D
:101400004A6E94EC17F04F500008D8A4E868FF0A21
:10141000146E4F500208D8A4E868FF0A166E14C074
:1014200002F01650F2EC01F0166E176E4F500508E0
:10143000D8A4E868FF0A186E16501710026E1850EC
:10144000F2EC01F0186E196E040018501910D8B49F
:1014500030EF0AF0F80E316E010E326ECEEC0AF06B
:1014600004004F500108D8A43CEF0AF0980E316EEA
:10147000020E326ECEEC0AF04F500308D8A4E86892
:10148000FF0A146E4F500408D8A4E868FF0A166ECD
:1014900014C002F01650F2EC01F0166E176E040044
:1014A00016501710D8B45BEF0AF0B80E316E020E6A
:1014B000326ECEEC0AF04F2AD8A099D78FEC17F0F5
:1014C00012004F6A0400060E4F5CD8B0CBEF0AF052
:1014D000060E496E4F284A6E94EC17F04F500008E4
:1014E000D8A4E868FF0A146E4F500508D8A4E8682D
:1014F000FF0A166E14C002F01650F2EC01F0166EE0
:10150000176E040016501710D8B48DEF0AF0F80EBD
:10151000316E010E326ECEEC0AF04F500108D8A4A5
:10152000E868FF0A146E4F500208D8A4E868FF0A62
:10153000166E14C002F01650F2EC01F0166E176E23
:101540004F500308D8A4E868FF0A186E1650171009
:10155000026E1850F2EC01F0186E196E4F5004082C
:10156000D8A4E868FF0A1A6E18501910026E1A50B3
:10157000F2EC01F01A6E1B6E04001A501B10D8B466
:10158000C8EF0AF0B80E316E020E326ECEEC0AF0E1
:101590004F2AD8A097D78FEC17F012003C6A0400AE
:1015A000050E3C5CD8B0EBEF0AF03CC008F0096ACD
:1015B000060E046E056A0FEC02F0146E07C015F0FB
:1015C000315014242F6E32501520306E59EC18F023
:1015D0003C2AD8A0E4D71200E86A84A2E868146E16
:1015E000E86A84A0E868166E14C002F01650EBECAE
:1015F00001F0166E176E4D500008D8A4E868186EFA
:1016000016501710026E1850EBEC01F0186E196EA0
:10161000040018501910D8B43AEF0BF0010E056E03
:10162000F40EA5EC01F0E86A84A2E868146EE86A9A
:1016300084A0E868166E14C002F01650EBEC01F0BE
:10164000166E176E4D500008D8A4E868186E165034
:101650001710026E1850EBEC01F0186E196E0400B2
:1016600018501910D8B43AEF0BF09D906DEC04F0BF
:10167000E1EF24F0E86A84A2E868146EE86A84B0B6
:10168000E868166E14C002F01650EBEC01F0166E0E
:10169000176E4D500008D8A4E868FF0A186E16505F
:1016A0001710026E1850EBEC01F0186E196E040062
:1016B00018501910D8B488EF0BF0FA0EA4EC01F012
:1016C000E86A84A2E868146EE86A84B0E868166E76
:1016D00014C002F01650EBEC01F0166E176E4D5070
:1016E0000008D8A4E868FF0A186E16501710026E9A
:1016F0001850EBEC01F0186E196E04001850191018
:10170000D8B488EF0BF09D906DEC04F077EF0FF0FC
:101710009AEF04F0496A4A6A94EC17F04F6A5EEC5B
:1017200017F0516A0400060E515CD8B0F5EF0BF0CB
:10173000506A0400030E505CD8B0F2EF0BF0456A1B
:101740000400060E455CD8B0EDEF0BF04FC049F039
:1017500045502AB0010F4A6E94EC17F03C6A040021
:10176000080E3C5CD8B0EAEF0BF03CC008F0096A08
:10177000060E046E056A0FEC02F0146E07C015F039
:101780006C0E14260B0E152245C008F0096A300EA7
:10179000046E056A0FEC02F0166E07C017F01450C5
:1017A00016261550172250C008F0096A200E046E44
:1017B000010E056E0FEC02F0186E07C019F01650FE
:1017C00018242F6E17501920306E59EC18F03C2A4F
:1017D000D8A0C5D7452AD8A0B3D7020E4F26502A85
:1017E000D8A0A7D7512AD8A09DD74F6A1200456A22
:1017F0000400060E455CD8B035EF0CF0120E496EB1
:1018000045502AB0010F4A6E94EC17F03C6A040070
:10181000080E3C5CD8B032EF0CF03CC008F0096A0E
:10182000060E046E056A0FEC02F0146E07C015F088
:10183000180E1426050E152245C008F0096A300E50
:10184000046E056A0FEC02F0166E07C017F0145014
:1018500016242F6E15501720306E59EC18F03C2AC4
:10186000D8A0D5D7452AD8A0C3D71200456A04000E
:10187000060E455CD8B06FEF0CF0496A45502AB0AF
:10188000010F4A6E94EC17F03C6A04000E0E3C5CAB
:10189000D8B06CEF0CF03CC008F0096A060E046E7C
:1018A000056A0FEC02F0146E07C015F045C008F091
:1018B000096A540E046E056A0FEC02F0166E07C03A
:1018C00017F0145016242F6E15501720306E59EC57
:1018D00018F03C2AD8A0D9D7452AD8A0C8D71200DA
:1018E000456A0400060E455CD8B0ADEF0CF0496ABD
:1018F00045502AB0010F4A6E94EC17F03C6A040080
:101900000E0E3C5CD8B0AAEF0CF03CC008F0096A9F
:10191000060E046E056A0FEC02F0146E07C015F097
:10192000740E1426090E152245C008F0096A540EDB
:10193000046E056A0FEC02F0166E07C017F0145023
:1019400016242F6E15501720306E59EC18F03C2AD3
:10195000D8A0D5D7452AD8A0C4D712003C6A040025
:10196000360E3C5CD8B0E4EF0CF0456A0400060E7D
:10197000455CD8B0E1EF0CF00F0E3C24496E4550A9
:101980002AB0010F4A6E94EC17F045C008F0096ABE
:10199000360E046E056A0FEC02F0316E07C032F0AD
:1019A0003C503124146EE86A3220156E380E14242F
:1019B0002F6E060E1520306E9CEC19F0452AD8A02B
:1019C000D5D73C2AD8A0CBD712005EEC17F03C6AE2
:1019D0000400360E3C5CD8B01DEF0DF0456A0400E3
:1019E000060E455CD8B01AEF0DF00F0E3C24496E80
:1019F00045502AB0010F4A6E94EC17F045C008F02C
:101A0000096A360E046E056A0FEC02F0316E07C0EB
:101A100032F03C503124146EE86A3220156E380ED4
:101A200014242F6E060E1520306E9CEC19F0452AFA
:101A3000D8A0D5D73C2AD8A0CBD7010E056EF40E7E
:101A4000A5EC01F04F6A0400040E4F5CD8B03AEFE9
:101A50000DF0C7EC17F0010E056EF40EA5EC01F0C9
:101A6000D9EC17F0010E056EF40EA5EC01F04F2A2B
:101A7000D8A0E9D75EEC17F0120E496E010E4A6E3F
:101A800094EC17F0020E506E280E5024146E156A56
:101A9000153614C0A9FF8FEC01F04B6E2AEC21F033
:101AA0000400010E505CD8A05CEF0DF0740E2F6E98
:101AB000030E306E59EC18F05006D8B0E5D7120E70
:101AC000496E020E4A6E94EC17F0040E506E04003C
:101AD000070E505CD8B088EF0DF0280E5024146E1D
:101AE000156A153614C0A9FF8FEC01F04B6E2AEC75
:101AF00021F00400060E505CD8B085EF0DF02C0EDE
:101B00002F6E030E306E59EC18F0502AD8A0DFD794
:101B100004002AA6D8EF0DF0120E496E040E4A6E8C
:101B200094EC17F0020E506E300E5024146E156AAD
:101B3000153614C0A9FF8FEC01F04B6E2AEC21F092
:101B40000400010E505CD8A0ACEF0DF0740E2F6EA7
:101B5000030E306E59EC18F05006D8B0E5D7120ECF
:101B6000496E050E4A6E94EC17F0040E506E040098
:101B7000070E505CD8B0D8EF0DF0300E5024146E24
:101B8000156A153614C0A9FF8FEC01F04B6E2AECD4
:101B900021F00400060E505CD8B0D5EF0DF02C0EED
:101BA0002F6E030E306E59EC18F0502AD8A0DFD7F4
:101BB0003A0E056E980EA5EC01F05EEC17F01200DF
:101BC000456A0400060E455CD8B01DEF0EF0496A68
:101BD00045502AB0010F4A6E94EC17F03C6A04009D
:101BE0000E0E3C5CD8B01AEF0EF03CC008F0096A4B
:101BF000060E046E056A0FEC02F0146E07C015F0B5
:101C00007C0E1426070E152245C008F0096A540EF2
:101C1000046E056A0FEC02F0166E07C017F0145040
:101C200016242F6E15501720306E59EC18F03C2AF0
:101C3000D8A0D5D7452AD8A0C4D712003C6A4F6A8D
:101C40000400190E4F5CD8B057EF0EF0040080AAC4
:101C50002CEF0EF09AEF04F0050E3C24496E030EB3
:101C60002AB0010F4A6E94EC17F081849394566861
:101C7000B7EC19F0B7EC19F0B7EC19F0050E3C24ED
:101C8000496E040E2AB0010F4A6E94EC17F081845D
:101C900093945668B7EC19F0B7EC19F0B7EC19F05B
:101CA0008FEC17F0030E3C264F2AD8A0C9D7190E87
:101CB000506E2A0E496E010E2AB0010F4A6E94EC46
:101CC00017F0D80E2F6E020E306E59EC18F0D80EA9
:101CD0002F6E020E306E59EC18F02A0E496E010E6E
:101CE0002AB0010F4A6E94EC17F0440E2F6E030ECB
:101CF000306E59EC18F0560E2F6E030E306E59EC04
:101D000018F0030E056EE80EA5EC01F05006200E4B
:101D1000546E50C002F0036A000EBCEC01F0536E2A
:101D200050C002F0036A010EBCEC01F0526E0400D8
:101D300052500008D8A49FEF0EF0200E526E2A0ECB
:101D4000496E010E2AB0010F4A6E94EC17F001ECB7
:101D50001AF04D0E496E030E2AB0010F4A6E94EC34
:101D600017F081849394010E566EB7EC19F0B7EC1E
:101D700019F05668B7EC19F04D0E496E040E2AB0F2
:101D8000010F4A6E94EC17F081849394800E566E86
:101D9000B7EC19F0B7EC19F05668B7EC19F08FEC06
:101DA00017F0490E3C6E4F6A0400180E4F5CD8B015
:101DB00033EF0FF0040080AAE0EF0EF09AEF04F08A
:101DC000030E056EE80EA5EC01F05006200E546ED1
:101DD00050C002F0036A000EBCEC01F0536E50C01C
:101DE00002F0036A010EBCEC01F0526E0400525086
:101DF0000008D8A4FEEF0EF0200E526E2A0E496E97
:101E0000010E2AB0010F4A6E94EC17F001EC1AF0A3
:101E10003C28496E030E2AB0010F4A6E94EC17F06D
:101E200081849394010E566EB7EC19F0B7EC19F05B
:101E3000B7EC19F03C28496E040E2AB0010F4A6E27
:101E400094EC17F081849394800E566EB7EC19F0E1
:101E5000B7EC19F0B7EC19F08FEC17F0030E3C5EFD
:101E60004F2AD8A0A1D7030E056EE80EA5EC01F00D
:101E70001200456A0400060E455CD8B076EF0FF0FC
:101E8000496A45502AB0010F4A6E94EC17F03C6A3B
:101E900004000E0E3C5CD8B073EF0FF03CC008F0AD
:101EA000096A060E046E056A0FEC02F0146E07C094
:101EB00015F0680E14260F0E152245C008F0096AA9
:101EC000540E046E056A0FEC02F0166E07C017F090
:101ED000145016242F6E15501720306E59EC18F040
:101EE0003C2AD8A0D5D7452AD8A0C4D7120088EC60
:101EF0001BF05EEC17F083869596640EA4EC01F05F
:101F00008396959691EC1BF0A4EC0FF00A0EA4ECCE
:101F100001F0E86A84A2E868146EE86A80BAE868AA
:101F2000166E14C002F01650EBEC01F0166E176E30
:101F3000040016501710D8B49FEF0FF0E7D7640EC7
:101F4000A4EC01F0A7EF11F05EEC17F0150E496E4E
:101F50004A6A94EC17F0F20E2F6E030E306E59ECB5
:101F600018F0F80E2F6E030E306E59EC18F0100EAC
:101F70002F6E040E306E59EC18F0CE0E2F6E030E3D
:101F8000306E59EC18F0F20E2F6E030E306E59ECD5
:101F900018F0EC0E2F6E030E306E59EC18F00A0E8E
:101FA0002F6E040E306E59EC18F00B0E496E010EB8
:101FB0004A6E94EC17F0080E2F6E030E306E59EC3B
:101FC00018F0A40E2F6E030E306E59EC18F0260E8A
:101FD0002F6E030E306E59EC18F03E0E2F6E030E6E
:101FE000306E59EC18F05C0E2F6E030E306E59EC0B
:101FF00018F0D80E2F6E020E306E59EC18F074ECFB
:1020000004F00E0E2F6E030E306E59EC18F00C0E0D
:10201000496E020E4A6E94EC17F0E00E2F6E030E1E
:10202000306E59EC18F08E0E2F6E040E306E59EC97
:1020300018F0820E2F6E040E306E59EC18F0880ED8
:102040002F6E040E306E59EC18F0D00E2F6E040E69
:10205000306E59EC18F0CA0E2F6E040E306E59EC2B
:1020600018F0D80E2F6E020E306E59EC18F00C0ED0
:10207000496E030E4A6E94EC17F0AA0E2F6E030EF3
:10208000306E59EC18F0A00E2F6E040E306E59EC25
:1020900018F0B20E2F6E040E306E59EC18F06A0E66
:1020A0002F6E040E306E59EC18F09A0E2F6E040E3F
:1020B000306E59EC18F00C0E496E040E4A6E94EC1A
:1020C00017F0AA0E2F6E030E306E59EC18F0B20EF8
:1020D0002F6E040E306E59EC18F0AC0E2F6E040EFD
:1020E000306E59EC18F07C0E2F6E040E306E59ECE9
:1020F00018F08E0E2F6E040E306E59EC18F0820E12
:102100002F6E040E306E59EC18F00C0E496E050E51
:102110004A6E94EC17F0B60E2F6E030E306E59EC2B
:1021200018F0280E2F6E040E306E59EC18F0CE0EFB
:102130002F6E030E306E59EC18F0100E2F6E040E39
:10214000306E59EC18F03D0E496E020E4A6E94EC5A
:1021500017F004002BA2B1EF10F0EAEC12F0B3EF8D
:1021600010F0FDEC12F0040048500008D8A4E9EF8C
:1021700010F0030E496E050E4A6E94EC17F0D80E5F
:102180002F6E020E306E59EC18F0030E496E020EDF
:102190004A6E94EC17F08C0E2F6E030E306E59ECD5
:1021A00018F0030E496E030E4A6E94EC17F0D80E29
:1021B0002F6E020E306E59EC18F0030E496E040EAD
:1021C0004A6E94EC17F0D80E2F6E020E306E59EC5A
:1021D00018F0040048500108D8A41FEF11F0030EB6
:1021E000496E020E4A6E94EC17F0D80E2F6E020E56
:1021F000306E59EC18F0030E496E030E4A6E94ECE3
:1022000017F08C0E2F6E030E306E59EC18F0030E83
:10221000496E040E4A6E94EC17F0D80E2F6E020E23
:10222000306E59EC18F0030E496E050E4A6E94ECB0
:1022300017F0D80E2F6E020E306E59EC18F0040015
:1022400048500208D8A455EF11F0030E496E020E53
:102250004A6E94EC17F0D80E2F6E020E306E59ECC9
:1022600018F0030E496E030E4A6E94EC17F0D80E68
:102270002F6E020E306E59EC18F0030E496E040EEC
:102280004A6E94EC17F08C0E2F6E030E306E59ECE4
:1022900018F0030E496E050E4A6E94EC17F0D80E36
:1022A0002F6E020E306E59EC18F0040048500308EF
:1022B000D8A48BEF11F0030E496E020E4A6E94EC17
:1022C00017F0D80E2F6E020E306E59EC18F0030E78
:1022D000496E030E4A6E94EC17F0D80E2F6E020E64
:1022E000306E59EC18F0030E496E040E4A6E94ECF1
:1022F00017F0D80E2F6E020E306E59EC18F0030E48
:10230000496E050E4A6E94EC17F08C0E2F6E030E7C
:10231000306E59EC18F01200640EA4EC01F0E86A7B
:1023200084A2E868146EE86A80BAE868166E14C081
:1023300002F01650EBEC01F0166E176E040016500A
:102340001710D8B4A5EF11F0E7D7486AFCDEE86AA9
:1023500080AAE868146EE86A80B4E868166E14C053
:1023600002F01650F2EC01F0166E176E04001650D3
:102370001710D8B4BEEF11F010EF13F0040084B0C2
:10238000CBEF11F0640EA4EC01F0040084B0CBEFAD
:1023900011F0C2EF12F0040084B2D8EF11F0640E15
:1023A000A4EC01F0040084B2D8EF11F0D9EF11F0E1
:1023B000CED7640EA4EC01F0E86A84A2E868146E3B
:1023C000E86A80BAE868166E14C002F01650EBECAA
:1023D00001F0166E176E040016501710D8B4F2EF05
:1023E00011F0E7D7010E486EAEDEE86A80AAE86811
:1023F000146EE86A80B4E868166E14C002F01650D5
:10240000F2EC01F0166E176E040016501710D8B4D7
:102410000CEF12F010EF13F0040084B019EF12F07B
:10242000640EA4EC01F0040084B019EF12F0E8EFA0
:1024300012F0040084B226EF12F0640EA4EC01F056
:10244000040084B226EF12F027EF12F0CED7640E0C
:10245000A4EC01F0E86A84A2E868146EE86A80BA25
:10246000E868166E14C002F01650EBEC01F0166E20
:10247000176E040016501710D8B440EF12F0E7D7CB
:10248000020E486E60DEE86A80AAE868146EE86AA8
:1024900080B4E868166E14C002F01650F2EC01F039
:1024A000166E176E040016501710D8B45AEF12F0BB
:1024B00010EF13F0040084B067EF12F0640EA4EC88
:1024C00001F0040084B067EF12F0E6EF12F00400B0
:1024D00084B274EF12F0640EA4EC01F0040084B234
:1024E00074EF12F075EF12F0CED7640EA4EC01F089
:1024F000E86A84A2E868146EE86A80BAE868166E32
:1025000014C002F01650EBEC01F0166E176E0400CA
:1025100016501710D8B48EEF12F0E7D7030E486E9E
:1025200012DEE86A80AAE868146EE86A80B4E86897
:10253000166E14C002F01650F2EC01F0166E176E13
:10254000040016501710D8B4A8EF12F010EF13F0D3
:10255000040084B0B5EF12F0640EA4EC01F00400A6
:1025600084B0B5EF12F010EF13F0040084B2C1EFA5
:1025700012F0640EA4EC01F0040084B2C1EF12F07A
:10258000CBD6CFD704002BB2C9EF12F02B82CAEF03
:1025900012F02B92A3EC10F0640EA4EC01F0E86AA8
:1025A00084A0E868146EE86A80BAE868166E14C001
:1025B00002F01650EBEC01F0166E176E0400165088
:1025C0001710D8B4E5EF12F0E7D7C1D653EF13F0E8
:1025D000F9EF1FF0F20E2F6E030E306E59EC18F06B
:1025E000EC0E2F6E030E306E59EC18F0D80E2F6ED5
:1025F000020E306E59EC18F01200F20E2F6E030E20
:10260000306E59EC18F0BC0E2F6E030E306E59EC84
:1026100018F0BC0E2F6E030E306E59EC18F012003D
:10262000838A959A640EA4EC01F0E86A80BAE8689F
:10263000146EE86A84A2E868166E14C002F01650A0
:10264000EBEC01F0166E176E040016501710D8B49C
:102650002BEF13F0E5D783869596640EA4EC01F07A
:10266000839695965EEC17F004002BB23BEF13F0C7
:102670005AEC1BF0CA942B84140E3A6E2D6A2E6A03
:10268000486ADBEC21F056EC22F040EC22F094ECAE
:1026900024F016EC1AF086EC07F09F809D8067EC22
:1026A00004F0D0EF06F05EEC17F0486A76EC13F019
:1026B0000A0EA4EC01F0E86A84A0E868146EE86AE7
:1026C00080BAE868166E14C002F01650EBEC01F008
:1026D000166E176E040016501710D8B471EF13F071
:1026E000E7D7640EA4EC01F05FEF15F05EEC17F095
:1026F000150E496E4A6A94EC17F0AA0E2F6E030E5F
:10270000306E59EC18F0F20E2F6E030E306E59EC4D
:1027100018F0EC0E2F6E030E306E59EC18F0BC0E54
:102720002F6E030E306E59EC18F0CE0E2F6E030E86
:10273000306E59EC18F0C20E2F6E030E306E59EC4D
:1027400018F00C0E496E020E4A6E94EC17F0040E4F
:102750002F6E040E306E59EC18F0760E2F6E040EAC
:10276000306E59EC18F07C0E2F6E040E306E59EC62
:1027700018F0C40E2F6E040E306E59EC18F0760E61
:102780002F6E040E306E59EC18F0CA0E2F6E040E28
:10279000306E59EC18F0880E2F6E040E306E59EC26
:1027A00018F0D80E2F6E020E306E59EC18F00C0E89
:1027B000496E030E4A6E94EC17F0A40E2F6E030EB2
:1027C000306E59EC18F0A00E2F6E040E306E59ECDE
:1027D00018F08E0E2F6E040E306E59EC18F0AC0E01
:1027E0002F6E040E306E59EC18F09A0E2F6E040EF8
:1027F000306E59EC18F0760E2F6E040E306E59ECD8
:1028000018F0C40E2F6E040E306E59EC18F0D80E6E
:102810002F6E020E306E59EC18F00C0E496E040E3D
:102820004A6E94EC17F0100E2F6E040E306E59ECB9
:1028300018F0760E2F6E040E306E59EC18F0CA0E9A
:102840002F6E040E306E59EC18F0D00E2F6E040E61
:10285000306E59EC18F0CA0E2F6E040E306E59EC23
:1028600018F00C0E496E050E4A6E94EC17F0B60E79
:102870002F6E030E306E59EC18F0280E2F6E040EDA
:10288000306E59EC18F0CE0E2F6E030E306E59ECF0
:1028900018F0100E2F6E040E306E59EC18F03D0E2D
:1028A000496E020E4A6E94EC17F004002BB85CEFF0
:1028B00014F090DE5DEF14F0A0DE3D0E496E030EC5
:1028C0004A6E94EC17F004002BA06AEF14F082DE3D
:1028D0006BEF14F092DE040048500008D8A4A1EF7A
:1028E00014F0030E496E050E4A6E94EC17F0D80EE4
:1028F0002F6E020E306E59EC18F0030E496E020E68
:102900004A6E94EC17F08C0E2F6E030E306E59EC5D
:1029100018F0030E496E030E4A6E94EC17F0D80EB1
:102920002F6E020E306E59EC18F0030E496E040E35
:102930004A6E94EC17F0D80E2F6E020E306E59ECE2
:1029400018F0040048500108D8A4D7EF14F0030E83
:10295000496E020E4A6E94EC17F0D80E2F6E020EDE
:10296000306E59EC18F0030E496E030E4A6E94EC6B
:1029700017F08C0E2F6E030E306E59EC18F0030E0C
:10298000496E040E4A6E94EC17F0D80E2F6E020EAC
:10299000306E59EC18F0030E496E050E4A6E94EC39
:1029A00017F0D80E2F6E020E306E59EC18F004009E
:1029B00048500208D8A40DEF15F0030E496E020E20
:1029C0004A6E94EC17F0D80E2F6E020E306E59EC52
:1029D00018F0030E496E030E4A6E94EC17F0D80EF1
:1029E0002F6E020E306E59EC18F0030E496E040E75
:1029F0004A6E94EC17F08C0E2F6E030E306E59EC6D
:102A000018F0030E496E050E4A6E94EC17F0D80EBE
:102A10002F6E020E306E59EC18F004004850030877
:102A2000D8A443EF15F0030E496E020E4A6E94ECE3
:102A300017F0D80E2F6E020E306E59EC18F0030E00
:102A4000496E030E4A6E94EC17F0D80E2F6E020EEC
:102A5000306E59EC18F0030E496E040E4A6E94EC79
:102A600017F0D80E2F6E020E306E59EC18F0030ED0
:102A7000496E050E4A6E94EC17F08C0E2F6E030E05
:102A8000306E59EC18F01200640EA4EC01F0E86A04
:102A900084A2E868146EE86A80BAE868166E14C00A
:102AA00002F01650EBEC01F0166E176E0400165093
:102AB0001710D8B45DEF15F0E7D7486AF0DEE86A82
:102AC00080AAE868146EE86A80B4E868166E14C0DC
:102AD00002F01650F2EC01F0166E176E040016505C
:102AE0001710D8B476EF15F010EF13F0040084B08F
:102AF00083EF15F0640EA4EC01F0040084B083EFC2
:102B000015F07AEF16F0040084B290EF15F0640E21
:102B1000A4EC01F0040084B290EF15F091EF15F0F1
:102B2000CED7640EA4EC01F0E86A84A2E868146EC3
:102B3000E86A80BAE868166E14C002F01650EBEC32
:102B400001F0166E176E040016501710D8B4AAEFD5
:102B500015F0E7D7010E486EA2DEE86A80AAE868A1
:102B6000146EE86A80B4E868166E14C002F016505D
:102B7000F2EC01F0166E176E040016501710D8B460
:102B8000C4EF15F010EF13F0040084B0D1EF15F08E
:102B9000640EA4EC01F0040084B0D1EF15F09EEFB8
:102BA00016F0040084B2DEEF15F0640EA4EC01F020
:102BB000040084B2DEEF15F0DFEF15F0CED7640E1F
:102BC000A4EC01F0E86A84A2E868146EE86A80BAAE
:102BD000E868166E14C002F01650EBEC01F0166EA9
:102BE000176E040016501710D8B4F8EF15F0E7D799
:102BF000020E486E54DEE86A80AAE868146EE86A3D
:102C000080B4E868166E14C002F01650F2EC01F0C1
:102C1000166E176E040016501710D8B412EF16F087
:102C200010EF13F0040084B01FEF16F0640EA4EC54
:102C300001F0040084B01FEF16F0C2EF16F004009C
:102C400084B22CEF16F0640EA4EC01F0040084B200
:102C50002CEF16F02DEF16F0CED7640EA4EC01F099
:102C6000E86A84A2E868146EE86A80BAE868166EBA
:102C700014C002F01650EBEC01F0166E176E040053
:102C800016501710D8B446EF16F0E7D7030E486E6B
:102C900006DEE86A80AAE868146EE86A80B4E8682C
:102CA000166E14C002F01650F2EC01F0166E176E9C
:102CB000040016501710D8B460EF16F010EF13F0A0
:102CC000040084B06DEF16F0640EA4EC01F0040073
:102CD00084B06DEF16F0FDEF16F0040084B279EFCA
:102CE00016F0640EA4EC01F0040084B279EF16F043
:102CF000CBD6CFD704002BB881EF16F02B8882EF0C
:102D000016F02B984FEC14F0640EA4EC01F0E86A76
:102D100084A0E868146EE86A80BAE868166E14C089
:102D200002F01650EBEC01F0166E176E0400165010
:102D30001710D8B49DEF16F0E7D7C1D604002BB01A
:102D4000A5EF16F02B80A6EF16F02B904FEC14F0A9
:102D5000640EA4EC01F0E86A84A0E868146EE86AE6
:102D600080BAE868166E14C002F01650EBEC01F061
:102D7000166E176E040016501710D8B4C1EF16F077
:102D8000E7D7EBD6010E056EF40EA5EC01F04F6A05
:102D90000400020E4F5CD8B0DDEF16F0828A949AE0
:102DA000140EA4EC01F0829A949A030E056EE80EBC
:102DB000A5EC01F04F2AD8A0EBD7010E056EF40E5A
:102DC000A5EC01F04F6A0400040E4F5CD8B0FCEF94
:102DD00016F08282949282809490FA0EA4EC01F014
:102DE0008292949282909490030E056EE80EA5EC68
:102DF00001F04F2AD8A0E7D7FED6640EA4EC01F06C
:102E0000E86A84A0E868146EE86A80BAE868166E1A
:102E100014C002F01650EBEC01F0166E176E0400B1
:102E200016501710D8B416EF17F0E7D7020E486EF9
:102E30005EEC17F0A4EC0FF027EF12F08198939856
:102E4000818893988196939681949394E20E566E1E
:102E5000B7EC19F0A20E566EB7EC19F0A00E566E34
:102E6000B7EC19F0C80E566EB7EC19F0A60E566EF8
:102E7000B7EC19F0240E566EB7EC19F0810E566EB1
:102E8000B7EC19F039C056F0B7EC19F02F0E566EAA
:102E9000B7EC19F0AF0E566EB7EC19F0818493942D
:102EA000120081949394810E566EB7EC19F039C0DC
:102EB00056F0B7EC19F081849394120081949394A6
:102EC000566A576A586A596A5A6A5B6A4A6A0400BB
:102ED000090E4A5CD8B08CEF17F081949394B00E31
:102EE0004A24566EB7EC19F0100E566EB7EC19F076
:102EF000566AB7EC19F081849394386A0400160E70
:102F0000385CD8B089EF17F077EC18F0382AD8A0E1
:102F1000F5D74A2AD8A0DBD7818493941200496A56
:102F20004A6A94EC17F0120081949394B00E4A24EC
:102F3000566EB7EC19F0120E4924146E156A153648
:102F4000060E1426000E15220F0E1414476E120ED4
:102F50004924146E156A1536060E1426000E152225
:102F6000F00E14143B6E3BC002F0036A040ED1EC69
:102F700001F03B6E100E3B24566EB7EC19F0000EBC
:102F80004724566EB7EC19F0818493941200819413
:102F90009394A70E566EB7EC19F0818493941200A7
:102FA00081949394A70E566EB7EC19F08184939494
:102FB000120081949394A60E566EB7EC19F081849A
:102FC0009394120081949394AF0E566EB7EC19F05F
:102FD00081849394120081949394AE0E566EB7EC54
:102FE00019F08184939412005650040D0908D8A05A
:102FF00027EF18F0F86A260EF324F66E300EF42050
:10300000F76E000EF8220900F550026E0900F55027
:10301000036E0800F550DFEC00F002C02FF003C093
:1030200030F027EF18F0380300003E03000044039F
:1030300000004A03000050030000560300005C0338
:10304000000062030000680300006E03000004003B
:1030500056502008D8A431EF18F0D80E2F6E020E6B
:10306000306E040056502108D8A43BEF18F0260E0D
:103070002F6E030E306E830E1F6E0F0E216E020E2A
:103080001D6E830E206E0F0E226E010E1E6E4350BB
:103090008AEC00F030508AEC00F02F508AEC00F0FF
:1030A000060E0B6EDA6A560E5FEC00F077EC18F045
:1030B0001200830E1F6E0F0E216E020E1D6E830E08
:1030C000206E0F0E226E010E1E6E43508AEC00F031
:1030D00030508AEC00F02F508AEC00F0060E0B6E98
:1030E000DA6A560E5FEC00F077EC18F01200819669
:1030F000939656BE818C56AE819C8182819256BC3D
:10310000818C56AC819C8182819256BA818C56AA60
:10311000819C8182819256B8818C56A8819C818243
:10312000819256B6818C56A6819C8182819256B43A
:10313000818C56A4819C8182819256B2818C56A248
:10314000819C8182819256B0818C56A0819C818223
:10315000819257BE818C57AE819C8182819257BCEF
:10316000818C57AC819C8182819257BA818C57AAFD
:10317000819C8182819257B8818C57A8819C8182E1
:10318000819257B6818C57A6819C8182819257B4D7
:10319000818C57A4819C8182819257B2818C57A2E5
:1031A000819C8182819257B0818C57A0819C8182C1
:1031B000819258BE818C58AE819C8182819258BC8C
:1031C000818C58AC819C8182819258BA818C58AA9A
:1031D000819C8182819258B8818C58A8819C81827F
:1031E000819258B6818C58A6819C8182819258B474
:1031F000818C58A4819C8182819258B2818C58A282
:10320000819C8182819258B0818C58A0819C81825E
:10321000819259BE818C59AE819C8182819259BC28
:10322000818C59AC819C8182819259BA818C59AA36
:10323000819C8182819259B8818C59A8819C81821C
:10324000819259B6818C59A6819C8182819259B410
:10325000818C59A4819C8182819259B2818C59A21E
:10326000819C8182819259B0818C59A0819C8182FC
:1032700081925ABE818C5AAE819C818281925ABCC5
:10328000818C5AAC819C818281925ABA818C5AAAD3
:10329000819C818281925AB8818C5AA8819C8182BA
:1032A00081925AB6818C5AA6819C818281925AB4AD
:1032B000818C5AA4819C818281925AB2818C5AA2BB
:1032C000819C818281925AB0818C5AA0819C81829A
:1032D00081925BBE818C5BAE819C818281925BBC62
:1032E000818C5BAC819C818281925BBA818C5BAA70
:1032F000819C818281925BB8818C5BA8819C818258
:1033000081925BB6818C5BA6819C818281925BB449
:10331000818C5BA4819C818281925BB2818C5BA257
:10332000819C818281925BB0818C5BA0819C818237
:103330008192818693961200830E1F6E0F0E216E6E
:10334000020E1D6E830E206E0F0E226E010E1E6E7B
:1033500043508AEC00F030508AEC00F02F508AEC99
:1033600000F06FEC00F0566EB7EC19F01200819689
:10337000939656BE818C56AE819C8182819256BCBA
:10338000818C56AC819C8182819256BA818C56AADE
:10339000819C8182819256B8818C56A8819C8182C1
:1033A000819256B6818C56A6819C8182819256B4B8
:1033B000818C56A4819C8182819256B2818C56A2C6
:1033C000819C8182819256B0818C56A0819C8182A1
:1033D0008192818693961200456A0400030E455C33
:1033E000D8B000EF1AF04550520FE96E000EEA6AAD
:1033F000EA22EFCF56F0F4EC17F0452AD8A0EDD72B
:103400001200456A0400020E455CD8B015EF1AF0B0
:103410004550520FE96E000EEA6AEA22EFCF56F0ED
:10342000F4EC17F0452AD8A0EDD712001EEC17F0E7
:103430005EEC17F04F6A0400080E4F5CD8B02CEF1A
:103440001AF02A0E496E4FC04AF094EC17F05668F5
:103450008EDF4F2AD8A0EFD7020E456E0400070E6C
:10346000455CD8B057EF1AF02B0E496E45C04AF0B4
:1034700094EC17F04F6A0400080E4F5CD8B053EF7D
:103480001AF0010E566E73DF010E566E70DF010EDC
:10349000566E6DDF010E566E6ADF010E566E67DFE7
:1034A0004F2AD8A0E8D7020E4526D8A0D7D7300E8D
:1034B000496E4A6A94EC17F0CC0E2F6E0E0E306EE9
:1034C00059EC18F0D20E2F6E0E0E306E59EC18F02B
:1034D000D80E2F6E0E0E306E59EC18F0DE0E2F6ED9
:1034E0000E0E306E59EC18F0E40E2F6E0E0E306E8C
:1034F00059EC18F0300E496E020E4A6E94EC17F03B
:10350000EA0E2F6E0E0E306E59EC18F0F00E2F6E84
:103510000E0E306E59EC18F0F60E2F6E0E0E306E49
:1035200059EC18F0FC0E2F6E0E0E306E59EC18F0A0
:10353000020E2F6E0F0E306E59EC18F0300E496EE1
:10354000040E4A6E94EC17F0600E2F6E110E306E62
:1035500059EC18F0660E2F6E110E306E59EC18F003
:103560006C0E2F6E110E306E59EC18F0720E2F6E1D
:10357000110E306E59EC18F0780E2F6E110E306E61
:1035800059EC18F0300E496E060E4A6E94EC17F0A6
:10359000080E2F6E0F0E306E59EC18F00E0E2F6EB7
:1035A0000F0E306E59EC18F0140E2F6E0F0E306E99
:1035B00059EC18F01A0E2F6E0F0E306E59EC18F0F1
:1035C000200E2F6E0F0E306E59EC18F0010E4F6E5C
:1035D0000400040E4F5CD8B009EF1BF0490E496E91
:1035E0004FC04AF094EC17F0020E566EC0DE050E86
:1035F000566EBDDE020E566EBADE566AB8DEAA0EF2
:103600002F6E030E306E59EC18F0020E4F26D8A024
:10361000DFD7490E496E070E4A6E94EC17F04F6AD9
:103620000400040E4F5CD8B01BEF1BF0566A9FDEFF
:103630004F2AD8A0F5D71C0E2F6E040E306E59EC11
:1036400018F012000A6AA10E046E070E056E010E34
:103650000EEC00F0CA843C6A04003C50445CD8A0E4
:1036600059EF1BF03C503C02F3CF14F0F4CF15F0AF
:103670003C505C08166E000ED8A0E804176E14C00B
:1036800002F015C003F016C004F017C005F0F7EC07
:1036900001F04F6E4FC00AF0A10E046E070E056ECA
:1036A000010E0EEC00F00F0EA4EC01F03C2AD8A0A5
:1036B000D3D7120044C03CF03C503C02F3CF14F08E
:1036C000F4CF15F03C505C08166E000ED8A0E8044C
:1036D000176E14C002F015C003F016C004F017C036
:1036E00005F0F7EC01F04F6E4FC00AF0A10E046E2A
:1036F000070E056E010E0EEC00F00F0EA4EC01F0AB
:103700003C06D8B0D9D7BD6ACA948294949412006A
:103710000400CAB48FEF1BF02B9290EF1BF02B82AA
:1037200012000400CAB496EF1BF08CDF1200200ECA
:103730003D6E470E4F6EBEEC1BF0210E3D6E070E28
:103740004F6EBEEC1BF0220E3D6E010E4F6EBEECB6
:103750001BF0320E3D6E020E4F6EBEEC1BF0330EB0
:103760003D6E0D0E4F6EBEEC1BF0300E3D6E6A0EC0
:103770004F6EBEEC1BF0F2EC1BF01200820E1F6EBF
:103780000F0E216E800E1D6E830E206E0F0E226EA8
:10379000100E1E6E40508AEC00F03D508AEC00F096
:1037A0004F5088EC00F01200820E1F6E0F0E216E3B
:1037B000800E1D6E830E206E0F0E226E100E1E6E7A
:1037C0003F508AEC00F03D508AEC00F06FEC00F0C6
:1037D0004F6E1200040083ACF1EF1BF0F2EC1BF013
:1037E0002A821200310E3D6EDFDF230E3D6EDCDFDC
:1037F0001200506A0400070E505CD8B042EF1CF073
:1038000050C03EF075EC21F00F0E4F14146E156A87
:10381000700E4F14166E176A16C002F017C003F030
:10382000040ED1EC01F0166E03C017F016C008F0BC
:1038300017C009F00A0E046E056A0FEC02F0166E4E
:1038400007C017F0145016244B6E04002BBC35EF44
:103850001CF0280E5024146E156A153614C0A9FFEA
:103860004B5096EC01F03FEF1CF0300E5024146EDC
:10387000156A153614C0A9FF4B5096EC01F0502A7A
:10388000D8A0B8D712000A0E506E0400370E505C54
:10389000D8B053EF1CF050C0A9FF000E96EC01F019
:1038A000502AD8A0F2D71200839A959A640EB1ECF0
:1038B00001F010EF13F0838A959AC80EA4EC01F082
:1038C000080E3E6E1E0E4F6E5FEC21F0486A04003B
:1038D000070E485CD8B082EF1CF004004850030883
:1038E000D8A475EF1CF0040E486E48C0A9FF8FECF9
:1038F00001F04B6E88EC1CF0050EA4EC01F0482A98
:10390000D8A0E5D7839A959A640EB1EC01F0120025
:1039100048C03EF0040048500008D8A4CDEF1CF089
:103920004BC002F0036A0A0E046E056AF7EC01F060
:10393000146E03C015F06F0E1416000E151614C089
:1039400002F015C003F0040EC9EC01F0146E03C0C0
:1039500015F04BC002F0036A0A0E046E056AF7EC1C
:1039600001F0166E03C017F016C008F017C009F07A
:103970000A0E046E056A0FEC02F0166E07C017F00F
:1039800016504B5C166EE86A1754176E14501624C6
:103990004F6E800E4F26AFEF1DF004004850010817
:1039A000D8A40EEF1DF04BC002F0036A0A0E046E9D
:1039B000056AF7EC01F0146E03C015F06F0E1416D3
:1039C000000E151614C002F015C003F0040EC9EC69
:1039D00001F0146E03C015F04BC002F0036A0A0E2A
:1039E000046E056AF7EC01F0166E03C017F016C0FE
:1039F00008F017C009F00A0E046E056A0FEC02F019
:103A0000166E07C017F016504B5C166EE86A175416
:103A1000176E145016244F6EAFEF1DF04850020879
:103A2000D8A4E868FF0A146E48500408D8A4E868CF
:103A3000FF0A166E14C002F01650F2EC01F0166E7A
:103A4000176E48500608D8A4E868FF0A186E16508A
:103A50001710026E1850F2EC01F0186E196E040087
:103A600018501910D8B470EF1DF04BC002F0036A63
:103A70000A0E046E056AF7EC01F0146E03C015F02F
:103A80000B0E1416000E151614C002F015C003F02C
:103A9000040EC9EC01F0146E03C015F04BC002F027
:103AA000036A0A0E046E056AF7EC01F0166E03C095
:103AB00017F016C008F017C009F00A0E046E056A68
:103AC0000FEC02F0166E07C017F016504B5C166E26
:103AD000E86A1754176E145016244F6EAFEF1DF09E
:103AE000040048500508D8A4AFEF1DF04BC002F009
:103AF000036A0A0E046E056AF7EC01F0146E03C047
:103B000015F0010E1416000E151614C002F015C0A3
:103B100003F0040EC9EC01F0146E03C015F04BC0A5
:103B200002F0036A0A0E046E056AF7EC01F0166EE5
:103B300003C017F016C008F017C009F00A0E046E93
:103B4000056A0FEC02F0166E07C017F016504B5CBA
:103B5000166EE86A1754176E145016244F6E5FECF9
:103B600021F01200838A959A5EEC17F0C80EA4EC3F
:103B700001F0120E496E010E4A6E94EC17F0020E1F
:103B80004F6E4FC0A9FF8FEC01F04B6E2AEC21F075
:103B90000400010E4F5CD8A0D4EF1DF0740E2F6E00
:103BA000030E306E59EC18F04F06D8B0EAD7120E5B
:103BB000496E020E4A6E94EC17F0040E4F6E04002C
:103BC000070E4F5CD8B0FBEF1DF04FC0A9FF8FEC84
:103BD00001F04B6E2AEC21F00400060E4F5CD8B0C9
:103BE000F8EF1DF02C0E2F6E030E306E59EC18F00E
:103BF0004F2AD8A0E4D7486A0400070E485CD8B022
:103C00009CEF1EF0040084B20AEF1EF0C80EA4EC74
:103C100001F0F8D7040048500308D8A412EF1EF0B2
:103C2000040E486E48C0A9FF8FEC01F04B6E120ED7
:103C3000496E4A6A94EC17F04850040D0608D8A063
:103C400049EF1EF0F86A760EF324F66E3C0EF4206F
:103C5000F76E000EF8220900F550026E0900F550CB
:103C6000036E0800F550DFEC00F002C02FF003C037
:103C700030F049EF1EF00A040000E6030000C8031C
:103C80000000B0030000B0030000E60300002E04B3
:103C9000000059EC18F0040048500008D8A457EF71
:103CA0001EF0360E496E010E4A6E94EC17F00400B9
:103CB00048500108D8A463EF1EF0240E496E010E8F
:103CC0004A6E94EC17F0040048500208D8A46FEF35
:103CD0001EF0120E496E010E4A6E94EC17F00400AD
:103CE00048500408D8A47BEF1EF0120E496E020E55
:103CF0004A6E94EC17F0040048500508D8A487EFEA
:103D00001EF0240E496E020E4A6E94EC17F0040069
:103D100048500608D8A493EF1EF0360E496E020EE6
:103D20004A6E94EC17F02AEC21F0D3EC1EF088ECEC
:103D30001CF0482AD8A060D7120E496E4A6A94EC4B
:103D400017F0D80E2F6E020E306E59EC18F0640E7C
:103D5000A4EC01F0040084B0B8EF1EF0030E056E71
:103D6000E80EA5EC01F0040084B0B8EF1EF001D716
:103D7000040084B2CCEF1EF0010E056EF40EA5EC2B
:103D800001F0040084B2C9EF1EF0CDEF1EF0CAEFBF
:103D90001EF0DDD7CDEF1EF0DAD7839A959A640E28
:103DA000B1EC01F01200640EA4EC01F0E86A84A208
:103DB000E868146EE86A84A0E868166E14C002F021
:103DC0001650F2EC01F0166E176E04001650171024
:103DD000D8B4ECEF1EF0E7D7040084B0E0EF1FF09A
:103DE0004B2A48500008D8A4E868FF0A146E4B50CC
:103DF0003C08D8A4E868FF0A166E14C002F01650FA
:103E0000EBEC01F0166E176E040016501710D8B4C4
:103E10000BEF1FF04B6A48500108D8A4E868FF0A6E
:103E2000146E4B503C08D8A4E868FF0A166E14C004
:103E300002F01650EBEC01F0166E176E04001650EF
:103E40001710D8B425EF1FF04B6A48500208D8A4C9
:103E5000E868FF0A146E4B501808D8A4E868FF0AF7
:103E6000166E14C002F01650EBEC01F0166E176ED1
:103E7000040016501710D8B43FEF1FF04B6A48509B
:103E80000408D8A4E868FF0A146E4B502008D8A490
:103E9000E868FF0A166E14C002F01650EBEC01F051
:103EA000166E176E040016501710D8B45AEF1FF094
:103EB000010E4B6E48500508D8A4E868FF0A146E3E
:103EC0004B500D08D8A4E868FF0A166E14C002F023
:103ED0001650EBEC01F0166E176E0400165017101A
:103EE000D8B475EF1FF0010E4B6E48500608D8A4E9
:103EF000E868FF0A146E4B501408D8A4E868FF0A5B
:103F0000166E14C002F01650EBEC01F0166E176E30
:103F1000040016501710D8B490EF1FF0090E4B6E26
:103F2000040048500008D8A49CEF1FF0360E496EDC
:103F3000010E4A6E94EC17F0040048500108D8A412
:103F4000A8EF1FF0240E496E010E4A6E94EC17F094
:103F5000040048500208D8A4B4EF1FF0120E496EB6
:103F6000010E4A6E94EC17F0040048500408D8A4DF
:103F7000C0EF1FF0120E496E020E4A6E94EC17F05D
:103F8000040048500508D8A4CCEF1FF0240E496E59
:103F9000020E4A6E94EC17F0040048500608D8A4AC
:103FA000D8EF1FF0360E496E020E4A6E94EC17F0F1
:103FB0002AEC21F0010E056EF40EA5EC01F00CD7F1
:103FC000040084B2F2EF1FF0C80EA4EC01F004006C
:103FD00084B2EFEF1FF0F3EF1FF0F0EF1FF0FCD60D
:103FE000F3EF1FF0F9D648C0A9FF4B5096EC01F053
:103FF00012005EEC17F0838A959A640EA4EC01F02F
:10400000040084B005EF20F0F8D7E86A80AAE868D9
:10401000146EE86A80B4E868166E14C002F0165098
:10402000F2EC01F0166E176E040016501710D8B49B
:104030001CEF20F054EF1CF0040084B03AEF20F0A5
:10404000070E056ED00EA5EC01F0040084B03AEF27
:1040500020F0B2EC1DF05EEC17F0838A959A640EA6
:10406000A4EC01F0640EA4EC01F0040084B23AEF79
:1040700020F0F8D7120E496E010E4A6E94EC17F03C
:10408000020E516E51C03EF075EC21F0040051500B
:104090000208D8A46FEF20F00F0E4F14146E156AAB
:1040A000300E4F14166E176A16C002F017C003F0D8
:1040B000040ED1EC01F0166E03C017F016C008F024
:1040C00017C009F00A0E046E056A0FEC02F0166EB6
:1040D00007C017F0145016244B6E90EF20F00F0E0F
:1040E0004F14146E156A700E4F14166E176A16C0B0
:1040F00002F017C003F0040ED1EC01F0166E03C0FD
:1041000017F016C008F017C009F00A0E046E056A11
:104110000FEC02F0166E07C017F0145016244B6E09
:104120002AEC21F00400010E515CD8A09EEF20F093
:10413000740E2F6E030E306E59EC18F05106D8B085
:10414000A1D7120E496E020E4A6E94EC17F0040EBF
:10415000516E0400070E515CD8B00EEF21F051C033
:104160003EF075EC21F0040051500508D8A4DCEFB6
:1041700020F00F0E4F14146E156A100E4F14166EA9
:10418000176A16C002F017C003F0040ED1EC01F05C
:10419000166E03C017F016C008F017C009F00A0E1B
:1041A000046E056A0FEC02F0166E07C017F014508B
:1041B00016244B6EFDEF20F00F0E4F14146E156A8F
:1041C000300E4F14166E176A16C002F017C003F0B7
:1041D000040ED1EC01F0166E03C017F016C008F003
:1041E00017C009F00A0E046E056A0FEC02F0166E95
:1041F00007C017F0145016244B6E2AEC21F004006F
:10420000060E515CD8B00BEF21F02C0E2F6E030E72
:10421000306E59EC18F0512AD8A09BD7040084B214
:1042200024EF21F0640EA4EC01F0040084B224EF2A
:1042300021F0839A959A640EB1EC01F05EEC17F0D0
:10424000A4EC0FF0D9EF11F0010E056EF40EA5EC01
:1042500001F0DBD64BC002F0036A0A0E046E056A59
:10426000F7EC01F0526E52C008F0096A0A0E046EB3
:10427000056A0FEC02F0146E07C015F014504B5C89
:10428000536E52500008D8A4E868FF0A146E4C50D0
:104290000208D8A4E868FF0A166E14C002F016508F
:1042A000EBEC01F0166E176E040016501710D8B420
:1042B0005CEF21F0200E526E01EC1AF01200820E1B
:1042C0001F6E0F0E216E800E1D6E830E206E0F0E60
:1042D000226E100E1E6E42508AEC00F03E508AECA8
:1042E00000F04F5088EC00F01200820E1F6E0F0E8F
:1042F000216E800E1D6E830E206E0F0E226E100E2C
:104300001E6E41508AEC00F03E508AEC00F06FECDB
:1043100000F04F6E1200340E496E050E4A6E94EC9A
:1043200017F0020E4C6E0400010E4C5CD8A0DAEFC0
:1043300021F04CC03EF0D9DF0F0E4F14146E156AF9
:10434000700E4F14166E176A16C002F017C003F0F5
:10435000040ED1EC01F0166E03C017F016C008F081
:1043600017C009F00A0E046E056A0FEC02F0166E13
:1043700007C017F0145016244B6E6CDF0400020EB9
:104380004C5CD8A0D7EF21F081849394566AB7ECA7
:1043900019F0360E566EB7EC19F0360E566EB7ECB5
:1043A00019F0566AB7EC19F0566AB7EC19F04C06DA
:1043B000D8B0B9D7120004002ABC21EF22F0830E36
:1043C0001F6E0F0E216E040E1D6E010E45EC01F0E6
:1043D000550E20EC01F04E0E20EC01F0000E20EC0A
:1043E00001F0000E20EC01F01F0E20EC01F042EC79
:1043F00001F040EC22F0FA0EA4EC01F056EC22F0B1
:104400004F2A50505508D8A4E868146E51505508EA
:10441000D8A4E868166E14C002F01650EBEC01F058
:10442000166E176E040016501710D8B41AEF22F04B
:104430001FEF22F00400050E4F5CD8A0C0D73DEF5F
:1044400022F0830E1F6E0F0E216E040E1D6E010EE4
:1044500045EC01F0550E20EC01F04E0E20EC01F081
:10446000000E20EC01F0000E20EC01F01F0E20ECFD
:1044700001F042EC01F040EC22F012002A8C120014
:10448000830E1F6E0F0E216E040E1D6E010E45EC85
:1044900001F0D8A0F3D7CC0E20EC01F0440E20ECB4
:1044A00001F042EC01F0D8A0E9D71200830E1F6E94
:1044B0000F0E216E040E1D6E010E45EC01F0D8A00A
:1044C000DDD7550E20EC01F0280E20EC01F0960E01
:1044D00020EC01F03A0E20EC01F04F0E20EC01F040
:1044E000010E20EC01F0000E20EC01F0000E20EC9B
:1044F00001F0F50E20EC01F0BE0E20EC01F042ECD4
:1045000001F0D8A0BBD7830E1F6E0F0E216E040ED4
:104510001D6E020E45EC01F0D8A0B0D7F8EC00F00B
:10452000336EF8EC00F0346E42EC01F0D8A0A6D760
:10453000F00E3314146E0F0E3414156E14C002F006
:1045400015C003F0040ED1EC01F0506E830E1F6E07
:104550000F0E216E040E1D6E010E45EC01F0D8A069
:104560008DD7550E20EC01F0280E20EC01F0E90E5D
:1045700020EC01F0890E20EC01F05F0E20EC01F040
:10458000010E20EC01F0000E20EC01F0000E20ECFA
:1045900001F0700E20EC01F0BE0E20EC01F042ECB8
:1045A00001F0D8A06BD7830E1F6E0F0E216E040E84
:1045B0001D6E020E45EC01F0D8A060D7F8EC00F0BB
:1045C000336EF8EC00F0346E42EC01F0D8A056D710
:1045D000F00E3314146E0F0E3414156E14C002F066
:1045E00015C003F0040ED1EC01F0516E12003A50E8
:1045F0000108D8A4E868FF0A146EE86A2ABCE868D3
:10460000166E14C002F01650EBEC01F0166E176E29
:10461000040016501710D8B410EF23F0CCDE2A8E09
:104620003A501308D8A4E868FF0A146EE86A2ABC56
:10463000E868166E14C002F01650EBEC01F0166E2E
:10464000176EE86A2ABEE868186E16501710026ED8
:104650001850EBEC01F0186E196E04001850191088
:10466000D8B451EF23F022DF50C035F051C036F0FE
:1046700050505508D8A4E868146E51505508D8A475
:10468000E868166E14C002F01650EBEC01F0166EDE
:10469000176E040016501710D8B451EF23F02A9C5F
:1046A0002A9E04003A501408D8A461EF23F03A6A15
:1046B000FDDE94EC24F0E4DE63EC23F02CDEAEECC3
:1046C00024F03A2A1200010E4E6E0400030E4E5CD6
:1046D000D8B02DEF24F04E504F0FE96E000EEA6A6D
:1046E000EA22EFCF14F004007E0E145CD8A093EF02
:1046F00023F04E504F0FE96E000EEA6AEA22EFCF28
:1047000014F014500008146E010ED8A0E804156EC1
:104710004E504F0FE96E000EEA6AEA2214C0EFFF16
:104720002B8694EF23F02B964E504F0FE96E000E20
:10473000EA6AEA22EFCF14F04E04166E176A000EF2
:10474000175A1650350FE96E000E1720EA6EEFCF9C
:1047500016F01650145C166E176AD8A0170617AE1E
:1047600003D0166CE86A175616C002F017C003F0A3
:10477000056A0A0ED6EC01F0D8A4D4EF23F04E045B
:10478000146E156A000E155A1450350FE96E000E9E
:104790001520EA6EEFCF14F04E504F0FE96E000E69
:1047A000EA6AEA2214C0EFFF4E504F0FE96E000E86
:1047B000EA6AEA22EFCF14F014C002F0036A020E94
:1047C000BCEC01F0526E4E504F0FE96E000EEA6ADB
:1047D000EA22EFCF14F014C002F0036A010EBCEC21
:1047E00001F0536E4E504F0FE96E000EEA6AEA2256
:1047F000EFCF14F014C002F0036A000EBCEC01F01D
:10480000546E04004E500108D8A40BEF24F0010EA2
:104810004A6E13EF24F004004E500208D8A413EFA0
:1048200024F0030E4A6E4E04166E176A000E175AD5
:104830004E504F0FE96E000EEA6AEA22EFCF14F0F5
:104840001650350FE96E000E1720EA6E14C0EFFF08
:104850002DEC24F04E2AD8A038D752500008D8A406
:10486000E868FF0A146E53500008D8A4E868FF0AED
:10487000166E14C002F01650EBEC01F0166E176EB7
:10488000040016501710D8B448EF24F0200E536ED1
:10489000040052500008D8A450EF24F0200E526EAD
:1048A00004002BA656EF24F0210E526E04002AAC11
:1048B00060EF24F0210E526E210E536E210E546EC5
:1048C00052502108D8A4E868FF0A146E5350050816
:1048D000D8A4E868FF0A166E14C002F01650EBEC7C
:1048E00001F0166E176E54500508D8A4E868FF0A48
:1048F000186E16501710026E1850EBEC01F0186E7F
:10490000196E040018501910D8B48DEF24F0210E40
:10491000526E210E536E210E546E360E496E94EC7B
:1049200017F0ECEC19F01200000E78EC01F0376E85
:1049300037C008F0096A750E046E056A0FEC02F0C4
:10494000146E07C015F014C002F015C003F0C80EB5
:10495000046E056AF7EC01F0376E120037C002F002
:10496000036A020EBCEC01F0526E37C002F0036A1B
:10497000010EBCEC01F0536E37C002F0036A000E6A
:10498000BCEC01F0546E040052500008D8A4CBEFE8
:1049900024F0200E526E340E496E070E4A6E94ECCF
:1049A00017F001EC1AF081849394400E566EB7EC28
:1049B00019F0566AB7EC19F054C056F0F4EC17F041
:1049C00012005EEC17F039EC0FF0486A0400060E96
:1049D000485CD8B0FBEF24F0828C949C960EA4EC3B
:1049E00001F0829C949C010E056E2C0EA5EC01F04A
:1049F000482AD8A0EBD7E86A84A2E868146EE86A6F
:104A000084A0E868166E14C002F01650EBEC01F0BA
:104A1000166E176E040016501710D8B411EF25F05B
:104A2000D4D75EEC17F02B84140E3A6E2D6A2E6AE2
:104A3000486A56EC22F040EC22F076DF16EC1AF0D1
:104A400086EC07F09F809D8067EC04F0D0EF06F0C5
:020000040030CA
:0300010088180F4D
:020005008581F3
:060008000FC00FE00F40E5
:0200000400F00A
:08000000003B17001F0C0F006C
:00000001FF
