:020000040000FA
:06000000006A30EF02F07F
:04000800D0EF03F042
:0800180033EF02F00F010B6E43
:10002000000E026E120E036E7A0E066E076AF9EC6F
:1000300001F00C6A035006E00C803CD8FC0F02E390
:100040000C8238D802060A3C03D0F468F36805D065
:100050000A50F46EF36A023C0A020F010B2E0DD017
:10006000BD50CF0BF3BEE88AF3BCE8880C09F4CF8F
:10007000BEFFBD6E94940D6A10D00B2E0DD0BA50F9
:10008000CF0BF3BEE88AF3BCE8880C09F4CFBBFFC2
:10009000BA6E94920D6A01D00AD00D2A0D2E09D0A5
:1000A000CA50FC0B0C10E88402C0CBFFCA6E2DEFC7
:1000B00002F0FDD703320232033202321200008C0A
:1000C00000AC009CD96E0B50D89020E00B2E03D0D2
:1000D00000BC05D800AC05D819E2DE6EF4D7008A62
:1000E00000AA009A00B603D0008640D827E2080E86
:1000F000056E50D80436052EFCD700AA2ED858D845
:1001000051D800BA1BD821D80450D8902DEF02F056
:10011000008A00AA009A00B405D0FE0B016E00848C
:10012000D8900AD000B805D0086E00881FD806E223
:10013000085023D803E200AA2DEF02F00ED838D8D9
:1001400000940098009601D8F7D721C0EAFF1F3C21
:10015000E96EE9881D50EC1208D021C0EAFF1FC0EB
:10016000E9FF1D1CEE16E988EC161200EEDF20D820
:10017000F4DF18D8015000B60109046E080E056EB0
:100180000436D8B0E2DFD8A0E8DF12D80BD8052EAD
:10019000F7D7DBDF0DD821C0EAFF1FC0E9FF1D50F4
:1001A000EF14FF0F22C0EAFF20C0E9FF1E1CDAD7C0
:1001B00022C0EAFF203CE96EE9881E50CCD7000936
:1001C00015E00A6E02C0E9FF03C0EAFF026A036A93
:1001D0000ABE07D0EE50026E0AA208D0EF50036E9E
:1001E00005D06EEC01F0EF14D8A4022A2DEF02F036
:1001F000080E01B4010E056E046A21C0EAFF1FC09B
:10020000E9FF1D1CEF16E988E92AEC16070EB1EC90
:1002100001F01D50EF12060EB1EC01F01D501FC091
:10022000E9FFEF14FF0F01A4043201B40436320ECB
:10023000B1EC01F0052EE5D70450D8802DEF02F087
:10024000046E080E01B4010E056E21C0EAFF1FC046
:10025000E9FF1D1CEF16E988E92AEC16060EB1EC41
:1002600001F01D500432D8B0EF12370EB1EC01F09E
:100270001D50EF12090EB1EC01F0052EE8D7D88021
:100280002DEF02F001A227D003D0016E01A023D0F0
:1002900021C0EAFF1F50120FE96E1D50EF121FC060
:1002A000E9FF1D1CEF16E988E92AEC16010E036E22
:1002B000E00EB2EC01F01D50EF12460EB1EC01F071
:1002C0001FC0E9FF1D50EF14D89006E1010E036E28
:1002D0009A0EB2EC01F0D8802DEF02F0010E0AB0B8
:1002E000E8440AB2E8440AB2E8440AB4E838120022
:1002F000E834E834FC0B0109C212C009C216C05030
:10030000F80B0309C06E000E036E320EB2EC01F062
:10031000C282C2B2FED7036AC4502DEF02F0A66AB1
:10032000A680A850A92A2DEF02F0E86AA86EA66A56
:10033000A684550EA76EAA0EA76EA682A6B2FED7F9
:10034000A694A92A2DEF02F0056A046EE86A040655
:10035000055AD8A02DEF02F0030E036EE70E02D867
:10036000F5D7036AFD0F026E01D00206040000D02B
:10037000E86A035AFAE21200096E0A0E046E056A70
:10038000F7EC01F00906FCE206501200D8900236A4
:100390000336FF0FFBE202502DEF02F0D89003323C
:1003A0000232FF0FFBE202502DEF02F0046E060E48
:1003B00002D0046E050E0A6E0550035C02E1045083
:1003C000025C040ED8B0010ED8B4020E0A14D8A4F0
:1003D000FF0E2DEF02F0E866FF0E0214D8A4FF0E08
:1003E0002DEF02F00210D8A4FF0E2DEF02F0076AE5
:1003F000066A100E086E0334063607360450065E91
:100400000550075A05E20450062605500722D890E9
:1004100002360336082EEFD702502DEF02F00450BB
:100420000802F3CF06F0F4CF07F005500902F3CF2E
:1004300002F0F4CF03F00802F3500726F450022232
:10044000E86A032204500902F3500726F4500222FE
:10045000E86A032206502DEF02F0000104001200AA
:100460001C6A34EF02F010002C92FFEF02F004003F
:100470002CB28AEF02F002C092F003C093F004C0E5
:1004800096F005C097F006C09AF007C09BF008C030
:100490009EF009C09FF00AC0A2F00BC0A3F00CC0F0
:1004A000A4F00DC0A5F00EC0A6F00FC0A7F010C0BC
:1004B000A8F011C0A9F012C0AAF013C0ABF000C0A0
:1004C000ACF001C0ADF01DC0AEF01EC0AFF01FC05B
:1004D000B0F020C0B1F0F8CFD0F0F7CFD3F0F6CF26
:1004E000D2F021C0B2F022C0B3F0F3CFD4F0F4CFF9
:1004F000D5F014C0B4F015C0B5F016C0B8F017C0F0
:10050000B9F018C0BCF019C0BDF01AC0C0F01BC0D3
:10051000C1F02C821CB494EF02F029C0FBFF28C06C
:10052000FAFF2750E06AF96E26C0FBFF25C0FAFFEC
:100530002450E06AF96E04002CA2EEEF02F092C0A3
:1005400002F093C003F096C004F097C005F09AC083
:1005500006F09BC007F09EC008F09FC009F0A2C043
:100560000AF0A3C00BF0A4C00CF0A5C00DF0A6C00B
:100570000EF0A7C00FF0A8C010F0A9C011F0AAC0DB
:1005800012F0ABC013F0ACC000F0ADC001F0AEC0D3
:100590001DF0AFC01EF0B0C01FF0B1C020F0D0C041
:1005A000F8FFD3C0F7FFD2C0F6FFB2C021F0B3C04E
:1005B00022F0D4C0F3FFD5C0F4FFB4C014F0B5C02E
:1005C00015F0B8C016F0B9C017F0BCC018F0BDC027
:1005D00019F0C0C01AF0C1C01BF02C921CB4F8EF87
:1005E00002F029C0FBFF28C0FAFF2750E06AF96E2D
:1005F00026C0FBFF25C0FAFF2450E06AF96E210EE9
:10060000396E470E446E2A80700ED36E9B8C0F0E8F
:10061000C16EB5EC03F0F26AF18CCA94816A826A09
:10062000836A846AA00E436E390E3F6E380E406EA8
:10063000DE0E426EDF0E416E2B8882869496818A92
:10064000939A23EC1BF01FEC17F05FEC17F05CECB7
:100650001CF02A982A9A2B9C2A9C2A9E9BEF04F035
:100660000F0EC16E2A922A9A2A882A942A963A6AEA
:100670002D6A2E6A506A818A939AFA0E65DE1FEC03
:1006800017F05FEC17F08BEC0BF004002BAE55EF7E
:1006900003F004002BB053EF03F05FEC17F0E1EC34
:1006A0000DF0838A959A57EF03F071EC0CF02C90C3
:1006B000120082869496818A939A0E0EC16EFA0E6B
:1006C00043DE1FEC17F05FEC17F04F6ADCEC21F013
:1006D00037EC0CF0040080A481EF03F00400CAA4FE
:1006E0007DEF03F044C00AF0A10E046E070E056E04
:1006F000010E0EEC00F07FEF03F023EC1BF085EF12
:1007000003F0BD6ACA9482949494838A959A030EE6
:10071000056EE80E1ADE5FEC17F004002BAC95EFC7
:1007200003F0E6EC0CF05FEC17F08BEC0BF05FECF9
:1007300017F04D6A140E3A6E2D6A2E6A2B8A2B948E
:100740002B90486A466A2A8A2A981BEC1AF062ECB7
:100750000AF02B9C95EC24F057EC22F050C035F0B9
:1007600051C036F0CEEC03F012003F0E926E010E37
:10077000936E946A400E956E070E966E1200926804
:10078000936894689568070E966E1200948E95880B
:100790001200949E959812009486120029EF04F09E
:1007A000FBCF8FF0FACF8DF0E9CF80F0EACF81F068
:1007B000E1CF84F0E2CF85F0D9CF88F0DACF89F0AD
:1007C0001C841C90E06A9DA0F3EF03F09EA0F3EF61
:1007D00003F01C800400E60E246E070E256E000E4A
:1007E000266E4FEF04F0E06A9DA00CEF04F09EA08F
:1007F0000CEF04F01C800400060E246E080E256E1B
:10080000000E266E34D6160E246E080E256E000ECF
:10081000266E2EEF04F09E90E06A1CB0E1EF03F02C
:100820002E0E246E080E256E000E266E84D61C94A5
:1008300080C0E9FF81C0EAFF84C0E1FF85C0E2FF1C
:1008400088C0D9FF89C0DAFF8DC0FAFF8FC0FBFFD7
:100850001100F28EF28C300ECD6E120034EC07F0E7
:10086000F5EC06F0F8EC22F0C5EC07F004003A5085
:100870000108D8B43EEF04F087EC07F01CB448EF51
:1008800004F029C0FBFF28C0FAFF2750E06AF96E88
:1008900026C0FBFF25C0FAFF2450E06AF96ECD9018
:1008A000B10ECE26D8B0CF2A3C0ECF26CD801CB4B8
:1008B00061EF04F029C0FBFF28C0FAFF2750E06A6F
:1008C000F96E26C0FBFF25C0FAFF2450E06AF96EDE
:1008D000B10ECE6E3C0ECF6ECD801200CD901200C8
:1008E000030E496E4A6A95EC17F0DC0E2F6E040E6B
:1008F000306E5AEC18F0010E526E536A546A52C0B0
:1009000056F0F5EC17F081849394400E566EB8ECD7
:1009100019F0566AB8EC19F053C056F0F5EC17F020
:10092000040054500008D8B49AEF04F054C056F0B4
:10093000F5EC17F01200040080BAA8EF04F00400F0
:100940002AB8A4EF04F08CDEB2EF04F0B2EF04F0AA
:1009500004002ABAADEF04F0ACDE9F809D80B8DFC2
:10096000D1EF06F004002BBEC2EF04F004002CA06F
:10097000BEEF04F0D3EF04F0C0EF04F0C4EF04F0D6
:10098000C4EF04F0DFEF04F082969496070E056E34
:10099000D00EA5EC01F02B9C0400CAA4D2EF04F009
:1009A0005BEC1BF02C80CA94816A826AE8DE100E30
:1009B000F26ECA9403000000F26AD7DEBCD70400CE
:1009C0002AB4E7EF04F02BEF05F0E9EF04F0E9EFCC
:1009D00004F0DCDE04002BB00EEF05F04F6A0400DB
:1009E000060E4F5CD8B005EF05F0040080AAFBEFBF
:1009F00004F029EF05F0040083AC01EF05F045EFAA
:100A000005F003004F2AD8A0EAD783869596190EE1
:100A1000A4EC01F0839695969586DCD7040080AA15
:100A200014EF05F029EF05F00300DAEC17F08282ED
:100A3000949282809490040080AA21EF05F029EF1F
:100A400005F003008292949282909490D1EC17F07A
:100A5000C1D78BDE70D7040080AA30EF05F0F9D73C
:100A600004002BB036EF05F01FEC0EF05FEC17F032
:100A700067EC05F004002BB044EF05F098EC1BF098
:100A800044EC1CF0F3EC1BF0E4D783DEC4EC05F07F
:100A9000030E056EE80EA5EC01F0C4EC05F02A92F9
:100AA000030E056EE80EA5EC01F0F3EC1BF0030E4F
:100AB000056EE80EA5EC01F0EBEC1BF004002AA299
:100AC00066EF05F091EF05F067EF05F082D72A8415
:100AD0002B9C04002BB083EF05F0828094908282DF
:100AE0009492828A949A140EA4EC01F0829A949AB9
:100AF000F8EC0BF0FA0EA4EC01F082909490829244
:100B0000949285EF05F0AFEC0CF00400CAA48BEFD3
:100B100005F05BEC1BF0CA9482969496CA943CDE76
:100B20001200FAEC1BF004002BAC99EF05F0DBEFA0
:100B300005F04F6A0400060E4F5CD8B0AFEF05F029
:100B4000040080AAA5EF05F084D7C4EC05F0080ED8
:100B5000056ECA0EA5EC01F04F2AD8A0EBD718EC11
:100B600006F02B8C4F6A0400040E4F5CD8B0C3EF24
:100B700005F0040080AABEEF05F06BD7F1EC05F09C
:100B80004F2AD8A0F0D725D7828A949A8386959643
:100B90008282949282809490320EA4EC01F0829A28
:100BA000949A83969596C80EA4EC01F08292949242
:100BB0008290949012002A864F6A04000A0E4F5CBD
:100BC000D8B0EDEF05F0040080AAE8EF05F041D7BA
:100BD000F1EC05F04F2AD8A0F0D718EC06F01CEF86
:100BE00006F08292949282809490828A949A83866C
:100BF0009596FA0EA4EC01F08290949082829492E1
:100C0000FA0EA4EC01F0829A949A839695968292B9
:100C1000949282809490FA0EA4EC01F082909490C9
:100C200082829492FA0EA4EC01F0829294921200C5
:100C3000F3EC1BF02A9212003C6A0400040E3C5CA8
:100C4000D8B075EF06F04F6A0400040E4F5CD8B0C0
:100C50004BEF06F0040080AA2FEF06F0FAD6828050
:100C6000949082829492010E056EF40EA5EC01F030
:100C70008290949082929492010E056EF40EA5ECEF
:100C800001F0EBEC1BF004002AA248EF06F049D774
:100C90004F2AD8A0D9D7040080AA50EF06F0D9D6A1
:100CA0008280949082829492010E056EF40EA5ECDF
:100CB00001F08290949082929492FA0EA4EC01F04A
:100CC000828A949A83869596FA0EA4EC01F0839614
:100CD0009596829A949AEBEC1BF004002AA272EF8C
:100CE00006F01FD73C2AD8A0A8D73C6A0400030E00
:100CF0003C5CD8B0D0EF06F04F6A0400050E4F5CA4
:100D0000D8B0A4EF06F0040080AA88EF06F0A1D6C0
:100D10008280949082829492010E056EF40EA5EC6E
:100D200001F08290949082929492050E056EDC0EF2
:100D3000A5EC01F0EBEC1BF004002AA2A1EF06F0F9
:100D4000F0D64F2AD8A0D9D7040080AAA9EF06F080
:100D500080D68280949082829492010E056EF40E69
:100D6000A5EC01F08290949082929492040E056E0C
:100D7000E20EA5EC01F0828A949A83869596FA0E8B
:100D8000A4EC01F083969596829A949AEBEC1BF072
:100D900004002AA2CDEF06F0C4D63C2AD8A0A6D7DC
:100DA00018D6040080BADAEF06F09D906EEC04F0DD
:100DB0009BEF04F0E86A80A4E868146EE86A84A2F5
:100DC000E868166E14C002F01650EBEC01F0166ED7
:100DD000176E040016501710D8B4F1EF06F0EDEFBF
:100DE0000AF0FA0EA4EC01F0DCD7040080B8FDEFA5
:100DF00006F03FEC07F033EF07F0040080B405EF96
:100E000007F04AEC07F033EF07F0E86A80A2E868E1
:100E1000146EE86A2BBAE868166E14C002F0165019
:100E2000EBEC01F0166E176E040016501710D8B4D4
:100E30001CEF07F061EC07F0E86A80A6E868146E22
:100E4000E86A2BBAE868166E14C002F01650EBEC94
:100E500001F0166E176E040016501710D8B433EF59
:100E600007F06FEC07F01200D890463680B4468049
:100E700080A4469046BE2B8E46AE2B9E12000400E8
:100E80004D500008D8B449EF07F062EC0AF04D6A03
:100E90002B8A1200E86A80B2E868146EE86A80B6AD
:100EA000E868166E14C002F01650EBEC01F0166EF6
:100EB000176E040016501710D8B460EF07F02B8A95
:100EC00012002B842B9A0400020E4D5CD8B06DEFFB
:100ED00007F0010E4D6E6EEF07F04D0612002B84E9
:100EE0002B9A0400050E4D5CD8A07BEF07F0060E90
:100EF0004D6E86EF07F004004D500008D8A485EF32
:100F000007F0020E4D6E86EF07F04D2A1200040026
:100F10002BA4C4EF07F02B9404004D500608D8A46E
:100F200094EF07F0F7EC09F004004D500508D8A441
:100F30009CEF07F08CEC09F004004D500408D8A495
:100F4000A4EF07F021EC09F004004D500308D8A4E9
:100F5000ACEF07F0B4EC08F004004D500208D8A440
:100F6000B4EF07F049EC08F004004D500108D8A494
:100F7000BCEF07F0E3EC07F004004D500008D8A4E4
:100F8000C4EF07F062EC0AF0120004002BB8E2EFA5
:100F900007F0580E026E020E036E2EC005F02D50A3
:100FA000D9EC01F0D8A4DFEF07F02D6A2E6A9D90EE
:100FB00017EC1AF09F809D802B84E2EF07F02D2A1A
:100FC000000E2E2212004F6A0400060E4F5CD8B0AD
:100FD00046EF08F0060E496E4F284A6E95EC17F062
:100FE0004F500008D8A4E868FF0A146E4F5002085A
:100FF000D8A4E868FF0A166E14C002F01650F2EC8E
:1010000001F0166E176E4F500308D8A4E868FF0A67
:10101000186E16501710026E1850F2EC01F0186E90
:10102000196E4F500408D8A4E868FF0A1A6E1850C9
:101030001910026E1A50F2EC01F01A6E1B6E0400C9
:101040001A501B10D8B42BEF08F0180E316E020E98
:10105000326ECFEC0AF004004F500108D8A437EFED
:1010600008F0380E316E020E326ECFEC0AF004003A
:101070004F500508D8A443EF08F0580E316E020E09
:10108000326ECFEC0AF04F2AD8A09ED790EC17F022
:1010900012004F6A0400060E4F5CD8B0B1EF08F0A2
:1010A000060E496E4F284A6E95EC17F04F50000817
:1010B000D8A4E868FF0A146E4F500208D8A4E86864
:1010C000FF0A166E14C002F01650F2EC01F0166E14
:1010D000176E4F500508D8A4E868FF0A186E16501E
:1010E0001710026E1850F2EC01F0186E196E040021
:1010F00018501910D8B483EF08F0F80E316E010EB5
:10110000326ECFEC0AF004004F500108D8A48FEFE4
:1011100008F0780E316E020E326ECFEC0AF04F50AE
:101120000308D8A4E868FF0A146E4F500408D8A436
:10113000E868FF0A166E14C002F01650F2EC01F0D7
:10114000166E176E040016501710D8B4AEEF08F0E4
:10115000980E316E020E326ECFEC0AF04F2AD8A0F4
:1011600099D790EC17F012004F6A0400060E4F5CFE
:10117000D8B01EEF09F0060E496E4F284A6E95EC66
:1011800017F04F500008D8A4E868FF0A146E4F50BB
:101190000208D8A4E868FF0A166E14C002F01650C0
:1011A000F2EC01F0166E176E4F500508D8A4E868EF
:1011B000FF0A186E16501710026E1850F2EC01F06C
:1011C000186E196E040018501910D8B4EEEF08F01C
:1011D000F80E316E010E326ECFEC0AF04F5001085E
:1011E000D8A4E868FF0A146E4F500308D8A4E86832
:1011F000FF0A166E14C002F01650F2EC01F0166EE3
:10120000176E4F500408D8A4E868FF0A186E1650ED
:101210001710026E1850F2EC01F0186E196E0400EF
:1012200018501910D8B41BEF09F0780E316E020E69
:10123000326ECFEC0AF04F2AD8A097D790EC17F077
:1012400012004F6A0400060E4F5CD8B089EF09F017
:10125000060E496E4F284A6E95EC17F04F50000865
:10126000D8A4E868FF0A146E4F500108D8A4E868B3
:10127000FF0A166E14C002F01650F2EC01F0166E62
:10128000176E040016501710D8B44DEF09F0B80EC1
:10129000316E020E326ECFEC0AF004004F5002089D
:1012A000D8A459EF09F0F80E316E010E326ECFEC72
:1012B0000AF04F500308D8A4E868FF0A146E4F5094
:1012C0000408D8A4E868FF0A166E14C002F016508D
:1012D000F2EC01F0166E176E4F500508D8A4E868BE
:1012E000FF0A186E16501710026E1850F2EC01F03B
:1012F000186E196E040018501910D8B486EF09F052
:10130000780E316E020E326ECFEC0AF04F2AD8A062
:1013100099D790EC17F012004F6A0400060E4F5C4C
:10132000D8B0F4EF09F0060E496E4F284A6E95ECDE
:1013300017F04F500008D8A4E868FF0A146E4F5009
:101340000208D8A4E868FF0A166E14C002F016500E
:10135000F2EC01F0166E176E4F500508D8A4E8683D
:10136000FF0A186E16501710026E1850F2EC01F0BA
:10137000186E196E040018501910D8B4C6EF09F091
:10138000F80E316E010E326ECFEC0AF004004F50B1
:101390000108D8A4D2EF09F0980E316E020E326E19
:1013A000CFEC0AF04F500308D8A4E868FF0A146E87
:1013B0004F500408D8A4E868FF0A166E14C002F063
:1013C0001650F2EC01F0166E176E0400165017104E
:1013D000D8B4F1EF09F0780E316E020E326ECFEC18
:1013E0000AF04F2AD8A099D790EC17F012004F6A54
:1013F0000400060E4F5CD8B05FEF0AF0060E496E8F
:101400004F284A6E95EC17F04F500008D8A4E868B2
:10141000FF0A146E4F500208D8A4E868FF0A166E3F
:1014200014C002F01650F2EC01F0166E176E4F5019
:101430000508D8A4E868FF0A186E16501710026E47
:101440001850F2EC01F0186E196E040018501910C3
:10145000D8B431EF0AF0F80E316E010E326ECFECD7
:101460000AF004004F500108D8A43DEF0AF0980E8E
:10147000316E020E326ECFEC0AF04F500308D8A442
:10148000E868FF0A146E4F500408D8A4E868FF0A01
:10149000166E14C002F01650F2EC01F0166E176EC4
:1014A000040016501710D8B45CEF0AF0B80E316E75
:1014B000020E326ECFEC0AF04F2AD8A099D790ECEA
:1014C00017F012004F6A0400060E4F5CD8B0CCEF44
:1014D0000AF0060E496E4F284A6E95EC17F04F50F1
:1014E0000008D8A4E868FF0A146E4F500508D8A475
:1014F000E868FF0A166E14C002F01650F2EC01F014
:10150000166E176E040016501710D8B48EEF0AF03E
:10151000F80E316E010E326ECFEC0AF04F5001081A
:10152000D8A4E868FF0A146E4F500208D8A4E868EF
:10153000FF0A166E14C002F01650F2EC01F0166E9F
:10154000176E4F500308D8A4E868FF0A186E1650AB
:101550001710026E1850F2EC01F0186E196E4F5011
:101560000408D8A4E868FF0A1A6E18501910026E11
:101570001A50F2EC01F01A6E1B6E04001A501B1088
:10158000D8B4C9EF0AF0B80E316E020E326ECFEC4D
:101590000AF04F2AD8A097D790EC17F012003C6AB7
:1015A0000400050E3C5CD8B0ECEF0AF03CC008F03B
:1015B000096A060E046E056A0FEC02F0146E07C08D
:1015C00015F0315014242F6E32501520306E5AEC25
:1015D00018F03C2AD8A0E4D71200E86A84A2E86890
:1015E000146EE86A84A0E868166E14C002F0165003
:1015F000EBEC01F0166E176E4D500008D8A4E868A9
:10160000186E16501710026E1850EBEC01F0186EA1
:10161000196E040018501910D8B43BEF0BF0010EEE
:10162000056EF40EA5EC01F0E86A84A2E868146E79
:10163000E86A84A0E868166E14C002F01650EBEC5D
:1016400001F0166E176E4D500008D8A4E868186EA9
:1016500016501710026E1850EBEC01F0186E196E50
:10166000040018501910D8B43BEF0BF09D906EECAD
:1016700004F0E2EF24F0E86A84A2E868146EE86AF5
:1016800084B0E868166E14C002F01650EBEC01F05E
:10169000166E176E4D500008D8A4E868FF0A186E41
:1016A00016501710026E1850EBEC01F0186E196E00
:1016B000040018501910D8B489EF0BF0FA0EA4ECFE
:1016C00001F0E86A84A2E868146EE86A84B0E86809
:1016D000166E14C002F01650EBEC01F0166E176E89
:1016E0004D500008D8A4E868FF0A186E165017106D
:1016F000026E1850EBEC01F0186E196E04001850D1
:101700001910D8B489EF0BF09D906EEC04F078EFCF
:101710000FF09BEF04F0496A4A6A95EC17F04F6AA4
:101720005FEC17F0516A0400060E515CD8B0F6EF7A
:101730000BF0506A0400030E505CD8B0F3EF0BF0CE
:10174000456A0400060E455CD8B0EEEF0BF04FC0C2
:1017500049F045502AB0010F4A6E95EC17F03C6AEB
:101760000400080E3C5CD8B0EBEF0BF03CC008F076
:10177000096A060E046E056A0FEC02F0146E07C0CB
:1017800015F06C0E14260B0E152245C008F0096AE0
:10179000300E046E056A0FEC02F0166E07C017F0EB
:1017A000145016261550172250C008F0096A200E52
:1017B000046E010E056E0FEC02F0186E07C019F0F2
:1017C000165018242F6E17501920306E5AEC18F04E
:1017D0003C2AD8A0C5D7452AD8A0B3D7020E4F2699
:1017E000502AD8A0A7D7512AD8A09DD74F6A120057
:1017F000456A0400060E455CD8B036EF0CF0120EB8
:10180000496E45502AB0010F4A6E95EC17F03C6ABC
:101810000400080E3C5CD8B033EF0CF03CC008F07C
:10182000096A060E046E056A0FEC02F0146E07C01A
:1018300015F0180E1426050E152245C008F0096A89
:10184000300E046E056A0FEC02F0166E07C017F03A
:10185000145016242F6E15501720306E5AEC18F0C5
:101860003C2AD8A0D5D7452AD8A0C3D71200456AAC
:101870000400060E455CD8B070EF0CF0496A455084
:101880002AB0010F4A6E95EC17F03C6A04000E0E68
:101890003C5CD8B06DEF0CF03CC008F0096A060E55
:1018A000046E056A0FEC02F0146E07C015F045C017
:1018B00008F0096A540E046E056A0FEC02F0166E09
:1018C00007C017F0145016242F6E15501720306ED5
:1018D0005AEC18F03C2AD8A0D9D7452AD8A0C8D7A6
:1018E0001200456A0400060E455CD8B0AEEF0CF05D
:1018F000496A45502AB0010F4A6E95EC17F03C6AD0
:1019000004000E0E3C5CD8B0ABEF0CF03CC008F00D
:10191000096A060E046E056A0FEC02F0146E07C029
:1019200015F0740E1426090E152245C008F0096A38
:10193000540E046E056A0FEC02F0166E07C017F025
:10194000145016242F6E15501720306E5AEC18F0D4
:101950003C2AD8A0D5D7452AD8A0C4D712003C6AC3
:101960000400360E3C5CD8B0E5EF0CF0456A04008C
:10197000060E455CD8B0E2EF0CF00F0E3C24496E29
:1019800045502AB0010F4A6E95EC17F045C008F09B
:10199000096A360E046E056A0FEC02F0316E07C05C
:1019A00032F03C503124146EE86A3220156E380E45
:1019B00014242F6E060E1520306E9DEC19F0452A6A
:1019C000D8A0D5D73C2AD8A0CBD712005FEC17F00F
:1019D0003C6A0400360E3C5CD8B01EEF0DF0456A40
:1019E0000400060E455CD8B01BEF0DF00F0E3C2432
:1019F000496E45502AB0010F4A6E95EC17F045C06C
:101A000008F0096A360E046E056A0FEC02F0316EBA
:101A100007C032F03C503124146EE86A3220156E53
:101A2000380E14242F6E060E1520306E9DEC19F022
:101A3000452AD8A0D5D73C2AD8A0CBD7010E056E11
:101A4000F40EA5EC01F04F6A0400040E4F5CD8B010
:101A50003BEF0DF0C8EC17F0010E056EF40EA5EC8F
:101A600001F0DAEC17F0010E056EF40EA5EC01F0B2
:101A70004F2AD8A0E9D75FEC17F0120E496E010E7D
:101A80004A6E95EC17F0020E506E280E5024146E1C
:101A9000156A153614C0A9FF8FEC01F04B6E2BECC4
:101AA00021F00400010E505CD8A05DEF0DF0740E23
:101AB0002F6E030E306E5AEC18F05006D8B0E5D7F2
:101AC000120E496E020E4A6E95EC17F0040E506E1F
:101AD0000400070E505CD8B089EF0DF0280E50249A
:101AE000146E156A153614C0A9FF8FEC01F04B6E09
:101AF0002BEC21F00400060E505CD8B086EF0DF000
:101B00002C0E2F6E030E306E5AEC18F0502AD8A00F
:101B1000DFD704002AA6D9EF0DF0120E496E040E8D
:101B20004A6E95EC17F0020E506E300E5024146E73
:101B3000156A153614C0A9FF8FEC01F04B6E2BEC23
:101B400021F00400010E505CD8A0ADEF0DF0740E32
:101B50002F6E030E306E5AEC18F05006D8B0E5D751
:101B6000120E496E050E4A6E95EC17F0040E506E7B
:101B70000400070E505CD8B0D9EF0DF0300E5024A1
:101B8000146E156A153614C0A9FF8FEC01F04B6E68
:101B90002BEC21F00400060E505CD8B0D6EF0DF00F
:101BA0002C0E2F6E030E306E5AEC18F0502AD8A06F
:101BB000DFD73A0E056E980EA5EC01F05FEC17F03A
:101BC0001200456A0400060E455CD8B01EEF0EF008
:101BD000496A45502AB0010F4A6E95EC17F03C6AED
:101BE00004000E0E3C5CD8B01BEF0EF03CC008F0B9
:101BF000096A060E046E056A0FEC02F0146E07C047
:101C000015F07C0E1426070E152245C008F0096A4F
:101C1000540E046E056A0FEC02F0166E07C017F042
:101C2000145016242F6E15501720306E5AEC18F0F1
:101C30003C2AD8A0D5D7452AD8A0C4D712003C6AE0
:101C40004F6A0400190E4F5CD8B058EF0EF0040034
:101C500080AA2DEF0EF09BEF04F0050E3C24496E98
:101C6000030E2AB0010F4A6E95EC17F0818493940D
:101C70005668B8EC19F0B8EC19F0B8EC19F0050E8C
:101C80003C24496E040E2AB0010F4A6E95EC17F001
:101C9000818493945668B8EC19F0B8EC19F0B8EC5C
:101CA00019F090EC17F0030E3C264F2AD8A0C9D7A4
:101CB000190E506E2A0E496E010E2AB0010F4A6E9F
:101CC00095EC17F0D80E2F6E020E306E5AEC18F00D
:101CD000D80E2F6E020E306E5AEC18F02A0E496E96
:101CE000010E2AB0010F4A6E95EC17F0440E2F6ECC
:101CF000030E306E5AEC18F0560E2F6E030E306E37
:101D00005AEC18F0030E056EE80EA5EC01F0500633
:101D1000200E546E50C002F0036A000EBCEC01F0BD
:101D2000536E50C002F0036A010EBCEC01F0526E1B
:101D3000040052500008D8A4A0EF0EF0200E526EFE
:101D40002A0E496E010E2AB0010F4A6E95EC17F06B
:101D500002EC1AF04D0E496E030E2AB0010F4A6EC6
:101D600095EC17F081849394010E566EB8EC19F03F
:101D7000B8EC19F05668B8EC19F04D0E496E040E27
:101D80002AB0010F4A6E95EC17F081849394800E6F
:101D9000566EB8EC19F0B8EC19F05668B8EC19F0BA
:101DA00090EC17F0490E3C6E4F6A0400180E4F5C21
:101DB000D8B034EF0FF0040080AAE1EF0EF09BEFF3
:101DC00004F0030E056EE80EA5EC01F05006200E9F
:101DD000546E50C002F0036A000EBCEC01F0536E6A
:101DE00050C002F0036A010EBCEC01F0526E040018
:101DF00052500008D8A4FFEF0EF0200E526E2A0EAB
:101E0000496E010E2AB0010F4A6E95EC17F002ECF4
:101E10001AF03C28496E030E2AB0010F4A6E95EC69
:101E200017F081849394010E566EB8EC19F0B8EC5B
:101E300019F0B8EC19F03C28496E040E2AB0010FD5
:101E40004A6E95EC17F081849394800E566EB8EC30
:101E500019F0B8EC19F0B8EC19F090EC17F0030E8B
:101E60003C5E4F2AD8A0A1D7030E056EE80EA5EC64
:101E700001F01200456A0400060E455CD8B077EF09
:101E80000FF0496A45502AB0010F4A6E95EC17F0E1
:101E90003C6A04000E0E3C5CD8B074EF0FF03CC0FE
:101EA00008F0096A060E046E056A0FEC02F0146E63
:101EB00007C015F0680E14260F0E152245C008F055
:101EC000096A540E046E056A0FEC02F0166E07C024
:101ED00017F0145016242F6E15501720306E5AEC40
:101EE00018F03C2AD8A0D5D7452AD8A0C4D71200CC
:101EF00089EC1BF05FEC17F083869596640EA4ECDA
:101F000001F08396959692EC1BF0A5EC0FF00A0E6B
:101F1000A4EC01F0E86A84A2E868146EE86A80BA6A
:101F2000E868166E14C002F01650EBEC01F0166E65
:101F3000176E040016501710D8B4A0EF0FF0E7D7B3
:101F4000640EA4EC01F0A8EF11F05FEC17F0150E91
:101F5000496E4A6A95EC17F0F20E2F6E030E306E42
:101F60005AEC18F0F80E2F6E030E306E5AEC18F083
:101F7000100E2F6E040E306E5AEC18F0CE0E2F6E2F
:101F8000030E306E5AEC18F0F20E2F6E030E306E08
:101F90005AEC18F0EC0E2F6E030E306E5AEC18F05F
:101FA0000A0E2F6E040E306E5AEC18F00B0E496EAE
:101FB000010E4A6E95EC17F0080E2F6E030E306E70
:101FC0005AEC18F0A40E2F6E030E306E5AEC18F077
:101FD000260E2F6E030E306E5AEC18F03E0E2F6E4A
:101FE000030E306E5AEC18F05C0E2F6E030E306E3E
:101FF0005AEC18F0D80E2F6E020E306E5AEC18F014
:1020000075EC04F00E0E2F6E030E306E5AEC18F0C5
:102010000C0E496E020E4A6E95EC17F0E00E2F6E14
:10202000030E306E5AEC18F08E0E2F6E040E306ECA
:102030005AEC18F0820E2F6E040E306E5AEC18F027
:10204000880E2F6E040E306E5AEC18F0D00E2F6EE4
:10205000040E306E5AEC18F0CA0E2F6E040E306E5D
:102060005AEC18F0D80E2F6E020E306E5AEC18F0A3
:102070000C0E496E030E4A6E95EC17F0AA0E2F6EE9
:10208000030E306E5AEC18F0A00E2F6E040E306E58
:102090005AEC18F0B20E2F6E040E306E5AEC18F097
:1020A0006A0E2F6E040E306E5AEC18F09A0E2F6ED8
:1020B000040E306E5AEC18F00C0E496E040E4A6E87
:1020C00095EC17F0AA0E2F6E030E306E5AEC18F036
:1020D000B20E2F6E040E306E5AEC18F0AC0E2F6E4E
:1020E000040E306E5AEC18F07C0E2F6E040E306E1B
:1020F0005AEC18F08E0E2F6E040E306E5AEC18F05B
:10210000820E2F6E040E306E5AEC18F00C0E496ED3
:10211000050E4A6E95EC17F0B60E2F6E030E306E5C
:102120005AEC18F0280E2F6E040E306E5AEC18F090
:10213000CE0E2F6E030E306E5AEC18F0100E2F6E6E
:10214000040E306E5AEC18F03D0E496E020E4A6EC7
:1021500095EC17F004002BA2B2EF10F0EBEC12F0AC
:10216000B4EF10F0FEEC12F0040048500008D8A4C0
:10217000EAEF10F0030E496E050E4A6E95EC17F06B
:10218000D80E2F6E020E306E5AEC18F0030E496E08
:10219000020E4A6E95EC17F08C0E2F6E030E306E09
:1021A0005AEC18F0030E496E030E4A6E95EC17F0C8
:1021B000D80E2F6E020E306E5AEC18F0030E496ED8
:1021C000040E4A6E95EC17F0D80E2F6E020E306E8C
:1021D0005AEC18F0040048500108D8A420EF11F080
:1021E000030E496E020E4A6E95EC17F0D80E2F6E54
:1021F000020E306E5AEC18F0030E496E030E4A6E52
:1022000095EC17F08C0E2F6E030E306E5AEC18F012
:10221000030E496E040E4A6E95EC17F0D80E2F6E21
:10222000020E306E5AEC18F0030E496E050E4A6E1F
:1022300095EC17F0D80E2F6E020E306E5AEC18F097
:10224000040048500208D8A456EF11F0030E496E5E
:10225000020E4A6E95EC17F0D80E2F6E020E306EFD
:102260005AEC18F0030E496E030E4A6E95EC17F007
:10227000D80E2F6E020E306E5AEC18F0030E496E17
:10228000040E4A6E95EC17F08C0E2F6E030E306E16
:102290005AEC18F0030E496E050E4A6E95EC17F0D5
:1022A000D80E2F6E020E306E5AEC18F00400485013
:1022B0000308D8A48CEF11F0030E496E020E4A6E8B
:1022C00095EC17F0D80E2F6E020E306E5AEC18F007
:1022D000030E496E030E4A6E95EC17F0D80E2F6E62
:1022E000020E306E5AEC18F0030E496E040E4A6E60
:1022F00095EC17F0D80E2F6E020E306E5AEC18F0D7
:10230000030E496E050E4A6E95EC17F08C0E2F6E7B
:10231000030E306E5AEC18F01200640EA4EC01F0BB
:10232000E86A84A2E868146EE86A80BAE868166E03
:1023300014C002F01650EBEC01F0166E176E04009C
:1023400016501710D8B4A6EF11F0E7D7486AFCDE94
:10235000E86A80AAE868146EE86A80B4E868166ED5
:1023600014C002F01650F2EC01F0166E176E040065
:1023700016501710D8B4BFEF11F011EF13F004008E
:1023800084B0CCEF11F0640EA4EC01F0040084B032
:10239000CCEF11F0C3EF12F0040084B2D9EF11F0CA
:1023A000640EA4EC01F0040084B2D9EF11F0DAEF6E
:1023B00011F0CED7640EA4EC01F0E86A84A2E868BC
:1023C000146EE86A80BAE868166E14C002F01650FF
:1023D000EBEC01F0166E176E040016501710D8B40F
:1023E000F3EF11F0E7D7010E486EAEDEE86A80AA7F
:1023F000E868146EE86A80B4E868166E14C002F0EB
:102400001650F2EC01F0166E176E040016501710FD
:10241000D8B40DEF12F011EF13F0040084B01AEFEE
:1024200012F0640EA4EC01F0040084B01AEF12F074
:10243000E9EF12F0040084B227EF12F0640EA4EC6E
:1024400001F0040084B227EF12F028EF12F0CED78B
:10245000640EA4EC01F0E86A84A2E868146EE86AED
:1024600080BAE868166E14C002F01650EBEC01F06A
:10247000166E176E040016501710D8B441EF12F004
:10248000E7D7020E486E60DEE86A80AAE868146E3C
:10249000E86A80B4E868166E14C002F01650F2ECD8
:1024A00001F0166E176E040016501710D8B45BEFCB
:1024B00012F011EF13F0040084B068EF12F0640E14
:1024C000A4EC01F0040084B068EF12F0E7EF12F022
:1024D000040084B275EF12F0640EA4EC01F0040065
:1024E00084B275EF12F076EF12F0CED7640EA4EC42
:1024F00001F0E86A84A2E868146EE86A80BAE868C5
:10250000166E14C002F01650EBEC01F0166E176E4A
:10251000040016501710D8B48FEF12F0E7D7030E4F
:10252000486E12DEE86A80AAE868146EE86A80B431
:10253000E868166E14C002F01650F2EC01F0166E48
:10254000176E040016501710D8B4A9EF12F011EF4F
:1025500013F0040084B0B6EF12F0640EA4EC01F0A6
:10256000040084B0B6EF12F011EF13F0040084B24F
:10257000C2EF12F0640EA4EC01F0040084B2C2EFCA
:1025800012F0CBD6CFD704002BB2CAEF12F02B82B9
:10259000CBEF12F02B92A4EC10F0640EA4EC01F03F
:1025A000E86A84A0E868146EE86A80BAE868166E83
:1025B00014C002F01650EBEC01F0166E176E04001A
:1025C00016501710D8B4E6EF12F0E7D7C1D654EF83
:1025D00013F0FAEF1FF0F20E2F6E030E306E5AEC6E
:1025E00018F0EC0E2F6E030E306E5AEC18F0D80E69
:1025F0002F6E020E306E5AEC18F01200F20E2F6E93
:10260000030E306E5AEC18F0BC0E2F6E030E306EB7
:102610005AEC18F0BC0E2F6E030E306E5AEC18F008
:102620001200838A959A640EA4EC01F0E86A80BADD
:10263000E868146EE86A84A2E868166E14C002F0B6
:102640001650EBEC01F0166E176E040016501710C2
:10265000D8B42CEF13F0E5D783869596640EA4ECDE
:1026600001F0839695965FEC17F004002BB23CEFD7
:1026700013F05BEC1BF0CA942B84140E3A6E2D6A97
:102680002E6A486ADCEC21F057EC22F041EC22F093
:1026900095EC24F017EC1AF087EC07F09F809D80F2
:1026A00068EC04F0D1EF06F05FEC17F0486A77ECC5
:1026B00013F00A0EA4EC01F0E86A84A0E868146E36
:1026C000E86A80BAE868166E14C002F01650EBECA7
:1026D00001F0166E176E040016501710D8B472EF82
:1026E00013F0E7D7640EA4EC01F060EF15F05FEC97
:1026F00017F0150E496E4A6A95EC17F0AA0E2F6E68
:10270000030E306E5AEC18F0F20E2F6E030E306E80
:102710005AEC18F0EC0E2F6E030E306E5AEC18F0D7
:10272000BC0E2F6E030E306E5AEC18F0CE0E2F6ECC
:10273000030E306E5AEC18F0C20E2F6E030E306E80
:102740005AEC18F00C0E496E020E4A6E95EC17F01A
:10275000040E2F6E040E306E5AEC18F0760E2F6EAB
:10276000040E306E5AEC18F07C0E2F6E040E306E94
:102770005AEC18F0C40E2F6E040E306E5AEC18F09E
:10278000760E2F6E040E306E5AEC18F0CA0E2F6EB5
:10279000040E306E5AEC18F0880E2F6E040E306E58
:1027A0005AEC18F0D80E2F6E020E306E5AEC18F05C
:1027B0000C0E496E030E4A6E95EC17F0A40E2F6EA8
:1027C000030E306E5AEC18F0A00E2F6E040E306E11
:1027D0005AEC18F08E0E2F6E040E306E5AEC18F074
:1027E000AC0E2F6E040E306E5AEC18F09A0E2F6E4F
:1027F000040E306E5AEC18F0760E2F6E040E306E0A
:102800005AEC18F0C40E2F6E040E306E5AEC18F00D
:10281000D80E2F6E020E306E5AEC18F00C0E496E68
:10282000040E4A6E95EC17F0100E2F6E040E306EEB
:102830005AEC18F0760E2F6E040E306E5AEC18F02B
:10284000CA0E2F6E040E306E5AEC18F0D00E2F6E9A
:10285000040E306E5AEC18F0CA0E2F6E040E306E55
:102860005AEC18F00C0E496E050E4A6E95EC17F0F6
:10287000B60E2F6E030E306E5AEC18F0280E2F6E27
:10288000040E306E5AEC18F0CE0E2F6E030E306E22
:102890005AEC18F0100E2F6E040E306E5AEC18F031
:1028A0003D0E496E020E4A6E95EC17F004002BB8EF
:1028B0005DEF14F090DE5EEF14F0A0DE3D0E496E89
:1028C000030E4A6E95EC17F004002BA06BEF14F08A
:1028D00082DE6CEF14F092DE040048500008D8A4A9
:1028E000A2EF14F0030E496E050E4A6E95EC17F038
:1028F000D80E2F6E020E306E5AEC18F0030E496E91
:10290000020E4A6E95EC17F08C0E2F6E030E306E91
:102910005AEC18F0030E496E030E4A6E95EC17F050
:10292000D80E2F6E020E306E5AEC18F0030E496E60
:10293000040E4A6E95EC17F0D80E2F6E020E306E14
:102940005AEC18F0040048500108D8A4D8EF14F04D
:10295000030E496E020E4A6E95EC17F0D80E2F6EDC
:10296000020E306E5AEC18F0030E496E030E4A6EDA
:1029700095EC17F08C0E2F6E030E306E5AEC18F09B
:10298000030E496E040E4A6E95EC17F0D80E2F6EAA
:10299000020E306E5AEC18F0030E496E050E4A6EA8
:1029A00095EC17F0D80E2F6E020E306E5AEC18F020
:1029B000040048500208D8A40EEF15F0030E496E2B
:1029C000020E4A6E95EC17F0D80E2F6E020E306E86
:1029D0005AEC18F0030E496E030E4A6E95EC17F090
:1029E000D80E2F6E020E306E5AEC18F0030E496EA0
:1029F000040E4A6E95EC17F08C0E2F6E030E306E9F
:102A00005AEC18F0030E496E050E4A6E95EC17F05D
:102A1000D80E2F6E020E306E5AEC18F0040048509B
:102A20000308D8A444EF15F0030E496E020E4A6E57
:102A300095EC17F0D80E2F6E020E306E5AEC18F08F
:102A4000030E496E030E4A6E95EC17F0D80E2F6EEA
:102A5000020E306E5AEC18F0030E496E040E4A6EE8
:102A600095EC17F0D80E2F6E020E306E5AEC18F05F
:102A7000030E496E050E4A6E95EC17F08C0E2F6E04
:102A8000030E306E5AEC18F01200640EA4EC01F044
:102A9000E86A84A2E868146EE86A80BAE868166E8C
:102AA00014C002F01650EBEC01F0166E176E040025
:102AB00016501710D8B45EEF15F0E7D7486AF0DE6D
:102AC000E86A80AAE868146EE86A80B4E868166E5E
:102AD00014C002F01650F2EC01F0166E176E0400EE
:102AE00016501710D8B477EF15F011EF13F004005B
:102AF00084B084EF15F0640EA4EC01F0040084B0FF
:102B000084EF15F07BEF16F0040084B291EF15F01E
:102B1000640EA4EC01F0040084B291EF15F092EF82
:102B200015F0CED7640EA4EC01F0E86A84A2E86840
:102B3000146EE86A80BAE868166E14C002F0165087
:102B4000EBEC01F0166E176E040016501710D8B497
:102B5000ABEF15F0E7D7010E486EA2DEE86A80AA57
:102B6000E868146EE86A80B4E868166E14C002F073
:102B70001650F2EC01F0166E176E04001650171086
:102B8000D8B4C5EF15F011EF13F0040084B0D2EF04
:102B900015F0640EA4EC01F0040084B0D2EF15F03F
:102BA0009FEF16F0040084B2DFEF15F0640EA4EC82
:102BB00001F0040084B2DFEF15F0E0EF15F0CED79E
:102BC000640EA4EC01F0E86A84A2E868146EE86A76
:102BD00080BAE868166E14C002F01650EBEC01F0F3
:102BE000166E176E040016501710D8B4F9EF15F0D2
:102BF000E7D7020E486E54DEE86A80AAE868146ED1
:102C0000E86A80B4E868166E14C002F01650F2EC60
:102C100001F0166E176E040016501710D8B413EF9B
:102C200016F011EF13F0040084B020EF16F0640EDC
:102C3000A4EC01F0040084B020EF16F0C3EF16F00E
:102C4000040084B22DEF16F0640EA4EC01F0040031
:102C500084B22DEF16F02EEF16F0CED7640EA4EC52
:102C600001F0E86A84A2E868146EE86A80BAE8684D
:102C7000166E14C002F01650EBEC01F0166E176ED3
:102C8000040016501710D8B447EF16F0E7D7030E1C
:102C9000486E06DEE86A80AAE868146EE86A80B4C6
:102CA000E868166E14C002F01650F2EC01F0166ED1
:102CB000176E040016501710D8B461EF16F011EF1C
:102CC00013F0040084B06EEF16F0640EA4EC01F073
:102CD000040084B06EEF16F0FEEF16F0040084B22C
:102CE0007AEF16F0640EA4EC01F0040084B27AEFDF
:102CF00016F0CBD6CFD704002BB882EF16F02B8876
:102D000083EF16F02B9850EC14F0640EA4EC01F055
:102D1000E86A84A0E868146EE86A80BAE868166E0B
:102D200014C002F01650EBEC01F0166E176E0400A2
:102D300016501710D8B49EEF16F0E7D7C1D604008E
:102D40002BB0A6EF16F02B80A7EF16F02B9050ECCF
:102D500014F0640EA4EC01F0E86A84A0E868146E34
:102D6000E86A80BAE868166E14C002F01650EBEC00
:102D700001F0166E176E040016501710D8B4C2EF8B
:102D800016F0E7D7EBD6010E056EF40EA5EC01F0B8
:102D90004F6A0400020E4F5CD8B0DEEF16F0828A54
:102DA000949A140EA4EC01F0829A949A030E056E84
:102DB000E80EA5EC01F04F2AD8A0EBD7010E056E66
:102DC000F40EA5EC01F04F6A0400040E4F5CD8B07D
:102DD000FDEF16F08282949282809490FA0EA4EC19
:102DE00001F08292949282909490030E056EE80E08
:102DF000A5EC01F04F2AD8A0E7D7FED6640EA4ECCC
:102E000001F0E86A84A0E868146EE86A80BAE868AD
:102E1000166E14C002F01650EBEC01F0166E176E31
:102E2000040016501710D8B417EF17F0E7D7020EAA
:102E3000486E5FEC17F0A5EC0FF028EF12F08198C8
:102E40009398818893988196939681949394E20EB7
:102E5000566EB8EC19F0A20E566EB8EC19F0A00E32
:102E6000566EB8EC19F0C80E566EB8EC19F0A60EF6
:102E7000566EB8EC19F0240E566EB8EC19F0810EAF
:102E8000566EB8EC19F039C056F0B8EC19F02F0EA8
:102E9000566EB8EC19F0AF0E566EB8EC19F081848E
:102EA0009394120081949394810E566EB8EC19F0AD
:102EB00039C056F0B8EC19F08184939412008194D3
:102EC0009394566A576A586A596A5A6A5B6A4A6A98
:102ED0000400090E4A5CD8B08DEF17F081949394EA
:102EE000B00E4A24566EB8EC19F0100E566EB8ECBF
:102EF00019F0566AB8EC19F081849394386A04008A
:102F0000160E385CD8B08AEF17F078EC18F0382A33
:102F1000D8A0F5D74A2AD8A0DBD781849394120091
:102F2000496A4A6A95EC17F0120081949394B00EA6
:102F30004A24566EB8EC19F0120E4924146E156A24
:102F40001536060E1426000E15220F0E1414476EA9
:102F5000120E4924146E156A1536060E1426000E3C
:102F60001522F00E14143B6E3BC002F0036A040EEF
:102F7000D1EC01F03B6E100E3B24566EB8EC19F00C
:102F8000000E4724566EB8EC19F081849394120019
:102F900081949394A70E566EB8EC19F081849394A3
:102FA000120081949394A70E566EB8EC19F08184A8
:102FB0009394120081949394A60E566EB8EC19F077
:102FC00081849394120081949394AF0E566EB8EC62
:102FD00019F081849394120081949394AE0E566EEE
:102FE000B8EC19F08184939412005650040D09082E
:102FF000D8A028EF18F0F86A280EF324F66E300EE9
:10300000F420F76E000EF8220900F550026E090058
:10301000F550036E0800F550DFEC00F002C02FF011
:1030200003C030F028EF18F0380300003E03000022
:10303000440300004A030000500300005603000050
:103040005C03000062030000680300006E030000E0
:10305000040056502008D8A432EF18F0D80E2F6E76
:10306000020E306E040056502108D8A43CEF18F030
:10307000260E2F6E030E306E800E1F6E0F0E216E09
:10308000400E1D6E800E206E0F0E226E800E1E6E84
:1030900043508AEC00F030508AEC00F02F508AEC5C
:1030A00000F0060E0B6EDA6A560E5FEC00F078EC5C
:1030B00018F01200800E1F6E0F0E216E400E1D6E56
:1030C000800E206E0F0E226E800E1E6E43508AEC14
:1030D00000F030508AEC00F02F508AEC00F0060E21
:1030E0000B6EDA6A560E5FEC00F078EC18F0120006
:1030F0008196939656BE818C56AE819C8182819238
:1031000056BC818C56AC819C8182819256BA818C4E
:1031100056AA819C8182819256B8818C56A8819C46
:103120008182819256B6818C56A6819C8182819241
:1031300056B4818C56A4819C8182819256B2818C36
:1031400056A2819C8182819256B0818C56A0819C2E
:103150008182819257BE818C57AE819C81828192FF
:1031600057BC818C57AC819C8182819257BA818CEB
:1031700057AA819C8182819257B8818C57A8819CE3
:103180008182819257B6818C57A6819C81828192DF
:1031900057B4818C57A4819C8182819257B2818CD3
:1031A00057A2819C8182819257B0818C57A0819CCB
:1031B0008182819258BE818C58AE819C818281929D
:1031C00058BC818C58AC819C8182819258BA818C88
:1031D00058AA819C8182819258B8818C58A8819C80
:1031E0008182819258B6818C58A6819C818281927D
:1031F00058B4818C58A4819C8182819258B2818C70
:1032000058A2819C8182819258B0818C58A0819C67
:103210008182819259BE818C59AE819C818281923A
:1032200059BC818C59AC819C8182819259BA818C24
:1032300059AA819C8182819259B8818C59A8819C1C
:103240008182819259B6818C59A6819C818281921A
:1032500059B4818C59A4819C8182819259B2818C0C
:1032600059A2819C8182819259B0818C59A0819C04
:10327000818281925ABE818C5AAE819C81828192D8
:103280005ABC818C5AAC819C818281925ABA818CC1
:103290005AAA819C818281925AB8818C5AA8819CB9
:1032A000818281925AB6818C5AA6819C81828192B8
:1032B0005AB4818C5AA4819C818281925AB2818CA9
:1032C0005AA2819C818281925AB0818C5AA0819CA1
:1032D000818281925BBE818C5BAE819C8182819276
:1032E0005BBC818C5BAC819C818281925BBA818C5E
:1032F0005BAA819C818281925BB8818C5BA8819C56
:10330000818281925BB6818C5BA6819C8182819255
:103310005BB4818C5BA4819C818281925BB2818C45
:103320005BA2819C818281925BB0818C5BA0819C3D
:1033300081828192818693961200800E1F6E0F0EFD
:10334000216E400E1D6E800E206E0F0E226E800EBE
:103350001E6E43508AEC00F030508AEC00F02F5083
:103360008AEC00F06FEC00F0566EB8EC19F0120029
:103370008196939656BE818C56AE819C81828192B5
:1033800056BC818C56AC819C8182819256BA818CCC
:1033900056AA819C8182819256B8818C56A8819CC4
:1033A0008182819256B6818C56A6819C81828192BF
:1033B00056B4818C56A4819C8182819256B2818CB4
:1033C00056A2819C8182819256B0818C56A0819CAC
:1033D00081828192818693961200456A0400030ED1
:1033E000455CD8B001EF1AF04550520FE96E000E5F
:1033F000EA6AEA22EFCF56F0F5EC17F0452AD8A09A
:10340000EDD71200456A0400020E455CD8B016EFF5
:103410001AF04550520FE96E000EEA6AEA22EFCF29
:1034200056F0F5EC17F0452AD8A0EDD712001FECA6
:1034300017F05FEC17F04F6A0400080E4F5CD8B02D
:103440002DEF1AF02A0E496E4FC04AF095EC17F096
:1034500056688EDF4F2AD8A0EFD7020E456E0400C3
:10346000070E455CD8B058EF1AF02B0E496E45C0D8
:103470004AF095EC17F04F6A0400080E4F5CD8B084
:1034800054EF1AF0010E566E73DF010E566E70DFA8
:10349000010E566E6DDF010E566E6ADF010E566E1E
:1034A00067DF4F2AD8A0E8D7020E4526D8A0D7D785
:1034B000300E496E4A6A95EC17F0CC0E2F6E0E0E48
:1034C000306E5AEC18F0D20E2F6E0E0E306E5AEC93
:1034D00018F0D80E2F6E0E0E306E5AEC18F0DE0E6D
:1034E0002F6E0E0E306E5AEC18F0E40E2F6E0E0E8C
:1034F000306E5AEC18F0300E496E020E4A6E95ECA2
:1035000017F0EA0E2F6E0E0E306E5AEC18F0F00E19
:103510002F6E0E0E306E5AEC18F0F60E2F6E0E0E49
:10352000306E5AEC18F0FC0E2F6E0E0E306E5AEC08
:1035300018F0020E2F6E0F0E306E5AEC18F0300E8F
:10354000496E040E4A6E95EC17F0600E2F6E110E48
:10355000306E5AEC18F0660E2F6E110E306E5AEC6B
:1035600018F06C0E2F6E110E306E5AEC18F0720EB1
:103570002F6E110E306E5AEC18F0780E2F6E110E61
:10358000306E5AEC18F0300E496E060E4A6E95EC0D
:1035900017F0080E2F6E0F0E306E5AEC18F00E0E4C
:1035A0002F6E0F0E306E5AEC18F0140E2F6E0F0E99
:1035B000306E5AEC18F01A0E2F6E0F0E306E5AEC59
:1035C00018F0200E2F6E0F0E306E5AEC18F0010E10
:1035D0004F6E0400040E4F5CD8B00AEF1BF0490E8A
:1035E000496E4FC04AF095EC17F0020E566EC0DEE1
:1035F000050E566EBDDE020E566EBADE566AB8DE97
:10360000AA0E2F6E030E306E5AEC18F0020E4F26E3
:10361000D8A0DFD7490E496E070E4A6E95EC17F019
:103620004F6A0400040E4F5CD8B01CEF1BF0566AC2
:103630009FDE4F2AD8A0F5D71C0E2F6E040E306ED9
:103640005AEC18F012000A6AA10E046E070E056EFD
:10365000010E0EEC00F0CA843C6A04003C50445C4D
:10366000D8A05AEF1BF03C503C02F3CF14F0F4CF3B
:1036700015F03C505C08166E000ED8A0E804176EDA
:1036800014C002F015C003F016C004F017C005F016
:10369000F7EC01F04F6E4FC00AF0A10E046E070E5A
:1036A000056E010E0EEC00F00F0EA4EC01F03C2AAA
:1036B000D8A0D3D7120044C03CF03C503C02F3CF1A
:1036C00014F0F4CF15F03C505C08166E000ED8A034
:1036D000E804176E14C002F015C003F016C004F021
:1036E00017C005F0F7EC01F04F6E4FC00AF0A10EC5
:1036F000046E070E056E010E0EEC00F00F0EA4EC2A
:1037000001F03C06D8B0D9D7BD6ACA94829494948B
:1037100012000400CAB490EF1BF02B9291EF1BF043
:103720002B8212000400CAB497EF1BF08CDF12004A
:10373000200E3D6E470E4F6EBFEC1BF0210E3D6E0E
:10374000070E4F6EBFEC1BF0220E3D6E010E4F6E4A
:10375000BFEC1BF0320E3D6E020E4F6EBFEC1BF045
:10376000330E3D6E0D0E4F6EBFEC1BF0300E3D6EF6
:103770006A0E4F6EBFEC1BF0F3EC1BF01200820ED2
:103780001F6E0F0E216E800E1D6E830E206E0F0EAB
:10379000226E100E1E6E40508AEC00F03D508AECF6
:1037A00000F04F5088EC00F01200820E1F6E0F0EDA
:1037B000216E800E1D6E830E206E0F0E226E100E77
:1037C0001E6E3F508AEC00F03D508AEC00F06FEC2A
:1037D00000F04F6E1200040083ACF2EF1BF0F3EC2C
:1037E0001BF02A821200310E3D6EDFDF230E3D6E8C
:1037F000DCDF1200506A0400070E505CD8B043EFC3
:103800001CF050C03EF076EC21F00F0E4F14146EF9
:10381000156A700E4F14166E176A16C002F017C0A4
:1038200003F0040ED1EC01F0166E03C017F016C0C1
:1038300008F017C009F00A0E046E056A0FEC02F0DA
:10384000166E07C017F0145016244B6E04002BBCE4
:1038500036EF1CF0280E5024146E156A153614C06D
:10386000A9FF4B5096EC01F040EF1CF0300E5024B5
:10387000146E156A153614C0A9FF4B5096EC01F072
:10388000502AD8A0B8D712000A0E506E0400370E86
:10389000505CD8B054EF1CF050C0A9FF000E96EC5D
:1038A00001F0502AD8A0F2D71200839A959A640E9C
:1038B000B1EC01F011EF13F0838A959AC80EA4ECD5
:1038C00001F0080E3E6E1E0E4F6E60EC21F0486A4D
:1038D0000400070E485CD8B083EF1CF00400485089
:1038E0000308D8A476EF1CF0040E486E48C0A9FF68
:1038F0008FEC01F04B6E89EC1CF0050EA4EC01F08E
:10390000482AD8A0E5D7839A959A640EB1EC01F0C5
:10391000120048C03EF0040048500008D8A4CEEF82
:103920001CF04BC002F0036A0A0E046E056AF7EC45
:1039300001F0146E03C015F06F0E1416000E15166C
:1039400014C002F015C003F0040EC9EC01F0146EAF
:1039500003C015F04BC002F0036A0A0E046E056A3C
:10396000F7EC01F0166E03C017F016C008F017C090
:1039700009F00A0E046E056A0FEC02F0166E07C01D
:1039800017F016504B5C166EE86A1754176E1450F9
:1039900016244F6E800E4F26B0EF1DF004004850E5
:1039A0000108D8A40FEF1DF04BC002F0036A0A0E05
:1039B000046E056AF7EC01F0146E03C015F06F0E8B
:1039C0001416000E151614C002F015C003F0040EF4
:1039D000C9EC01F0146E03C015F04BC002F0036A8D
:1039E0000A0E046E056AF7EC01F0166E03C017F0BC
:1039F00016C008F017C009F00A0E046E056A0FEC35
:103A000002F0166E07C017F016504B5C166EE86A8F
:103A10001754176E145016244F6EB0EF1DF0485017
:103A20000208D8A4E868FF0A146E48500408D8A415
:103A3000E868FF0A166E14C002F01650F2EC01F0AE
:103A4000166E176E48500608D8A4E868FF0A186E6C
:103A500016501710026E1850F2EC01F0186E196E25
:103A6000040018501910D8B471EF1DF04BC002F0CB
:103A7000036A0A0E046E056AF7EC01F0146E03C0C7
:103A800015F00B0E1416000E151614C002F015C01A
:103A900003F0040EC9EC01F0146E03C015F04BC026
:103AA00002F0036A0A0E046E056AF7EC01F0166E66
:103AB00003C017F016C008F017C009F00A0E046E14
:103AC000056A0FEC02F0166E07C017F016504B5C3B
:103AD000166EE86A1754176E145016244F6EB0EF26
:103AE0001DF0040048500508D8A4B0EF1DF04BC0ED
:103AF00002F0036A0A0E046E056AF7EC01F0146E18
:103B000003C015F0010E1416000E151614C002F0B5
:103B100015C003F0040EC9EC01F0146E03C015F0DB
:103B20004BC002F0036A0A0E046E056AF7EC01F05E
:103B3000166E03C017F016C008F017C009F00A0E81
:103B4000046E056A0FEC02F0166E07C017F01650EF
:103B50004B5C166EE86A1754176E145016244F6E9D
:103B600060EC21F01200838A959A5FEC17F0C80E82
:103B7000A4EC01F0120E496E010E4A6E95EC17F09E
:103B8000020E4F6E4FC0A9FF8FEC01F04B6E2BEC75
:103B900021F00400010E4F5CD8A0D5EF1DF0740E8B
:103BA0002F6E030E306E5AEC18F04F06D8B0EAD7DD
:103BB000120E496E020E4A6E95EC17F0040E4F6E0F
:103BC0000400070E4F5CD8B0FCEF1DF04FC0A9FFFA
:103BD0008FEC01F04B6E2BEC21F00400060E4F5CD5
:103BE000D8B0F9EF1DF02C0E2F6E030E306E5AEC8C
:103BF00018F04F2AD8A0E4D7486A0400070E485CA2
:103C0000D8B09DEF1EF0040084B20BEF1EF0C80E7A
:103C1000A4EC01F0F8D7040048500308D8A413EF2F
:103C20001EF0040E486E48C0A9FF8FEC01F04B6EE9
:103C3000120E496E4A6A95EC17F04850040D0608BA
:103C4000D8A04AEF1EF0F86A780EF324F66E3C0E08
:103C5000F420F76E000EF8220900F550026E0900FC
:103C6000F550036E0800F550DFEC00F002C02FF0B5
:103C700003C030F04AEF1EF00A040000E603000023
:103C8000C8030000B0030000B0030000E60300001A
:103C90002E0400005AEC18F0040048500008D8A484
:103CA00058EF1EF0360E496E010E4A6E95EC17F075
:103CB000040048500108D8A464EF1EF0240E496E99
:103CC000010E4A6E95EC17F0040048500208D8A483
:103CD00070EF1EF0120E496E010E4A6E95EC17F051
:103CE000040048500408D8A47CEF1EF0120E496E60
:103CF000020E4A6E95EC17F0040048500508D8A44F
:103D000088EF1EF0240E496E020E4A6E95EC17F0F5
:103D1000040048500608D8A494EF1EF0360E496EF1
:103D2000020E4A6E95EC17F02BEC21F0D4EC1EF04D
:103D300089EC1CF0482AD8A060D7120E496E4A6A56
:103D400095EC17F0D80E2F6E020E306E5AEC18F06C
:103D5000640EA4EC01F0040084B0B9EF1EF0030E71
:103D6000056EE80EA5EC01F0040084B0B9EF1EF07A
:103D700001D7040084B2CDEF1EF0010E056EF40EE3
:103D8000A5EC01F0040084B2CAEF1EF0CEEF1EF0E5
:103D9000CBEF1EF0DDD7CEEF1EF0DAD7839A959ADF
:103DA000640EB1EC01F01200640EA4EC01F0E86ABC
:103DB00084A2E868146EE86A84A0E868166E14C0ED
:103DC00002F01650F2EC01F0166E176E0400165059
:103DD0001710D8B4EDEF1EF0E7D7040084B0E1EF80
:103DE0001FF04B2A48500008D8A4E868FF0A146E58
:103DF0004B503C08D8A4E868FF0A166E14C002F0C5
:103E00001650EBEC01F0166E176E040016501710EA
:103E1000D8B40CEF1FF04B6A48500108D8A4E868EA
:103E2000FF0A146E4B503C08D8A4E868FF0A166ECF
:103E300014C002F01650EBEC01F0166E176E040081
:103E400016501710D8B426EF1FF04B6A48500208DE
:103E5000D8A4E868FF0A146E4B501808D8A4E86884
:103E6000FF0A166E14C002F01650EBEC01F0166E4D
:103E7000176E040016501710D8B440EF1FF04B6AAD
:103E800048500408D8A4E868FF0A146E4B50200874
:103E9000D8A4E868FF0A166E14C002F01650EBECC6
:103EA00001F0166E176E040016501710D8B45BEFB1
:103EB0001FF0010E4B6E48500508D8A4E868FF0AB1
:103EC000146E4B500D08D8A4E868FF0A166E14C093
:103ED00002F01650EBEC01F0166E176E040016504F
:103EE0001710D8B476EF1FF0010E4B6E485006083D
:103EF000D8A4E868FF0A146E4B501408D8A4E868E8
:103F0000FF0A166E14C002F01650EBEC01F0166EAC
:103F1000176E040016501710D8B491EF1FF0090E59
:103F20004B6E040048500008D8A49DEF1FF0360ED9
:103F3000496E010E4A6E95EC17F0040048500108D6
:103F4000D8A4A9EF1FF0240E496E010E4A6E95EC1D
:103F500017F0040048500208D8A4B5EF1FF0120E65
:103F6000496E010E4A6E95EC17F0040048500408A3
:103F7000D8A4C1EF1FF0120E496E020E4A6E95ECE6
:103F800017F0040048500508D8A4CDEF1FF0240E08
:103F9000496E020E4A6E95EC17F004004850060870
:103FA000D8A4D9EF1FF0360E496E020E4A6E95EC7A
:103FB00017F02BEC21F0010E056EF40EA5EC01F0CC
:103FC0000CD7040084B2F3EF1FF0C80EA4EC01F08C
:103FD000040084B2F0EF1FF0F4EF1FF0F1EF1FF0D8
:103FE000FCD6F4EF1FF0F9D648C0A9FF4B5096EC71
:103FF00001F012005FEC17F0838A959A640EA4EC2E
:1040000001F0040084B006EF20F0F8D7E86A80AA37
:10401000E868146EE86A80B4E868166E14C002F0AE
:104020001650F2EC01F0166E176E040016501710C1
:10403000D8B41DEF20F055EF1CF0040084B03BEF26
:1040400020F0070E056ED00EA5EC01F0040084B040
:104050003BEF20F0B3EC1DF05FEC17F0838A959AEC
:10406000640EA4EC01F0640EA4EC01F0040084B230
:104070003BEF20F0F8D7120E496E010E4A6E95EC18
:1040800017F0020E516E51C03EF076EC21F00400A4
:1040900051500208D8A470EF20F00F0E4F14146E88
:1040A000156A300E4F14166E176A16C002F017C04C
:1040B00003F0040ED1EC01F0166E03C017F016C029
:1040C00008F017C009F00A0E046E056A0FEC02F042
:1040D000166E07C017F0145016244B6E91EF20F0A7
:1040E0000F0E4F14146E156A700E4F14166E176A69
:1040F00016C002F017C003F0040ED1EC01F0166EEA
:1041000003C017F016C008F017C009F00A0E046EBD
:10411000056A0FEC02F0166E07C017F01450162453
:104120004B6E2BEC21F00400010E515CD8A09FEFE8
:1041300020F0740E2F6E030E306E5AEC18F05106FC
:10414000D8B0A1D7120E496E020E4A6E95EC17F048
:10415000040E516E0400070E515CD8B00FEF21F031
:1041600051C03EF076EC21F0040051500508D8A46F
:10417000DDEF20F00F0E4F14146E156A100E4F1461
:10418000166E176A16C002F017C003F0040ED1ECC9
:1041900001F0166E03C017F016C008F017C009F042
:1041A0000A0E046E056A0FEC02F0166E07C017F0D7
:1041B000145016244B6EFEEF20F00F0E4F14146EA9
:1041C000156A300E4F14166E176A16C002F017C02B
:1041D00003F0040ED1EC01F0166E03C017F016C008
:1041E00008F017C009F00A0E046E056A0FEC02F021
:1041F000166E07C017F0145016244B6E2BEC21F0EE
:104200000400060E515CD8B00CEF21F02C0E2F6E7E
:10421000030E306E5AEC18F0512AD8A09BD7040038
:1042200084B225EF21F0640EA4EC01F0040084B206
:1042300025EF21F0839A959A640EB1EC01F05FECC2
:1042400017F0A5EC0FF0DAEF11F0010E056EF40E89
:10425000A5EC01F0DBD64BC002F0036A0A0E046E37
:10426000056AF7EC01F0526E52C008F0096A0A0EB6
:10427000046E056A0FEC02F0146E07C015F01450BE
:104280004B5C536E52500008D8A4E868FF0A146EC5
:104290004C500208D8A4E868FF0A166E14C002F059
:1042A0001650EBEC01F0166E176E04001650171046
:1042B000D8B45DEF21F0200E526E02EC1AF012001D
:1042C000820E1F6E0F0E216E800E1D6E830E206EED
:1042D0000F0E226E100E1E6E42508AEC00F03E5001
:1042E0008AEC00F04F5088EC00F01200820E1F6E36
:1042F0000F0E216E800E1D6E830E206E0F0E226E2D
:10430000100E1E6E41508AEC00F03E508AEC00F018
:104310006FEC00F04F6E1200340E496E050E4A6EBF
:1043200095EC17F0020E4C6E0400010E4C5CD8A008
:10433000DBEF21F04CC03EF0D9DF0F0E4F14146EAE
:10434000156A700E4F14166E176A16C002F017C069
:1043500003F0040ED1EC01F0166E03C017F016C086
:1043600008F017C009F00A0E046E056A0FEC02F09F
:10437000166E07C017F0145016244B6E6CDF040045
:10438000020E4C5CD8A0D8EF21F081849394566A39
:10439000B8EC19F0360E566EB8EC19F0360E566EB3
:1043A000B8EC19F0566AB8EC19F0566AB8EC19F086
:1043B0004C06D8B0B9D7120004002ABC22EF22F074
:1043C000830E1F6E0F0E216E040E1D6E010E45EC46
:1043D00001F0550E20EC01F04E0E20EC01F0000E25
:1043E00020EC01F0000E20EC01F01F0E20EC01F09B
:1043F00042EC01F041EC22F0FA0EA4EC01F057EC93
:1044000022F04F2A50505508D8A4E868146E515035
:104410005508D8A4E868166E14C002F01650EBECEC
:1044200001F0166E176E040016501710D8B41BEF6B
:1044300022F020EF22F00400050E4F5CD8A0C0D778
:104440003EEF22F0830E1F6E0F0E216E040E1D6EC6
:10445000010E45EC01F0550E20EC01F04E0E20EC63
:1044600001F0000E20EC01F0000E20EC01F01F0E18
:1044700020EC01F042EC01F041EC22F012002A8C19
:104480001200830E1F6E0F0E216E040E1D6E010EA4
:1044900045EC01F0D8A0F3D7CC0E20EC01F0440E8F
:1044A00020EC01F042EC01F0D8A0E9D71200830E15
:1044B0001F6E0F0E216E040E1D6E010E45EC01F0F5
:1044C000D8A0DDD7550E20EC01F0280E20EC01F02D
:1044D000130E20EC01F0B40E20EC01F04B0E20EC9A
:1044E00001F0010E20EC01F0000E20EC01F0000EB6
:1044F00020EC01F0930E20EC01F0BE0E20EC01F058
:1045000042EC01F0D8A0BBD7830E1F6E0F0E216EB8
:10451000040E1D6E020E45EC01F0D8A0B0D7F8ECE9
:1045200000F0336EF8EC00F0346E42EC01F0D8A0ED
:10453000A6D7F00E3314146E0F0E3414156E14C07B
:1045400002F015C003F0040ED1EC01F0506E830EA2
:104550001F6E0F0E216E040E1D6E010E45EC01F054
:10456000D8A08DD7550E20EC01F0280E20EC01F0DC
:104570007C0E20EC01F0B30E20EC01F04B0E20EC91
:1045800001F0010E20EC01F0000E20EC01F0000E15
:1045900020EC01F0250E20EC01F0BE0E20EC01F025
:1045A00042EC01F0D8A06BD7830E1F6E0F0E216E68
:1045B000040E1D6E020E45EC01F0D8A060D7F8EC99
:1045C00000F0336EF8EC00F0346E42EC01F0D8A04D
:1045D00056D7F00E3314146E0F0E3414156E14C02B
:1045E00002F015C003F0040ED1EC01F0516E120080
:1045F0003A500108D8A4E868FF0A146EE86A2ABC99
:10460000E868166E14C002F01650EBEC01F0166E5E
:10461000176E040016501710D8B411EF23F0CCDE3B
:104620002A8E3A501308D8A4E868FF0A146EE86A84
:104630002ABCE868166E14C002F01650EBEC01F0CC
:10464000166E176EE86A2ABEE868186E16501710C4
:10465000026E1850EBEC01F0186E196E0400185041
:104660001910D8B452EF23F022DF50C035F051C0FA
:1046700036F050505508D8A4E868146E51505508CB
:10468000D8A4E868166E14C002F01650EBEC01F0E6
:10469000166E176E040016501710D8B452EF23F0A0
:1046A0002A9C2A9E04003A501408D8A462EF23F0F2
:1046B0003A6AFDDE95EC24F0E4DE64EC23F02CDEB7
:1046C000AFEC24F03A2A1200010E4E6E0400030EE5
:1046D0004E5CD8B02EEF24F04E504F0FE96E000E16
:1046E000EA6AEA22EFCF14F004007E0E145CD8A030
:1046F00094EF23F04E504F0FE96E000EEA6AEA2263
:10470000EFCF14F014500008146E010ED8A0E80486
:10471000156E4E504F0FE96E000EEA6AEA2214C081
:10472000EFFF2B8695EF23F02B964E504F0FE96E3F
:10473000000EEA6AEA22EFCF14F04E04166E176AF2
:10474000000E175A1650350FE96E000E1720EA6E4C
:10475000EFCF16F01650145C166E176AD8A0170625
:1047600017AE03D0166CE86A175616C002F017C0D1
:1047700003F0056A0A0ED6EC01F0D8A4D5EF23F0B9
:104780004E04146E156A000E155A1450350FE96E5A
:10479000000E1520EA6EEFCF14F04E504F0FE96E69
:1047A000000EEA6AEA2214C0EFFF4E504F0FE96E86
:1047B000000EEA6AEA22EFCF14F014C002F0036A96
:1047C000020EBCEC01F0526E4E504F0FE96E000E1F
:1047D000EA6AEA22EFCF14F014C002F0036A010E75
:1047E000BCEC01F0536E4E504F0FE96E000EEA6ABA
:1047F000EA22EFCF14F014C002F0036A000EBCEC02
:1048000001F0546E04004E500108D8A40CEF24F0BF
:10481000010E4A6E14EF24F004004E500208D8A492
:1048200014EF24F0030E4A6E4E04166E176A000E43
:10483000175A4E504F0FE96E000EEA6AEA22EFCF88
:1048400014F01650350FE96E000E1720EA6E14C0F2
:10485000EFFF2EEC24F04E2AD8A038D75250000893
:10486000D8A4E868FF0A146E53500008D8A4E8687A
:10487000FF0A166E14C002F01650EBEC01F0166E33
:10488000176E040016501710D8B449EF24F0200E0C
:10489000536E040052500008D8A451EF24F0200EAB
:1048A000526E04002BA657EF24F0210E526E040026
:1048B0002AAC61EF24F0210E526E210E536E210EB0
:1048C000546E52502108D8A4E868FF0A146E535061
:1048D0000508D8A4E868FF0A166E14C002F0165046
:1048E000EBEC01F0166E176E54500508D8A4E8687A
:1048F000FF0A186E16501710026E1850EBEC01F0FC
:10490000186E196E040018501910D8B48EEF24F0E8
:10491000210E526E210E536E210E546E360E496ECC
:1049200095EC17F0EDEC19F01200000E78EC01F0A8
:10493000376E37C008F0096A750E046E056A0FEC11
:1049400002F0146E07C015F014C002F015C003F099
:10495000C80E046E056AF7EC01F0376E120037C01E
:1049600002F0036A020EBCEC01F0526E37C002F096
:10497000036A010EBCEC01F0536E37C002F0036A0B
:10498000000EBCEC01F0546E040052500008D8A494
:10499000CCEF24F0200E526E340E496E070E4A6E94
:1049A00095EC17F002EC1AF081849394400E566E49
:1049B000B8EC19F0566AB8EC19F054C056F0F5ECA2
:1049C00017F012005FEC17F03AEC0FF0486A0400A1
:1049D000060E485CD8B0FCEF24F0828C949C960EB6
:1049E000A4EC01F0829C949C010E056E2C0EA5ECAB
:1049F00001F0482AD8A0EBD7E86A84A2E868146ED0
:104A0000E86A84A0E868166E14C002F01650EBEC59
:104A100001F0166E176E040016501710D8B412EF7E
:104A200025F0D4D75FEC17F02B84140E3A6E2D6A64
:104A30002E6A486A57EC22F041EC22F076DF17EC40
:104A40001AF087EC07F09F809D8068EC04F0D1EFAE
:024A500006F06E
:020000040030CA
:0300010088180F4D
:020005008581F3
:060008000FC00FE00F40E5
:0200000400F00A
:08000000003B17001F0C0F006C
:00000001FF
