:020000040000FA
:10000000006AA8EF00F0008A00AA009A00B603D0A8
:10001000008640D827E2080E056E50D80436052E1B
:10002000FCD700AA2ED858D851D800BA1BD821D84E
:100030000450D890A5EF00F0008A00AA009A00B4FE
:1000400005D0FE0B016E0084D8900AD000B805D010
:10005000086E00881FD806E2085023D803E200AAE1
:10006000A5EF00F00ED838D800940098009601D87B
:10007000F7D71AC0EAFF183CE96EE9881650EC126F
:1000800008D01AC0EAFF18C0E9FF161CEE16E9886E
:10009000EC161200EEDF20D8F4DF18D8015000B6BD
:1000A0000109046E080E056E0436D8B0E2DFD8A050
:1000B000E8DF12D80BD8052EF7D7DBDF0DD81AC032
:1000C000EAFF18C0E9FF1650EF14FF0F1BC0EAFF4C
:1000D00019C0E9FF171CDAD71BC0EAFF193CE96E0B
:1000E000E9881750CCD7F86A800EA66E0900F55043
:1000F000A5EF00F0056A046EE86A0406055AD8A068
:10010000A5EF00F0030E036EE70E02D8F5D7036AE1
:10011000FD0F026E01D00206040000D0E86A035A07
:10012000FAE21200046E010E00D00A6E0550035C64
:1001300002E10450025C040ED8B0010ED8B4020EE5
:100140000A14D8A4FF0EA5EF00F00001040012006D
:10015000700ED36E9B8C0E0EC16EC1EC00F0F26A75
:10016000F18CCA94816A826A836A846AA00E236EC3
:1001700082869496216A010E056EF40EBCDFCBEFE9
:1001800000F03F0E926E010E936E946A400E956ED3
:10019000070E966E1200828094901F6A206A1FC01C
:1001A00002F020C003F01F0E056EFF0EBBDFD8A4C7
:1001B000F1EF00F07E0E1F24146E020E2020156E4B
:1001C00014C0F6FF15C0F7FF8EDF226E1FC01DF0B2
:1001D00020C01EF0F5EC00F01F2A000E2022D8A04F
:1001E000DED7829094900300FED70400010E215CBC
:1001F000D8A0FCEF00F021061C9004001CB010EF0A
:1002000001F013EC01F02AEC01F004002450225C10
:10021000D8A40CEF01F01C8083869596212AEDD797
:10022000839695961200800E186E0F0E1A6E400E71
:10023000166E800E196E0F0E1B6E800E176E2350F9
:10024000FDDE1E50FBDE1D50F9DE2250F5DE215092
:1002500051DF1200800E186E0F0E1A6E400E166ED1
:10026000800E196E0F0E1B6E800E176E2350E6DE89
:100270001E50E4DE1D50E2DEC6DE246E12000000D9
:100280000000C0C0C0C0C0C0C0C0C0C0C0C0C0C0EE
:10029000C0C0C0C0C0C0C0C0C0C0000000000000DE
:1002A000000000000000000000000000000000004E
:1002B000808080808080808080808080808080803E
:1002C000808080808080808080808080808080802E
:1002D000000000000000FFFFFFFFFFFFFFFFFFFF28
:1002E000FFFFFFFFFFFFFFFFFFFFFFFFFFFF80801C
:1002F00080808080808080808080C0C0C0C0C0C07E
:10030000C0C0C0E0E0F0F1FFFFFFFFFFFFFFFFFF15
:10031000FFFFFFFFFFFFFFFF7F7F7F3F3F1F1F0F9D
:1003200007030100000000000000FFFFFFFFFFFFC8
:10033000FFFFFFFFFFFFFFFFFFFFFFFFFFFFFFFFCD
:10034000FFFF0000000000000000000000000101AD
:100350000101010101010303070F0F9FFFFFFFFFD1
:10036000FFFFFFFFFFFFFFFFFFFFFFFFFEFEFCFCA5
:10037000F8F8F0F0E0C08000000000008080838387
:10038000030303838383830303030303030303033D
:10039000030303030303000000000000000000004B
:1003A0000000000000000000000000000002030345
:1003B000030303030303030303030303030383830D
:1003C0008383030303030303038383830000000089
:1003D000FFFFFFFF1C3EFFFFF3C18000C0E8ECEC15
:1003E00024A4FCFCF8000C3CFCF0E0FC3C3CFCE0F1
:1003F000F0FC3C0CC0E8ECEC24A4FCFCF8000098F9
:10040000BCBC3434ECECC800C8ECEC24A4FCFCF814
:100410000000FFFFFFFF70F8FCCC840400FDFDFD31
:1004200000000000010101010000000101010101C3
:1004300000010101010101010101000000010100B1
:1004400000000001010000000001010101010101A3
:100450000101000001010101010100000001010191
:100460000101010101000101010000000101010180
:10047000000101010000FFFFFFFFFFFFFFFFFFFF83
:10048000FFFFFFFFFFFFFFFFFFFFFFFFFFFFFFFF7C
:10049000FFFFFFFF00000000000000000000000060
:1004A0000000FFFFFFFFFFFF000000000000000052
:1004B000000000000000000000000000FFFFFFFF40
:1004C000FFFFFFFFFFFFFFFF000000000000000034
:1004D000000000000000000000000000FFFFFFFF20
:1004E000FFFFFFFFFFFFFFFFFFFFFFFFFFFF00001A
:1004F00000000000000000000000000000000000FC
:100500000000000000000000000000000000FFFFED
:10051000FFFFFFFF0000FFFFFFFFFFFF00000000E5
:1005200000000000000000000000000000000000CB
:10053000000000000000FFFFFFFFFFFF00000000C1
:100540000000000000000000000000000000FFFFAD
:10055000FFFFFFFF000000000000000000002F0070
:100560000000000700070000147F147F1400242AF5
:100570007F2A1200C4C81026460036495522500072
:10058000000503000000001C224100000041221C65
:10059000000014083E08140008083E080800000087
:1005A00050300000101010101000006060000000BB
:1005B0002010080402003E5149453E0000427F40A1
:1005C00000004261514946002141454B3100181459
:1005D000127F10002745454539003C4A4949300003
:1005E0000171090503003649494936000649492980
:1005F0001E000036360000000056360000000814C9
:1006000022410000141414141400004122140800A4
:10061000020151090600324959513E007E11111163
:100620007E007F49494936003E41414122007F41D9
:1006300041221C007F49494941007F090909010005
:100640003E4149497A007F0808087F0000417F4108
:1006500000002040413F01007F08142241007F40FC
:10066000404040007F020C027F007F0408107F00A2
:100670003E4141413E007F09090906003E415121AA
:100680005E007F09192946004649494931000101A8
:100690007F0101003F4040403F001F2040201F00DD
:1006A0003F4038403F006314081463000708700897
:1006B0000700615149454300007F41410000552A30
:1006C000552A55000041417F000004020102040048
:1006D00040404040400000010204000020545454B7
:1006E00078007F484444380038444444200038446B
:1006F00044487F00385454541800087E0901020011
:100700000C5252523E007F080404780000447D40A1
:1007100000002040443D00007F10284400000041BC
:100720007F4000007C04180478007C0804047800F2
:100730003844444438007C14141408000814141875
:100740007C007C0804040800485454542000043FF2
:10075000444020003C4040207C001C2040201C00E5
:100760003C4030403C004428102844000C5050507D
:100770003C004464544C44007D1212127D003D4202
:1007800042423D00225454543A003A4444443A0010
:10079000FFFFFFFFFFFF000000000000008040207F
:1007A00090C8E4F2F9FDFDFDFDFDFDFDFDFDFDFD43
:1007B000FDFDFDFDFDFDFDFDF9F2E4C8902040804A
:1007C000000000000000C02090C8E4F2F9FCFEFF29
:1007D000FFFFFFFFFFFFFFFFFFFFFFFFFFFFFFFF29
:1007E000FFFFFFFFFFFFFFFFFFFFFFFFFFFFFEFC1D
:1007F000F9F2E4C810E0FF00FFFFFFC381183C3CA2
:100800007071F3FFFCFCFCFC0000FCFCFCFF07012A
:1008100001F8F8F8010107FFFFFF00003C3C3C181D
:100820000183FFFF00FFFF00FFFFE7C7871F1F1EB9
:100830001E80C0FFFFFFFFFF0000FFFFFFFFE08003
:10084000801F1F1F8080E0FFFFFF0000FFFFFFFFF2
:10085000FFFFFFFF00FF03040913274F9F3F7FFFA8
:10086000FFFFFFFFFFFFFFFFFFFFFFFFFFFFFFFF98
:10087000FFFFFFFFFFFFFFFFFFFFFFFFFF7F3F9F28
:100880004F271309040300000000000000010204C8
:100890000913274F9FBFBFBFBFBFBFBFBFBFBFBFF2
:1008A000BFBFBFBFBFBFBF9F4F27130904020100D7
:1008B0000000000000000000000000000000000038
:1008C000000000000000000000000000C0F0F8FE82
:1008D000FEFEF8F0C0000000000000000000000074
:1008E0000000000000000000000000000000000008
:1008F0000000000000000000000000000080E0F8A0
:10090000FCFF7F1F07010001071F7FFFFCF8E0804D
:1009100000000000000000000000000000000000D7
:10092000000000000000000000000000000080C087
:10093000F0FCFF7F1F0F03000000FEFFFFFFFE0023
:100940000000030F1F7FFFFCF0C0800000000000CC
:100950000000000000000000000000000000000097
:10096000C0E0F8FEFF3F0F0701000000000000009C
:10097000FFFFFFFFFF0000000000000001070F3F26
:10098000FFFEF8F0C00000000000000000000000C2
:100990000080E0F8FCFF7F1F07010000000000005E
:1009A000000000000000C3E7E7E7C300000000000C
:1009B0000000000000000001071F7FFFFCF8E0803E
:1009C00000000000707C7E7F7F7F7B78787878786D
:1009D00078787878787878787878787878797B7992
:1009E0007878787878787878787878787878787887
:1009F00078787B7F7F7F7F7C7000000000000000A4
:100A00007E1111117E007F40404040007E11111187
:100A10007E007F09192946007F0204027F00000042
:100A2000000000007E1111117E003E414141220074
:100A300001017F01010000417F410000073840387B
:100A400007007F4949494100000000000000000004
:100A50000000000000000000000000000000000096
:100A600000000000000000417F4100007F020408F8
:100A70007F000000000000000000000000000000F7
:100A80000000000000000048545424000000000052
:100A90000000000000000000000000000000000056
:100AA000000000000000F000000000000000000056
:100AB0000000000000F00000000000000000000046
:100AC00000000000F0000000000000000000000036
:100AD000000000F000000000000000000000000026
:100AE0000000F00000000000000000000000000016
:100AF00000F00000000000000000FF010101010102
:100B000001010101010101010101010101010101D5
:100B100001010101010101010101010101010101C5
:100B200001010101010101010101010101010101B5
:100B300001010101010101010101010101010101A5
:100B40000101010101FF0000000000000000FF8022
:100B50008080808080808080808080808080808095
:100B60008080808080808080808080808080808085
:100B70008080808080808080808080808080808075
:100B80008080808080808080808080808080808065
:100B9000808080808080808080FF000000000000D6
:100BA00000000F0000000000000000000000000036
:100BB000000F000000000000000000000000000026
:100BC0000F00000000000000000000000000000F07
:100BD00000000000000000000000000000000F0006
:100BE000000000000000000000000000000F0000F6
:100BF00000000000000000000000000000000000F5
:100C000000000000000000000000000000000000E4
:100C100000000000000000000000000000000000D4
:100C20000000C2A2928A868200404040C04000007C
:100C300000000000000000000000000000000000B4
:100C40000000000000000000000000F8F81818186C
:100C50001818181818181818181898D87838F8F894
:100C6000040000000000000018FCFC180000000058
:100C7000000000000000000000000000000C0A0955
:100C800008080064544C440020A0600000000000EC
:100C90000018FCFC1800000000000000000000FF2D
:100CA000FF003070F0F0E080C0E0F87C1E0F030120
:100CB0000000FFFF000000000000000000FFFF2018
:100CC0001010080808080808080808080808080894
:100CD00008080808080808080808101023F20A0481
:100CE000040404040408FFFF0000000000000000EA
:100CF000000000FFFF80808081879F8F8783808036
:100D0000808080808080FFFF0000000000000000E5
:100D100000FFFF3F3F3F3F3F3F3F3F3F3F3F3F3FA2
:100D20003F3F3F3F3F3F3F3F3F3F3F3F3F3F3F3FD3
:100D30003F3F3F3F3F3F3F3F3F3FFFFF000000003F
:100D4000000000000000000101010101010101019A
:100D50000101010101010101010101010000000087
:100D60000000000000070700000000000000000075
:100D70000000000000000000000000000000000073
:100D80000000000000000000000000000000070755
:100D90000000000000000000000000000000000053
:100DA0000000000000000000000000000000000043
:100DB0000000000000000000000000000000000033
:100DC0000000000000000000000000000000000023
:100DD0000000000000000000000000000000000013
:100DE0000000000000000000000000000000000003
:100DF0000000000080C0E0F0F0F8F878787C3C3C1F
:100E00003C1E1E1E3C3C3CBCF87878F8F0F0E0C07C
:100E10008000000000000000000000000000C0F0A2
:100E2000F8FC7E3F7FE7E7E3C1C0C0808080000020
:100E30000080C0F0F8FCFFFFFF0000000001030F7E
:100E40001F3FFEFCF8F0C00000000000C0FCFFFFE8
:100E50003F030000000001070F1F7FFF7F3F0F07C8
:100E6000030303030707070FFFF8F0F0F0E0E0E0EB
:100E7000C0C0C087BFFFFFFCC0000000011FFFFF14
:100E8000FEF080000080C0F0F8FCFFFFFFFE7870ED
:100E900060E0E0E0F0F0F0F8FF0F0707070303035E
:100EA000010101F0FEFFFF1F01000000000001072B
:100EB0000F1F3F7EFFFBE3C38181010000000000A4
:100EC000000001070F1F7FFFFF008080C0E0F0F0EF
:100ED000F87C3F1F0F070100000000000000000029
:100EE0000000000000010307070F0F0F0F1F1E1E59
:100EF0001E3C3C3C1E1E1E1F0F0F0F0F0707030159
:100F000000000000000000000000000000000000E1
:100F10000000000080C0E0F0F0F8F878787C3C3CFD
:100F20003C1E1E1E3C3C3C3C787878F8F0F0E0C05B
:100F30008000000000000000000000000000C0F081
:100F4000F8FC7E1F0F07070301037FFEFCF8F0E0AB
:100F5000E0C08000008080C0E0E0F0F0F8390F0FC2
:100F60001F3FFEFCF8F0C00000000000C0FCFFFFC7
:100F70003F03000000000080C0C0E0EFFF1F0F072C
:100F80000703030103070F1FBFFF8F0300000000CB
:100F9000000000073FFFFFFCC0000000011FFFFF33
:100FA000FEFC8C0E0E0F1F1F1F1F1F1F1F1EF0F0B9
:100FB000F0F0E0E0E0E0383E3F3F3F3F3F7E7C78AE
:100FC000706040F0FEFFFF1F0100000000000107FD
:100FD0000F1F3F7EFCF8E0C0808000000000037F10
:100FE000FFFF3F0F0300000000008080C0E0F0F032
:100FF000F87C3F1F0F070100000000000000000008
:101000000000000000010307070F0F0F0F1F1E1E37
:101010001F3C3C3C1E1E1E1F0F0F0F0F0707030136
:1010200000000000000000000000000000000000C0
:101030000000000080C0E0F0F0F8F878787C3C3CDC
:10104000FC9E1E1E3C3C3C3C787878F8F0F0E0C0FA
:101050008000000000000000000000000000C0F060
:10106000F8FC7E1F0F070703010000000000E0FFEF
:10107000FFFFFEF8E0800000000000000001030F09
:101080001F3FFEFCF8F0C00000000000C0FCFFFFA6
:101090003F1B183838787CFCFCFCFCFCFC3C070748
:1010A0000703030303030E3EFEFEFE7E7E3F1F0F7B
:1010B000070301073FFFFFFCC0000000011FFFFF07
:1010C000FEF0800000000000010103FBFFFCF8F8C7
:1010D000F0E0E04060F0F8FCFEFFF8E08000000087
:1010E000000000F0FEFFFF1F0100000000000107EC
:1010F0000F1F3F7EFCF8E0C080E07F3F1F0F07031B
:10110000030100000000000103038787CFEEF8F021
:10111000F87C3F1F0F0701000000000000000000E6
:101120000000000000010307070F0F0F0F1F1E1E16
:101130001E3C3C3C1E1E1E1F0F0F0F0F0707030116
:10114000000000000000000000007C0810087C0087
:1011500038444444380004047C04040038444444C3
:1011600038007C1434540800010101010101792583
:101170002525790101457D4501017D15355509017B
:101180000101010101010101017D55555529017937
:10119000252525790105057D05050105057D050543
:1011A000010101010000000000008080808080803B
:1011B000C0C0C0C0C0C0E0E0E0E0E0E0F0F0F0F0AF
:1011C000F0F0F8F8F8F8F8F8FCFCFCFCFCFCFEFE8B
:1011D000FEFEFEFEFFFFFFFFFFFFFF80800000001E
:1011E000FF818100000000000000000000000000FE
:1011F00000000000000000000000000000000000EF
:1012000000000000000000000000000000000000DE
:1012100000000000000000000000000000000000CE
:1012200000000000000000000000000000000000BE
:1012300000000000000000000000000000000000AE
:1012400000E0F8FEFE3E3C3C7C7878F8F0F0F0E000
:10125000E000003C3C3C3C3CFCFCFCFC3C3C3C3CA2
:101260003C00000000000000000000000000000042
:101270000000008080808080C0C0C0E0E0E0E0E04E
:10128000E0E080800000000000000000000000009E
:1012900000000000070F0F0F1F1F1E3E3C3C7C7C10
:1012A00078FFFFFFFF0F0F0F0F0F0F0F0F0F0F0F25
:1012B0000F0F0F0F0F0F1F3F7E7C7878787C3C3C20
:1012C0003E1E1E1EDFEFFFFFFF7F3F1F0F070303C2
:1012D0000101010303070F8F8600000000000000DA
:1012E00000000000000000000000000000000000FE
:1012F0000000000000FFFFFFFFC0C0C0C0C0C0C0B2
:10130000C0C0C0C0C0C0C0C0C0C0C0C0C0C0C0C0DD
:10131000C0C0E0F0F8FC7E3F1F0F07010000000096
:101320000000000000000000C0F0FCFFFFFEF8E03D
:1013300000000000000000000000000000000000AD
:101340000000000000000000000303030303030388
:10135000030303030303030303030303030303035D
:101360000303030303030303030000000000000062
:10137000000000000000000000000000000307075C
:10138000070703010000000000000000000000004B
:10139000000000000000000000000000000000004D
:1013A000000000000000000000000000000000003D
:1013B000000000000000000000000000000000002D
:1013C000000000000000000000000000000000001D
:1013D000000000000000000000000000000001010B
:1013E0000105057D05050101457D4501017D0911C9
:1013F000097D017D5555554501010101FFFFFFFFA5
:10140000FFFFFFFFFFFFFFFFFFFFFFFFFFFFFFFFEC
:10141000FFFFFFFFFFFFFFFFFFFFFFFFFFFFFFFFDC
:10142000FFFFFFFFFFFFFFFFFFFFFFFFFFFFFFFFCC
:10143000FFFFFFFFFFFFFFFFFFFFFFFFFFFFFFFFBC
:020000040030CA
:0300010088180F4D
:020005008581F3
:060008000FC00FE00F40E5
:00000001FF
