:020000040000FA
:10000000006AA8EF00F0008A00AA009A00B603D0A8
:10001000008640D827E2080E056E50D80436052E1B
:10002000FCD700AA2ED858D851D800BA1BD821D84E
:100030000450D890A5EF00F0008A00AA009A00B4FE
:1000400005D0FE0B016E0084D8900AD000B805D010
:10005000086E00881FD806E2085023D803E200AAE1
:10006000A5EF00F00ED838D800940098009601D87B
:10007000F7D71AC0EAFF183CE96EE9881650EC126F
:1000800008D01AC0EAFF18C0E9FF161CEE16E9886E
:10009000EC161200EEDF20D8F4DF18D8015000B6BD
:1000A0000109046E080E056E0436D8B0E2DFD8A050
:1000B000E8DF12D80BD8052EF7D7DBDF0DD81AC032
:1000C000EAFF18C0E9FF1650EF14FF0F1BC0EAFF4C
:1000D00019C0E9FF171CDAD71BC0EAFF193CE96E0B
:1000E000E9881750CCD7F86A800EA66E0900F55043
:1000F000A5EF00F0056A046EE86A0406055AD8A068
:10010000A5EF00F0030E036EE70E02D8F5D7036AE1
:10011000FD0F026E01D00206040000D0E86A035A07
:10012000FAE21200046E010E00D00A6E0550035C64
:1001300002E10450025C040ED8B0010ED8B4020EE5
:100140000A14D8A4FF0EA5EF00F00001040012006D
:10015000700ED36E9B8C0E0EC16EC1EC00F0F26A75
:10016000F18CCA94816A826A836A846AA00E236EC3
:1001700082869496216A010E056EF40EBCDFCBEFE9
:1001800000F03F0E926E010E936E946A400E956ED3
:10019000070E966E12008280949022681F6A206A71
:1001A0001FC002F020C003F01F0E056EFF0EBADF65
:1001B000D8A4E6EF00F01FC01DF020C01EF0EAEC4E
:1001C00000F01F2A000E2022D8A0EAD78290949037
:1001D0000300FED70400010E215CD8A0F1EF00F06F
:1001E00021061C9004001CB005EF01F008EC01F0A2
:1001F0001FEC01F004002450225CD8A401EF01F0B0
:100200001C8083869596212AEDD7839695961200B9
:10021000830E186E0F0E1A6E020E166E830E196E76
:100220000F0E1B6E010E176E235008DF1E5006DFE7
:100230001D5004DF225000DF21505CDF1200830ECE
:10024000186E0F0E1A6E020E166E830E196E0F0EBA
:100250001B6E010E176E2350F1DE1E50EFDE1D5097
:08026000EDDED1DE246E120078
:020000040030CA
:0300010088180F4D
:020005008581F3
:060008000FC00FE00F40E5
:00000001FF
